:100000000C942A000C948A060C94B7060C94E4060F
:100010000C943C000C943C000C943C000C943C0070
:100020000C943C000C943C000C943C000C943C0060
:100030000C943C000C943C000C943C000C943C0050
:100040000C943C000C943C000C943C000C943C0040
:100050000C943C0011241FBECFE5D8E0DEBFCDBF1D
:1000600010E0A0E6B0E001C01D92A636B107E1F7AE
:100070000E9438070C9455070C940000DF93CF932F
:1000800000D000D00F92CDB7DEB78A836B83198280
:100090008A81282F30E03D832C838C819D818230A2
:1000A0009105D9F02C813D812330310534F48C81C8
:1000B0009D818130910561F01FC02C813D812330ED
:1000C000310581F08C819D818430910581F014C0CF
:1000D000E9E3F0E08B81818311C0E6E3F0E08B81FE
:1000E00081830CC0E3E3F0E08B81818307C0E0E310
:1000F000F0E08B81818302C081E0898389810F9048
:100100000F900F900F900F90CF91DF910895DF9394
:10011000CF9300D000D00F92CDB7DEB78A836B8328
:1001200019828A81282F30E03D832C838C819D8128
:1001300082309105D9F02C813D812330310534F492
:100140008C819D818130910561F01FC02C813D81A2
:100150002330310581F08C819D818430910581F0BF
:1001600014C0E9E3F0E08B81828311C0E6E3F0E0A4
:100170008B8182830CC0E3E3F0E08B81828307C034
:10018000E0E3F0E08B81828302C081E08983898192
:100190000F900F900F900F900F90CF91DF910895D7
:1001A000DF93CF9300D000D000D0CDB7DEB79B83D4
:1001B0008A836C8319828C81282F30E03E832D83C3
:1001C0008D819E8182309105E9F02D813E81233021
:1001D000310534F48D819E818130910561F027C015
:1001E0002D813E8123303105A1F08D819E818430A7
:1001F0009105B1F01CC0E9E3F0E08081EA81FB8168
:10020000808317C0E6E3F0E08081EA81FB81808390
:1002100010C0E3E3F0E08081EA81FB81808309C0C4
:10022000E0E3F0E08081EA81FB81808302C081E02D
:100230008983898126960FB6F894DEBF0FBECDBFA5
:10024000CF91DF910895DF93CF93CDB7DEB72A9793
:100250000FB6F894DEBF0FBECDBF8A836B834C838D
:1002600019828B81883008F0D9C18C81813009F0E6
:100270007CC08A81282F30E03A87298789859A8532
:100280008230910569F129853A852330310534F4AE
:1002900089859A858130910569F064C029853A8500
:1002A0002330310599F189859A858430910509F4C7
:1002B00043C058C0A9E3B0E0E9E3F0E08181482FF2
:1002C0008B81282F30E081E090E0022E02C0880F61
:1002D000991F0A94E2F7842B11968C931197A0C171
:1002E000A6E3B0E0E6E3F0E08181482F8B81282F80
:1002F00030E081E090E0022E02C0880F991F0A943E
:10030000E2F7842B11968C9311978AC1A3E3B0E096
:10031000E3E3F0E08181482F8B81282F30E081E0FA
:1003200090E0022E02C0880F991F0A94E2F7842BF6
:1003300011968C93119774C1A0E3B0E0E0E3F0E074
:100340008181482F8B81282F30E081E090E0022EC0
:1003500002C0880F991F0A94E2F7842B11968C93A0
:1003600011975EC181E089835BC18C81823009F085
:1003700080C08A81282F30E038872F838F8198852D
:100380008230910571F12F8138852330310534F4A5
:100390008F8198858130910569F068C02F813885FB
:1003A00023303105A9F18F8198858430910509F4B6
:1003B00046C05CC0A9E3B0E0E9E3F0E08181482FEA
:1003C0008B81282F30E081E090E0022E02C0880F60
:1003D000991F0A94E2F78095842311968C931197C4
:1003E0001FC1A6E3B0E0E6E3F0E08181482F8B81F6
:1003F000282F30E081E090E0022E02C0880F991F84
:100400000A94E2F78095842311968C93119708C182
:10041000A3E3B0E0E3E3F0E08181482F8B81282F54
:1004200030E081E090E0022E02C0880F991F0A940C
:10043000E2F78095842311968C931197F1C0A0E385
:10044000B0E0E0E3F0E08181482F8B81282F30E09D
:1004500081E090E0022E02C0880F991F0A94E2F713
:100460008095842311968C931197DAC081E089835B
:10047000D7C08C81833009F0CEC08A81282F30E02C
:100480003E832D838D819E818230910509F442C087
:100490002D813E812330310534F48D819E81813060
:1004A000910571F0B5C02D813E812330310509F4ED
:1004B0005BC08D819E818430910509F47FC0A8C006
:1004C000A9E3B0E0E9E3F0E08181482F8B81282F98
:1004D00030E081E090E002C0880F991F2A95E2F792
:1004E0008095842311968C93A9E3B0E0E9E3F0E0D2
:1004F0008281482F8B81282F30E081E090E0022E0E
:1005000002C0880F991F0A94E2F7842B12968C93ED
:10051000129786C0A6E3B0E0E6E3F0E08181482FC1
:100520008B81282F30E081E090E002C0880F991F76
:100530002A95E2F78095842311968C93A6E3B0E088
:10054000E6E3F0E08281482F8B81282F30E081E0C4
:1005500090E0022E02C0880F991F0A94E2F7842BC4
:1005600012968C9312975CC0A3E3B0E0E3E3F0E053
:100570008181482F8B81282F30E081E090E002C0FC
:10058000880F991F2A95E2F78095842311968C9302
:10059000A3E3B0E0E3E3F0E08281482F8B81282FD2
:1005A00030E081E090E0022E02C0880F991F0A948B
:1005B000E2F7842B12968C93129732C0A0E3B0E03E
:1005C000E0E3F0E08181482F8B81282F30E081E04B
:1005D00090E002C0880F991F2A95E2F78095842346
:1005E00011968C93A0E3B0E0E0E3F0E08281482F25
:1005F0008B81282F30E081E090E0022E02C0880F2E
:10060000991F0A94E2F7842B12968C93129708C0D4
:1006100081E0898305C081E0898302C081E089830C
:1006200089812A960FB6F894DEBF0FBECDBFCF9159
:10063000DF910895DF93CF93CDB7DEB728970FB63C
:10064000F894DEBF0FBECDBF8A836B834C831982C3
:100650008B81883008F007C18C81823009F07CC022
:100660008A81282F30E038872F838F8198858230C8
:10067000910569F12F8138852330310534F48F815C
:1006800098858130910569F064C02F8138852330C9
:10069000310599F18F8198858430910509F443C023
:1006A00058C0A9E3B0E0E9E3F0E08281482F8B81F4
:1006B000282F30E081E090E0022E02C0880F991FC1
:1006C0000A94E2F7842B12968C931297CEC0A6E37D
:1006D000B0E0E6E3F0E08281482F8B81282F30E004
:1006E00081E090E0022E02C0880F991F0A94E2F781
:1006F000842B12968C931297B8C0A3E3B0E0E3E387
:10070000F0E08281482F8B81282F30E081E090E05B
:10071000022E02C0880F991F0A94E2F7842B1296CA
:100720008C931297A2C0A0E3B0E0E0E3F0E08281F6
:10073000482F8B81282F30E081E090E0022E02C00C
:10074000880F991F0A94E2F7842B12968C931297C4
:100750008CC081E0898389C08C81813009F080C0A0
:100760008A81282F30E03E832D838D819E818230C7
:10077000910571F12D813E812330310534F48D8155
:100780009E818130910569F068C02D813E812330C2
:100790003105A9F18D819E818430910509F446C00F
:1007A0005CC0A9E3B0E0E9E3F0E08281482F8B81EF
:1007B000282F30E081E090E0022E02C0880F991FC0
:1007C0000A94E2F78095842312968C9312974DC079
:1007D000A6E3B0E0E6E3F0E08281482F8B81282F8A
:1007E00030E081E090E0022E02C0880F991F0A9449
:1007F000E2F78095842312968C93129736C0A3E378
:10080000B0E0E3E3F0E08281482F8B81282F30E0D5
:1008100081E090E0022E02C0880F991F0A94E2F74F
:100820008095842312968C9312971FC0A0E3B0E0AA
:10083000E0E3F0E08281482F8B81282F30E081E0D7
:1008400090E0022E02C0880F991F0A94E2F780956B
:10085000842312968C93129708C081E0898305C087
:1008600081E0898302C081E08983898128960FB65F
:10087000F894DEBF0FBECDBFCF91DF910895DF9317
:10088000CF93CDB7DEB727970FB6F894DEBF0FBE74
:10089000CDBF9B838A836C834D8319828A819B8120
:1008A000009719F482E089837AC08D81883008F03E
:1008B00074C08C81282F30E03F832E834E815F816E
:1008C0004230510559F18E819F818330910534F476
:1008D0002E813F812130310569F05CC04E815F81FE
:1008E0004330510579F18E819F818430910509F45F
:1008F0003DC050C0E9E3F0E08081282F30E08D81D9
:10090000882F90E0A90102C0559547958A95E2F796
:10091000CA018170EA81FB81808341C0E6E3F0E097
:100920008081282F30E08D81882F90E0A90102C0BE
:10093000559547958A95E2F7CA018170EA81FB8156
:1009400080832DC0E3E3F0E08081282F30E08D81AB
:10095000882F90E0A90102C0559547958A95E2F746
:10096000CA018170EA81FB81808319C0E0E3F0E075
:100970008081282F30E08D81882F90E0A90102C06E
:10098000559547958A95E2F7CA018170EA81FB8106
:10099000808305C081E0898302C081E089838981E9
:1009A00027960FB6F894DEBF0FBECDBFCF91DF9173
:1009B0000895DF93CF9300D000D00F92CDB7DEB76C
:1009C0008A836B8319828B81883008F07CC08A818E
:1009D000282F30E03D832C838C819D8182309105CE
:1009E00069F12C813D812330310534F48C819D8166
:1009F0008130910569F064C02C813D81233031053F
:100A000099F18C819D818430910509F443C058C0CF
:100A1000A9E3B0E0E9E3F0E08281482F8B81282F41
:100A200030E081E090E0022E02C0880F991F0A9406
:100A3000E2F7842712968C93129747C0A6E3B0E0A2
:100A4000E6E3F0E08281482F8B81282F30E081E0BF
:100A500090E0022E02C0880F991F0A94E2F78427C3
:100A600012968C93129731C0A3E3B0E0E3E3F0E079
:100A70008281482F8B81282F30E081E090E0022E88
:100A800002C0880F991F0A94E2F7842712968C936C
:100A900012971BC0A0E3B0E0E0E3F0E08281482FB2
:100AA0008B81282F30E081E090E0022E02C0880F79
:100AB000991F0A94E2F7842712968C93129705C027
:100AC00081E0898302C082E0898389810F900F9041
:100AD0000F900F900F90CF91DF910895DF93CF93F8
:100AE000CDB7DEB727970FB6F894DEBF0FBECDBFE8
:100AF0008A836B8319828A81282F30E03F832E837B
:100B00008E819F8181309105D1F02E813F812230ED
:100B1000310561F18E819F81009709F04AC0A5E5FA
:100B2000B0E0E5E5F0E080818C7F8C93A5E5B0E056
:100B3000E5E5F0E090818B81892B8C933CC0A5E5A5
:100B4000B0E0E5E5F0E08081837F8C93A5E5B0E03F
:100B5000E5E5F0E08081282F8B81882F90E0880FD9
:100B6000991F880F991F822B8C9325C08B81282F6A
:100B700030E03D832C838C819D818230910531F062
:100B80002C813D812330310549F010C0A4E5B0E04F
:100B9000E4E5F0E080818F7B8C930DC0A4E5B0E0AC
:100BA000E4E5F0E0808180648C9305C081E0898376
:100BB00002C081E08983898127960FB6F894DEBF51
:100BC0000FBECDBFCF91DF910895DF93CF9300D0BB
:100BD00000D0CDB7DEB79B838A836C8319828A816C
:100BE0009B81009719F482E0898312C08C81833045
:100BF00068F48C81882F90E0880F991FFC01E05ADF
:100C0000FF4F8A819B819183808302C081E0898329
:100C100089810F900F900F900F90CF91DF910895E1
:100C2000DF93CF9300D000D0CDB7DEB78A8319828F
:100C30008A81282F30E03C832B838B819C818130FB
:100C4000910589F02B813C8122303105A1F08B8107
:100C50009C810097C1F4ABE5B0E0EBE5F0E080816A
:100C600080648C9312C0ABE5B0E0EBE5F0E08081EE
:100C700080688C930AC0ABE5B0E0EBE5F0E08081E2
:100C800080628C9302C081E0898389810F900F90EC
:100C90000F900F90CF91DF910895DF93CF9300D005
:100CA00000D0CDB7DEB78A8319828A81282F30E041
:100CB0003C832B838B819C818130910589F02B8132
:100CC0003C8122303105A1F08B819C810097C1F4D9
:100CD000ABE5B0E0EBE5F0E080818F7B8C9312C058
:100CE000ABE5B0E0EBE5F0E080818F778C930AC054
:100CF000ABE5B0E0EBE5F0E080818F7D8C9302C046
:100D000081E0898389810F900F900F900F90CF9190
:100D1000DF9108951F920F920FB60F9211242F9317
:100D20003F934F935F936F937F938F939F93AF9373
:100D3000BF93EF93FF93DF93CF93CDB7DEB7E091EF
:100D40006000F09161000995CF91DF91FF91EF91E3
:100D5000BF91AF919F918F917F916F915F914F91D3
:100D60003F912F910F900FBE0F901F9018951F92DB
:100D70000F920FB60F9211242F933F934F935F93CF
:100D80006F937F938F939F93AF93BF93EF93FF9353
:100D9000DF93CF93CDB7DEB7E0916200F0916300AF
:100DA0000995CF91DF91FF91EF91BF91AF919F9105
:100DB0008F917F916F915F914F913F912F910F9004
:100DC0000FBE0F901F9018951F920F920FB60F92A3
:100DD00011242F933F934F935F936F937F938F9340
:100DE0009F93AF93BF93EF93FF93DF93CF93CDB7D1
:100DF000DEB7E0916400F09165000995CF91DF9135
:100E0000FF91EF91BF91AF919F918F917F916F91E2
:100E10005F914F913F912F910F900FBE0F901F90B8
:100E20001895DF93CF93CDB7DEB7AFE5B0E0EFE530
:100E3000F0E0808180688C93CF91DF910895DF93FB
:100E4000CF93CDB7DEB7AFE5B0E0EFE5F0E080815E
:100E50008F778C93CF91DF910895DF93CF93CDB7A8
:100E6000DEB781E060E00E94D904CF91DF91089560
:100E7000DF93CF93CDB7DEB781E060E041E00E9421
:100E8000230184E062E043E00E94230180E061E00E
:100E90000E946E0580E00E9410060E9411078DE2FC
:0E0EA00097E060E00E94E505FFCFF894FFCFD9
:00000001FF
