:100000000C942A000C9447000C9447000C94470071
:100010000C9447000C9447000C9447000C94470044
:100020000C9447000C9447000C9447000C94470034
:100030000C9447000C9447000C9447000C94470024
:100040000C9447000C9447000C9447000C94470014
:100050000C94470011241FBECFE5D8E0DEBFCDBF12
:1000600010E0A0E6B0E0EEEBF3E402C005900D92E4
:10007000A039B107D9F710E0A0E9B0E001C01D92A6
:10008000A239B107E1F70E94761D0C94DD210C9492
:100090000000EF92FF920F931F937B018C0120E0F1
:1000A00030E040E05FE40E94F50388238CF0C80153
:1000B000B70120E030E040E05FE40E94C1010E940F
:1000C00055049B01AC01205030404040504806C0D0
:1000D000C801B7010E9455049B01AC01B901CA01D6
:1000E0001F910F91FF90EF900895A0E0B0E0EBE733
:1000F000F0E00C94A621DC012B01FA019C919230D6
:1001000008F439C1EB018881823008F433C194309E
:1001100069F4843009F02FC111969C91119789815F
:10012000981709F428C1A7E8B0E025C1843009F484
:1001300021C18230A9F4923009F01DC19A01AD01AC
:1001400088E0EA010990AE01E90109929E0181501F
:10015000C1F7E201898111969C918923818308C1AD
:10016000923009F407C112962D903C901397EB0141
:100170008A819B811496AD90BD90CD90DC901797AD
:10018000EC80FD800E811F819101281B390BB90184
:1001900037FF04C066277727621B730B6032710537
:1001A0000CF061C0121613066CF537014801062EDB
:1001B00004C096948794779467940A94D2F721E0C8
:1001C00030E040E050E004C0220F331F441F551FB1
:1001D0006A95D2F721503040404050402E213F21B7
:1001E00040235123211531054105510521F021E01E
:1001F00030E040E050E079018A01E628F72808293C
:1002000019293CC0232BD1F1260E371E350146019A
:10021000062E04C096948794779467940A94D2F734
:1002200021E030E040E050E004C0220F331F441FC3
:10023000551F6A95D2F721503040404050402A2146
:100240003B214C215D21211531054105510521F04E
:1002500021E030E040E050E059016A01A628B728CB
:10026000C828D9280BC0821593052CF01C01AA249C
:10027000BB24650103C0EE24FF24870111969C91E5
:10028000D20111968C91981709F445C0992339F041
:10029000A80197012A193B094C095D0906C0A6016E
:1002A00095012E193F09400B510B57FD08C01182D3
:1002B0003382228224833583468357831DC081E0A5
:1002C00081833382228288279927DC01821B930B4A
:1002D000A40BB50B84839583A683B7830DC0220F2F
:1002E000331F441F551F24833583468357838281E0
:1002F000938101979383828324813581468157813D
:10030000DA01C9010197A109B1098F5F9F4FAF4F72
:10031000BF4328F30BC0918333822282EA0CFB1C7B
:100320000C1D1D1DE482F5820683178383E0808304
:10033000248135814681578157FF1AC0C901AA27F8
:1003400097FDA095BA2F81709070A070B0705695EF
:10035000479537952795822B932BA42BB52B848318
:100360009583A683B7838281938101969383828349
:10037000DF0101C0D201CD01CDB7DEB7E2E10C94BF
:10038000C221A0E2B0E0E7ECF1E00C94B221698375
:100390007A838B839C832D833E834F835887E9E048
:1003A000EE2EF12CEC0EFD1ECE010196B7010E943F
:1003B0007E058E010F5E1F4FCE010596B8010E948B
:1003C0007E058A8991E089278A8BC701B801AE0131
:1003D000475E5F4F0E9475000E94A904A096E6E068
:1003E0000C94CE21A0E2B0E0E8EFF1E00C94B22151
:1003F00069837A838B839C832D833E834F835887C5
:10040000F9E0EF2EF12CEC0EFD1ECE010196B701A6
:100410000E947E058E010F5E1F4FCE010596B8012A
:100420000E947E05C701B801AE01475E5F4F0E9482
:1004300075000E94A904A096E6E00C94CE21A0E2EB
:10044000B0E0E5E2F2E00C94A62169837A838B8325
:100450009C832D833E834F835887CE010196BE0136
:10046000675F7F4F0E947E05CE010596BE016F5EDD
:100470007F4F0E947E059985923088F0898982306D
:10048000C8F0943019F4823051F404C0843029F457
:10049000923081F487E890E0C6C0923049F420E0C1
:1004A0009A858A89981321E02A87CE010996BBC0D4
:1004B000823049F420E09A858A89981321E02A8BBA
:1004C000CE014196B0C02D843E844F8458886D88FB
:1004D0007E888F88988CEE24FF248701AA24BB2471
:1004E000650140E050E060E070E0E0E0F0E0C10174
:1004F00081709070892BE9F0E60CF71C081D191D1E
:100500009A01AB012A0D3B1D4C1D5D1D80E090E062
:10051000A0E0B0E0E614F7040805190520F481E036
:1005200090E0A0E0B0E0BA01A901480F591F6A1F8E
:100530007B1FAA0CBB1CCC1CDD1C97FE08C081E0F5
:1005400090E0A0E0B0E0A82AB92ACA2ADB2A3196B6
:10055000E032F10549F0660C771C881C991C569412
:10056000479437942794C3CFFA85EA892B893C892D
:100570008B859C85280F391F2E5F3F4F17C0CA01FE
:1005800081709070892B61F016950795F794E79428
:1005900080E090E0A0E0B0E8E82AF92A0A2B1B2BC3
:1005A00076956795579547952F5F3F4F77FDE7CF36
:1005B0000CC0440F551F661F771F17FD4160EE0CDE
:1005C000FF1C001F111F21503040403090E05907A0
:1005D00090E0690790E4790760F32B8F3C8FDB0193
:1005E000CA018F779070A070B07080349105A1051A
:1005F000B10561F447FD0AC0E114F10401051105DC
:1006000029F0405C5F4F6F4F7F4F40781A8EFE1786
:1006100011F081E08A8F4D8F5E8F6F8F78A383E01A
:10062000898FCE0149960E94A904A096E2E10C941C
:10063000C221A8E1B0E0EFE1F3E00C94AE216983C0
:100640007A838B839C832D833E834F835887B9E0C5
:10065000EB2EF12CEC0EFD1ECE010196B7010E948F
:100660007E058E010F5E1F4FCE010596B8010E94D8
:100670007E052985223008F47EC03989323010F495
:10068000B8017CC08A859A8989278A87243011F02D
:10069000223031F4231709F06EC067E870E06EC0B5
:1006A000343039F41D861E861F86188A1C861B86E8
:1006B00004C0323021F484E08987B7015FC02B8504
:1006C0003C858B899C89281B390B3C872B87ED84C3
:1006D000FE840F851889AD88BE88CF88D88CEA142F
:1006E000FB040C051D0540F4EE0CFF1C001F111F40
:1006F000215030403C872B8720E030E040E050E044
:1007000080E090E0A0E0B0E460E070E0EA14FB0478
:100710000C051D0540F0282B392B4A2B5B2BEA18C2
:10072000FB080C091D09B695A79597958795EE0CC2
:10073000FF1C001F111F6F5F7F4F6F31710531F775
:10074000DA01C9018F779070A070B0708034910584
:10075000A105B10561F427FD0AC0E114F10401050A
:10076000110529F0205C3F4F4F4F5F4F20782D87B8
:100770003E874F87588BBE01675F7F4FCB010E943A
:10078000A9046896EAE00C94CA21A8E1B0E0EBEC79
:10079000F3E00C94B22169837A838B839C832D834D
:1007A0003E834F83588789E0E82EF12CEC0EFD1E26
:1007B000CE010196B7010E947E058E010F5E1F4F8C
:1007C000CE010596B8010E947E058985823040F0F1
:1007D0008989823028F0C701B8010E94F60501C05E
:1007E0008FEF6896E6E00C94CE21A8E1B0E0EBEF45
:1007F000F3E00C94B22169837A838B839C832D83ED
:100800003E834F83588789E0E82EF12CEC0EFD1EC5
:10081000CE010196B7010E947E058E010F5E1F4F2B
:10082000CE010596B8010E947E058985823040F090
:100830008989823028F0C701B8010E94F60501C0FD
:100840008FEF6896E6E00C94CE21A8E1B0E0EBE2F1
:10085000F4E00C94B22169837A838B839C832D838B
:100860003E834F83588789E0E82EF12CEC0EFD1E65
:10087000CE010196B7010E947E058E010F5E1F4FCB
:10088000CE010596B8010E947E058985823040F030
:100890008989823028F0C701B8010E94F60501C09D
:1008A00081E06896E6E00C94CE21ACE0B0E0EBE5A8
:1008B000F4E00C94B62169837A838B839C83CE0108
:1008C0000196BE016B5F7F4F0E947E058D81823055
:1008D00061F1823050F1843021F48E81882351F10E
:1008E0002EC02F81388537FD20C06E812F31310514
:1008F0001CF06623F9F023C08EE190E0821B930B7D
:1009000029853A854B855C8504C056954795379572
:1009100027958A95D2F76623B1F05095409530958A
:1009200021953F4F4F4F5F4F0EC020E030E040E039
:1009300050E009C02FEF3FEF4FEF5FE704C020E02A
:1009400030E040E050E8B901CA012C96E2E00C9496
:10095000D221DF92EF92FF920F931F93FC01E4806C
:10096000F58006811781D1808081823048F480E053
:1009700090E0A0E1B0E0E82AF92A0A2B1B2BA5C0E1
:10098000843009F49FC0823021F4EE24FF248701D3
:1009900005C0E114F1040105110519F4E0E0F0E0EF
:1009A00096C0628173819FEF623879070CF05BC05B
:1009B00022E83FEF261B370B2A3131052CF020E0CF
:1009C00030E040E050E02AC0B801A701022E04C088
:1009D00076956795579547950A94D2F781E090E010
:1009E000A0E0B0E004C0880F991FAA1FBB1F2A9582
:1009F000D2F70197A109B1098E219F21A023B1232C
:100A00000097A105B10521F081E090E0A0E0B0E001
:100A10009A01AB01282B392B4A2B5B2BDA01C90138
:100A20008F779070A070B07080349105A105B105EA
:100A300039F427FF09C0205C3F4F4F4F5F4F04C080
:100A4000215C3F4F4F4F5F4FE0E0F0E02030A0E0EF
:100A50003A07A0E04A07A0E45A0710F0E1E0F0E00E
:100A600079018A0127C06038710564F5FB01E158FE
:100A7000FF4FD801C7018F779070A070B07080349D
:100A80009105A105B10539F4E7FE0DC080E490E0C1
:100A9000A0E0B0E004C08FE390E0A0E0B0E0E80E9A
:100AA000F91E0A1F1B1F17FF05C016950795F7941F
:100AB000E794319687E016950795F794E7948A9521
:100AC000D1F705C0EE24FF248701EFEFF0E06E2F91
:100AD000679566276795902F9F77D794DD24D794E5
:100AE0008E2F8695492F462B582F5D29B701CA01B5
:100AF0001F910F91FF90EF90DF900895FC01DB01B3
:100B0000408151812281622F6F7770E0221F22275E
:100B1000221F9381892F880F822B282F30E0991F65
:100B20009927991F11969C93119721153105A9F5C5
:100B3000411551056105710511F482E037C082E865
:100B40009FEF13969C938E9312979A01AB0167E0E7
:100B5000220F331F441F551F6A95D1F783E08C93F2
:100B60000DC0220F331F441F551F12968D919C916B
:100B70001397019713969C938E931297203080E0E1
:100B8000380780E0480780E4580758F314962D93FF
:100B90003D934D935C93179708952F3F310579F45A
:100BA000411551056105710519F484E08C93089590
:100BB00064FF03C081E08C9312C01C9210C02F57B9
:100BC000304013963C932E93129783E08C9387E0EA
:100BD000440F551F661F771F8A95D1F770641496CE
:100BE0004D935D936D937C93179708951F93DC014C
:100BF000FB019C91923008F447C08081823008F458
:100C000043C0943051F411961C91843099F5818140
:100C1000682F70E0611B71093FC0843021F0923071
:100C200031F48230B9F18181882389F12DC0119688
:100C30001C9111978230F1F081811817D9F4129626
:100C40002D913C911397828193818217930794F0A1
:100C500028173907BCF014968D919D910D90BC9189
:100C6000A02D2481358146815781281739074A07ED
:100C70005B0718F4112341F00AC082179307A407F9
:100C8000B50740F4112319F061E070E005C06FEF83
:100C90007FEF02C060E070E0CB011F9108950F93D9
:100CA0001F93DF93CF93CDB7DEB7C257D0400FB6B7
:100CB000F894DEBF0FBECDBF82E060E041E00E944D
:100CC000C21682E061E041E00E94C21682E062E06A
:100CD00041E00E94C21681E064E041E00E94C21639
:100CE00081E065E041E00E94C21681E066E041E0FB
:100CF0000E94C21681E067E041E00E94C216FE0138
:100D0000E159FF4F80E090E0A0E2B2E4808391835C
:100D1000A283B3838E0105591F4FFE01E159FF4F96
:100D2000608171818281938120E030E04AEF54E458
:100D30000E941F02DC01CB01F80180839183A28312
:100D4000B383FE01E559FF4F6081718182819381F8
:100D500020E030E040E85FE30E942504882344F46B
:100D6000FE01E759FF4F81E090E09183808364C0EA
:100D7000FE01E559FF4F608171818281938120E0FE
:100D80003FEF4FE757E40E94C50318160CF043C02D
:100D9000FE01E159FF4F608171818281938120E0E2
:100DA00030E040E251E40E941F02DC01CB018E01E1
:100DB00007591F4FBC01CD010E944900DC01CB0146
:100DC000F801918380831FC0FE01E959FF4F88EC31
:100DD00090E091838083FE01E959FF4F80819181EA
:100DE0000197F1F7FE01E959FF4F91838083DE01FE
:100DF000A759BF4FFE01E759FF4F808191810197AD
:100E000011969C938E93FE01E759FF4F808191814B
:100E10000097D1F627C08E0107591F4FFE01E559F3
:100E2000FF4F60817181828193810E944900DC01C2
:100E3000CB01F80191838083DE01AB59BF4FFE01E6
:100E4000E759FF4F808191818D939C93FE01EB596F
:100E5000FF4F808191810197F1F7FE01EB59FF4F20
:100E60009183808383E30E94140BFE01EF59FF4FAF
:100E700080E090E0A0EAB0E480839183A283B38312
:100E80008E01035A1F4FFE01EF59FF4F60817181A0
:100E90008281938120E030E04AEF54E40E941F02F7
:100EA000DC01CB01F80180839183A283B383FE012F
:100EB000E35AFF4F608171818281938120E030E0AD
:100EC00040E85FE30E942504882344F4FE01E55ACC
:100ED000FF4F81E090E09183808364C0FE01E35A7C
:100EE000FF4F608171818281938120E03FEF4FE766
:100EF00057E40E94C50318160CF043C0FE01EF59D9
:100F0000FF4F608171818281938120E030E040E277
:100F100051E40E941F02DC01CB018E01055A1F4FD4
:100F2000BC01CD010E944900DC01CB01F801918395
:100F300080831FC0FE01E75AFF4F88EC90E0918349
:100F40008083FE01E75AFF4F808191810197F1F77D
:100F5000FE01E75AFF4F91838083DE01A55ABF4F00
:100F6000FE01E55AFF4F80819181019711969C9374
:100F70008E93FE01E55AFF4F808191810097D1F653
:100F800027C08E01055A1F4FFE01E35AFF4F6081B3
:100F90007181828193810E944900DC01CB01F801BB
:100FA00091838083DE01A95ABF4FFE01E55AFF4FAE
:100FB000808191818D939C93FE01E95AFF4F80813E
:100FC00091810197F1F7FE01E95AFF4F91838083E8
:100FD00082E30E94140BFE01ED5AFF4F80E090E087
:100FE000A8ECB2E480839183A283B3838E01015B7A
:100FF0001F4FFE01ED5AFF4F608171818281938105
:101000002BEA3AEA4AE250E40E941F02DC01CB01DB
:10101000F80180839183A283B383FE01E15BFF4FDC
:10102000608171818281938120E030E040E85FE35C
:101030000E942504882334F4FE01E25BFF4F81E027
:101040008083E0C0FE01E15BFF4F6081718182819E
:10105000938120E030E04FE753E40E94C503181667
:101060000CF0C0C0FE01ED5AFF4F6081718182819A
:10107000938120E030E04AE754E40E941903DC0148
:10108000CB01FE01E65BFF4F80839183A283B38394
:101090008E010A5B1F4FFE01E65BFF4F608171818D
:1010A0008281938120E030E04AEF54E40E941F02E5
:1010B000DC01CB01F80180839183A283B383FE011D
:1010C000EA5BFF4F608171818281938120E030E093
:1010D00040E85FE30E942504882344F4FE01EC5BB2
:1010E000FF4F81E090E09183808364C0FE01EA5B62
:1010F000FF4F608171818281938120E03FEF4FE754
:1011000057E40E94C50318160CF043C0FE01E65BCD
:10111000FF4F608171818281938120E030E040E265
:1011200051E40E941F02DC01CB018E010C5B1F4FBA
:10113000BC01CD010E944900DC01CB01F801918383
:1011400080831FC0FE01EE5BFF4F88EC90E091832F
:101150008083FE01EE5BFF4F808191810197F1F763
:10116000FE01EE5BFF4F91838083DE01AC5BBF4FDE
:10117000FE01EC5BFF4F80819181019711969C935A
:101180008E93FE01EC5BFF4F808191810097D1F639
:1011900042C08E010C5B1F4FFE01EA5BFF4F608176
:1011A0007181828193810E944900DC01CB01F801A9
:1011B00091838083DE01A05CBF4FFE01EC5BFF4F9B
:1011C0008081918111969C938E93FE01E05CFF4F8C
:1011D000808191810197F1F7FE01E05CFF4F9183DF
:1011E000808319C08E01025B1F4FFE01E15BFF4F40
:1011F00060817181828193810E944900DC01CB0171
:10120000F8018083FE01E25BFF4F80818FAF8FADDD
:101210008A95F1F78FAF88E20E94140B80E090E08E
:10122000A8ECB2E48BAF9CAFADAFBEAF6BAD7CAD05
:101230008DAD9EAD2BEA3AEA4AE250E40E941F02CD
:10124000DC01CB018FAB98AFA9AFBAAF6FA978AD76
:1012500089AD9AAD20E030E040E85FE30E942504CC
:1012600088231CF481E08EAB91C06FA978AD89AD65
:101270009AAD20E030E04FE753E40E94C503181612
:101280000CF07BC06BAD7CAD8DAD9EAD20E030E051
:101290004AE754E40E941903DC01CB018AAB9BAB03
:1012A000ACABBDAB6AA97BA98CA99DA920E030E0BD
:1012B0004AEF54E40E941F02DC01CB018EA79FA7D6
:1012C000A8ABB9AB6EA57FA588A999A920E030E0AD
:1012D00040E85FE30E94250488232CF481E090E03D
:1012E0009DA78CA73FC06EA57FA588A999A920E0DE
:1012F0003FEF4FE757E40E94C50318164CF56AA963
:101300007BA98CA99DA920E030E040E251E40E9435
:101310001F02DC01CB01BC01CD010E944900DC01B0
:10132000CB019DA78CA70FC088EC90E09BA78AA754
:101330008AA59BA50197F1F79BA78AA78CA59DA5D8
:1013400001979DA78CA78CA59DA5009769F724C040
:101350006EA57FA588A999A90E944900DC01CB014F
:101360009DA78CA78CA59DA599A788A788A599A5B9
:101370000197F1F799A788A70FC06FA978AD89AD3C
:101380009AAD0E944900DC01CB018EAB8EA98FA3E0
:101390008FA18A95F1F78FA38CE00E94140B80E057
:1013A00090E0A8E4B3E48BA39CA3ADA3BEA36BA180
:1013B0007CA18DA19EA12BEA3AEA4AE250E40E9468
:1013C0001F02DC01CB018F8F98A3A9A3BAA36F8D55
:1013D00078A189A19AA120E030E040E85FE30E9473
:1013E000250488231CF481E08E8F91C06F8D78A135
:1013F00089A19AA120E030E04FE753E40E94C503A1
:1014000018160CF07BC06BA17CA18DA19EA120E0E1
:1014100030E04AE754E40E941903DC01CB018A8FD3
:101420009B8FAC8FBD8F6A8D7B8D8C8D9D8D20E0C9
:1014300030E04AEF54E40E941F02DC01CB018E8BA6
:101440009F8BA88FB98F6E897F89888D998D20E0B9
:1014500030E040E85FE30E94250488232CF481E01B
:1014600090E09D8B8C8B3FC06E897F89888D998D94
:1014700020E03FEF4FE757E40E94C50318164CF5F4
:101480006A8D7B8D8C8D9D8D20E030E040E251E4B3
:101490000E941F02DC01CB01BC01CD010E9449006A
:1014A000DC01CB019D8B8C8B0FC088EC90E09B8B7B
:1014B0008A8B8A899B890197F1F79B8B8A8B8C8910
:1014C0009D8901979D8B8C8B8C899D89009769F7ED
:1014D00024C06E897F89888D998D0E944900DC0126
:1014E000CB019D8B8C8B8C899D89998B888B88896E
:1014F00099890197F1F7998B888B0FC06F8D78A12F
:1015000089A19AA10E944900DC01CB018E8F8E8DAA
:101510008F878F858A95F1F78F8786E00E94140B5D
:101520008FE00E94140B81E00E94140B80E090E099
:10153000A0E0B0E48B879C87AD87BE876B857C85F8
:101540008D859E8520E030E04AEF54E40E941F0222
:10155000DC01CB018F839887A987BA876F81788553
:1015600089859A8520E030E040E85FE30E94250409
:1015700088232CF481E090E09E838D833FC06F81AF
:10158000788589859A8520E03FEF4FE757E40E94F0
:10159000C50318164CF56B857C858D859E8520E0EE
:1015A00030E040E251E40E941F02DC01CB01BC01AB
:1015B000CD010E944900DC01CB019E838D830FC0C9
:1015C00088EC90E09C838B838B819C810197F1F761
:1015D0009C838B838D819E8101979E838D838D81DA
:1015E0009E81009769F714C06F81788589859A85F7
:1015F0000E944900DC01CB019E838D838D819E81F9
:101600009A83898389819A810197F1F79A838983E3
:10161000CE58DF4F0FB6F894DEBF0FBECDBFCF91CF
:10162000DF911F910F9108950F931F93DF93CF9335
:10163000CDB7DEB7C156D0400FB6F894DEBF0FBEAF
:10164000CDBFFE01EF59FF4F808382E060E041E0B3
:101650000E94B91882E061E041E00E94B91882E07E
:1016600062E041E00E94B918FE01EF59FF4F80810E
:1016700082958F708170982F9F5F81E064E0492F81
:101680000E94B918FE01EF59FF4F8081829586951F
:1016900087708170982F9F5F81E065E0492F0E94DD
:1016A000B918FE01EF59FF4F808182958695869586
:1016B00083708170982F9F5F81E066E0492F0E94C0
:1016C000B918FE01EF59FF4F8081881F8827881FB6
:1016D000982F9F5F81E067E0492F0E94B91882E050
:1016E00062E042E00E94B918FE01E35AFF4F80E039
:1016F00090E0A0E2B1E480839183A283B3838E0162
:10170000075A1F4FFE01E35AFF4F608171818281AA
:1017100093812BEA3AEA4AE250E40E941F02DC017C
:10172000CB01F80180839183A283B383FE01E75A42
:10173000FF4F608171818281938120E030E040E839
:101740005FE30E942504882334F4FE01E85AFF4F2A
:1017500081E08083E0C0FE01E75AFF4F6081718124
:101760008281938120E030E04FE753E40E94C5037B
:1017700018160CF0C0C0FE01E35AFF4F6081718162
:101780008281938120E030E04AE754E40E9419030B
:10179000DC01CB01FE01EC5AFF4F80839183A283D1
:1017A000B3838E01005B1F4FFE01EC5AFF4F608137
:1017B00071818281938120E030E04AEF54E40E94FD
:1017C0001F02DC01CB01F80180839183A283B383E4
:1017D000FE01E05BFF4F608171818281938120E097
:1017E00030E040E85FE30E942504882344F4FE01D2
:1017F000E25BFF4F81E090E09183808364C0FE0153
:10180000E05BFF4F608171818281938120E03FEF37
:101810004FE757E40E94C50318160CF043C0FE01C1
:10182000EC5AFF4F608171818281938120E030E02A
:1018300040E251E40E941F02DC01CB018E01025BF9
:101840001F4FBC01CD010E944900DC01CB01F80112
:10185000918380831FC0FE01E45BFF4F88EC90E022
:1018600091838083FE01E45BFF4F8081918101972A
:10187000F1F7FE01E45BFF4F91838083DE01A25B01
:10188000BF4FFE01E25BFF4F80819181019711966E
:101890009C938E93FE01E25BFF4F808191810097C4
:1018A000D1F64BC08E01025B1F4FFE01E05BFF4F84
:1018B00060817181828193810E944900DC01CB01AA
:1018C000F80191838083DE01A65BBF4FFE01E25BDE
:1018D000FF4F8081918111969C938E93FE01E65B70
:1018E000FF4F808191810197F1F7FE01E65BFF4F89
:1018F0009183808322C08E01085A1F4FFE01E75A50
:10190000FF4F60817181828193810E944900DC01D7
:10191000CB01F8018083DE01A75BBF4FFE01E85ACF
:10192000FF4F80818C93FE01E75BFF4F80818A959A
:10193000F1F7FE01E75BFF4F808382E062E041E068
:101940000E94B918FE01EB5BFF4F80E090E0A8EC2D
:10195000B2E480839183A283B3838E010F5B1F4F18
:10196000FE01EB5BFF4F60817181828193812BEAE5
:101970003AEA4AE250E40E941F02DC01CB01F8017E
:1019800080839183A283B383FE01EF5BFF4F60816D
:1019900071818281938120E030E040E85FE30E9422
:1019A0002504882334F481E0FE01E05CFF4F80834E
:1019B0009DC0FE01EF5BFF4F608171818281938149
:1019C00020E030E04FE753E40E94C50318160CF006
:1019D0007EC0FE01EB5BFF4F60817181828193814C
:1019E00020E030E04AE754E40E941903DC01CB0117
:1019F0008CAF9DAFAEAFBFAF6CAD7DAD8EAD9FADCB
:101A000020E030E04AEF54E40E941F02DC01CB01E9
:101A100088AF99AFAAAFBBAF68AD79AD8AAD9BADCA
:101A200020E030E040E85FE30E94250488232CF4A6
:101A300081E090E09FAB8EAB3FC068AD79AD8AADE1
:101A40009BAD20E03FEF4FE757E40E94C503181617
:101A50004CF56CAD7DAD8EAD9FAD20E030E040E249
:101A600051E40E941F02DC01CB01BC01CD010E94A8
:101A70004900DC01CB019FAB8EAB0FC088EC90E03E
:101A80009DAB8CAB8CA99DA90197F1F79DAB8CAB5D
:101A90008EA99FA901979FAB8EAB8EA99FA9009796
:101AA00069F72DC068AD79AD8AAD9BAD0E94490044
:101AB000DC01CB019FAB8EAB8EA99FA99BAB8AAB00
:101AC0008AA99BA90197F1F79BAB8AAB18C0FE01CD
:101AD000EF5BFF4F60817181828193810E94490099
:101AE000DC01CB01FE01E05CFF4F8083FE01E05C86
:101AF000FF4F808189AB89A98A95F1F789ABFE01F7
:101B0000EF59FF4F80818170982F9F5F81E064E0E3
:101B1000492F0E94B918FE01EF59FF4F8081869529
:101B20008170982F9F5F81E065E0492F0E94B9186E
:101B3000FE01EF59FF4F8081869586958170982F21
:101B40009F5F81E066E0492F0E94B918FE01EF59BE
:101B5000FF4F80818695869586958170982F9F5F2F
:101B600081E067E0492F0E94B91882E062E042E01C
:101B70000E94B91880E090E0A0E2B1E48DA79EA792
:101B8000AFA7B8AB6DA57EA58FA598A92BEA3AEAB9
:101B90004AE250E40E941F02DC01CB0189A79AA708
:101BA000ABA7BCA769A57AA58BA59CA520E030E0D2
:101BB00040E85FE30E94250488231CF481E088A7A5
:101BC00091C069A57AA58BA59CA520E030E04FE7E0
:101BD00053E40E94C50318160CF07BC06DA57EA5CA
:101BE0008FA598A920E030E04AE754E40E94190349
:101BF000DC01CB018CA39DA3AEA3BFA36CA17DA1EF
:101C00008EA19FA120E030E04AEF54E40E941F0221
:101C1000DC01CB0188A399A3AAA3BBA368A179A1E6
:101C20008AA19BA120E030E040E85FE30E94250408
:101C300088232CF481E090E09F8F8E8F3FC068A1B5
:101C400079A18AA19BA120E03FEF4FE757E40E94D2
:101C5000C50318164CF56CA17DA18EA19FA120E0B3
:101C600030E040E251E40E941F02DC01CB01BC01E4
:101C7000CD010E944900DC01CB019F8F8E8F0FC0E8
:101C800088EC90E09D8F8C8F8C8D9D8D0197F1F766
:101C90009D8F8C8F8E8D9F8D01979F8F8E8F8E8DB8
:101CA0009F8D009769F724C068A179A18AA19BA1A3
:101CB0000E944900DC01CB019F8F8E8F8E8D9F8DFE
:101CC0009B8F8A8F8A8D9B8D0197F1F79B8F8A8FCF
:101CD0000FC069A57AA58BA59CA50E944900DC01CF
:101CE000CB0188A788A5898F898D8A95F1F7898F7F
:101CF00082E062E041E00E94B91880E090E0A8EC48
:101D0000B2E48D8B9E8BAF8BB88F6D897E898F8966
:101D1000988D2BEA3AEA4AE250E40E941F02DC0165
:101D2000CB01898B9A8BAB8BBC8B69897A898B8928
:101D30009C8920E030E040E85FE30E94250488238E
:101D40001CF481E0888B91C069897A898B899C8990
:101D500020E030E04FE753E40E94C50318160CF072
:101D60007BC06D897E898F89988D20E030E04AE7BD
:101D700054E40E941903DC01CB018C879D87AE8758
:101D8000BF876C857D858E859F8520E030E04AEF9A
:101D900054E40E941F02DC01CB0188879987AA873F
:101DA000BB87688579858A859B8520E030E040E89F
:101DB0005FE30E94250488232CF481E090E09F8358
:101DC0008E833FC0688579858A859B8520E03FEFBB
:101DD0004FE757E40E94C50318164CF56C857D85C6
:101DE0008E859F8520E030E040E251E40E941F0292
:101DF000DC01CB01BC01CD010E944900DC01CB011B
:101E00009F838E830FC088EC90E09D838C838C81B0
:101E10009D810197F1F79D838C838E819F8101972E
:101E20009F838E838E819F81009769F724C0688588
:101E300079858A859B850E944900DC01CB019F83BF
:101E40008E838E819F819B838A838A819B81019768
:101E5000F1F79B838A830FC069897A898B899C8972
:101E60000E944900DC01CB01888B888989838981A4
:101E70008A95F1F78983CF59DF4F0FB6F894DEBF0B
:101E80000FBECDBFCF91DF911F910F9108950F939A
:101E90001F93DF93CF93CDB7DEB7C156D0400FB6B7
:101EA000F894DEBF0FBECDBFFE01EF59FF4F808318
:101EB00082E060E042E00E94B91882E061E041E027
:101EC0000E94B91882E062E041E00E94B918FE0168
:101ED000EF59FF4F808182958F708170982F9F5F9F
:101EE00081E064E0492F0E94B918FE01EF59FF4FCD
:101EF00080818295869587708170982F9F5F81E0A1
:101F000065E0492F0E94B918FE01EF59FF4F80810B
:101F100082958695869583708170982F9F5F81E06A
:101F200066E0492F0E94B918FE01EF59FF4F8081EA
:101F3000881F8827881F982F9F5F81E067E0492FBF
:101F40000E94B91882E062E042E00E94B918FE01E6
:101F5000E35AFF4F80E090E0A0E2B1E480839183F8
:101F6000A283B3838E01075A1F4FFE01E35AFF4F2E
:101F700060817181828193812BEA3AEA4AE250E4DE
:101F80000E941F02DC01CB01F80180839183A283B0
:101F9000B383FE01E75AFF4F608171818281938193
:101FA00020E030E040E85FE30E942504882334F419
:101FB000FE01E85AFF4F81E08083E0C0FE01E75A4E
:101FC000FF4F608171818281938120E030E04FE793
:101FD00053E40E94C50318160CF0C0C0FE01E35A7A
:101FE000FF4F608171818281938120E030E04AE778
:101FF00054E40E941903DC01CB01FE01EC5AFF4FAF
:1020000080839183A283B3838E01005B1F4FFE0107
:10201000EC5AFF4F608171818281938120E030E032
:102020004AEF54E40E941F02DC01CB01F8018083D7
:102030009183A283B383FE01E05BFF4F60817181D6
:102040008281938120E030E040E85FE30E94250434
:10205000882344F4FE01E25BFF4F81E090E091832E
:10206000808364C0FE01E05BFF4F608171818281EB
:10207000938120E03FEF4FE757E40E94C503181615
:102080000CF043C0FE01EC5AFF4F608171818281E8
:10209000938120E030E040E251E40E941F02DC0125
:1020A000CB018E01025B1F4FBC01CD010E94490094
:1020B000DC01CB01F801918380831FC0FE01E45B4A
:1020C000FF4F88EC90E091838083FE01E45BFF4F3B
:1020D000808191810197F1F7FE01E45BFF4F9183CD
:1020E0008083DE01A25BBF4FFE01E25BFF4F808178
:1020F0009181019711969C938E93FE01E25BFF4FB5
:10210000808191810097D1F64BC08E01025B1F4FF9
:10211000FE01E05BFF4F60817181828193810E94AB
:102120004900DC01CB01F80191838083DE01A65BCD
:10213000BF4FFE01E25BFF4F8081918111969C931E
:102140008E93FE01E65BFF4F808191810197F1F74D
:10215000FE01E65BFF4F9183808322C08E01085A07
:102160001F4FFE01E75AFF4F608171818281938189
:102170000E944900DC01CB01F8018083DE01A75BEE
:10218000BF4FFE01E85AFF4F80818C93FE01E75B51
:10219000FF4F80818A95F1F7FE01E75BFF4F808357
:1021A00082E062E041E00E94B918FE01EB5BFF4F64
:1021B00080E090E0A8ECB2E480839183A283B383B3
:1021C0008E010F5B1F4FFE01EB5BFF4F6081718142
:1021D000828193812BEA3AEA4AE250E40E941F028C
:1021E000DC01CB01F80180839183A283B383FE01DC
:1021F000EF5BFF4F608171818281938120E030E04D
:1022000040E85FE30E942504882334F481E0FE0166
:10221000E05CFF4F80839DC0FE01EF5BFF4F60815C
:1022200071818281938120E030E04FE753E40E9486
:10223000C50318160CF07EC0FE01EB5BFF4F6081FA
:1022400071818281938120E030E04AE754E40E946A
:102250001903DC01CB018CAF9DAFAEAFBFAF6CAD4E
:102260007DAD8EAD9FAD20E030E04AEF54E40E949A
:102270001F02DC01CB0188AF99AFAAAFBBAF68AD3D
:1022800079AD8AAD9BAD20E030E040E85FE30E948D
:10229000250488232CF481E090E09FAB8EAB3FC0F7
:1022A00068AD79AD8AAD9BAD20E03FEF4FE757E4D5
:1022B0000E94C50318164CF56CAD7DAD8EAD9FAD7B
:1022C00020E030E040E251E40E941F02DC01CB013B
:1022D000BC01CD010E944900DC01CB019FAB8EAB5C
:1022E0000FC088EC90E09DAB8CAB8CA99DA90197A9
:1022F000F1F79DAB8CAB8EA99FA901979FAB8EABDD
:102300008EA99FA9009769F72DC068AD79AD8AADF8
:102310009BAD0E944900DC01CB019FAB8EAB8EA927
:102320009FA99BAB8AAB8AA99BA90197F1F79BABAD
:102330008AAB18C0FE01EF5BFF4F60817181828123
:1023400093810E944900DC01CB01FE01E05CFF4F5C
:102350008083FE01E05CFF4F808189AB89A98A956B
:10236000F1F789ABFE01EF59FF4F80818170982F03
:102370009F5F81E064E0492F0E94B918FE01EF5988
:10238000FF4F808186958170982F9F5F81E065E087
:10239000492F0E94B918FE01EF59FF4F80818695A1
:1023A00086958170982F9F5F81E066E0492F0E949B
:1023B000B918FE01EF59FF4F808186958695869565
:1023C0008170982F9F5F81E067E0492F0E94B918C4
:1023D00082E062E042E00E94B91880E090E0A0E272
:1023E000B1E48DA79EA7AFA7B8AB6DA57EA58FA5BD
:1023F00098A92BEA3AEA4AE250E40E941F02DC0163
:10240000CB0189A79AA7ABA7BCA769A57AA58BA57D
:102410009CA520E030E040E85FE30E94250488238B
:102420001CF481E088A791C069A57AA58BA59CA51D
:1024300020E030E04FE753E40E94C50318160CF08B
:102440007BC06DA57EA58FA598A920E030E04AE766
:1024500054E40E941903DC01CB018CA39DA3AEA31D
:10246000BFA36CA17DA18EA19FA120E030E04AEF27
:1024700054E40E941F02DC01CB0188A399A3AAA304
:10248000BBA368A179A18AA19BA120E030E040E82C
:102490005FE30E94250488232CF481E090E09F8F65
:1024A0008E8F3FC068A179A18AA19BA120E03FEF58
:1024B0004FE757E40E94C50318164CF56CA17DA1A7
:1024C0008EA19FA120E030E040E251E40E941F0273
:1024D000DC01CB01BC01CD010E944900DC01CB0134
:1024E0009F8F8E8F0FC088EC90E09D8F8C8F8C8D8E
:1024F0009D8D0197F1F79D8F8C8F8E8D9F8D01970C
:102500009F8F8E8F8E8D9F8D009769F724C068A155
:1025100079A18AA19BA10E944900DC01CB019F8F78
:102520008E8F8E8D9F8D9B8F8A8F8A8D9B8D01972D
:10253000F1F79B8F8A8F0FC069A57AA58BA59CA503
:102540000E944900DC01CB0188A788A5898F898D6D
:102550008A95F1F7898F82E062E041E00E94B91824
:1025600080E090E0A8ECB2E48D8B9E8BAF8BB88FAF
:102570006D897E898F89988D2BEA3AEA4AE250E488
:102580000E941F02DC01CB01898B9A8BAB8BBC8B29
:1025900069897A898B899C8920E030E040E85FE393
:1025A0000E94250488231CF481E0888B91C06989EE
:1025B0007A898B899C8920E030E04FE753E40E94C0
:1025C000C50318160CF07BC06D897E898F89988DA4
:1025D00020E030E04AE754E40E941903DC01CB011B
:1025E0008C879D87AE87BF876C857D858E859F850F
:1025F00020E030E04AEF54E40E941F02DC01CB01EE
:1026000088879987AA87BB87688579858A859B850E
:1026100020E030E040E85FE30E94250488232CF4AA
:1026200081E090E09F838E833FC0688579858A85AD
:102630009B8520E03FEF4FE757E40E94C503181643
:102640004CF56C857D858E859F8520E030E040E2ED
:1026500051E40E941F02DC01CB01BC01CD010E94AC
:102660004900DC01CB019F838E830FC088EC90E092
:102670009D838C838C819D810197F1F79D838C8351
:102680008E819F8101979F838E838E819F8100978A
:1026900069F724C0688579858A859B850E944900F1
:1026A000DC01CB019F838E838E819F819B838A83F4
:1026B0008A819B810197F1F79B838A830FC0698987
:1026C0007A898B899C890E944900DC01CB01888B27
:1026D0008889898389818A95F1F78983CF59DF4F6A
:1026E0000FB6F894DEBF0FBECDBFCF91DF911F9123
:1026F0000F910895DF93CF93CDB7DEB729970FB62B
:10270000F894DEBF0FBECDBF9987888788859985ED
:10271000009721F480E30E94470F3DC0198220C03A
:102720008981E82FFF27E7FDF095888599852AE0C4
:1027300030E0B9010E947021282F205DCE01029661
:10274000E80FF91F2083888599852AE030E0B901D8
:102750000E947021CB019987888789818F5F898347
:10276000888599850097E1F689818150898310C019
:102770008981282F332727FD3095CE010296FC0151
:10278000E20FF31F80810E94470F89818150898366
:1027900089818F3F69F729960FB6F894DEBF0FBE87
:1027A000CDBFCF91DF910895DF93CF9300D00F92EB
:1027B000CDB7DEB79B838A838A819B810097D1F056
:1027C00019828981282F30E08A819B81FC01E20FE8
:1027D000F31F80810E94470F89818F5F89838981E0
:1027E000282F30E08A819B81FC01E20FF31F80815A
:1027F000882339F70F900F900F90CF91DF910895B4
:10280000DF93CF93CDB7DEB761970FB6F894DEBFF5
:102810000FBECDBF888B698B8889982F9295990FB1
:10282000990F907C8989892B80688F878F850E947A
:10283000140B80E090E0A0E8BFE38B879C87AD8716
:10284000BE876B857C858D859E8520E030E04AEFD4
:1028500054E40E941F02DC01CB018F839887A98773
:10286000BA876F81788589859A8520E030E040E8D5
:102870005FE30E94250488232CF481E090E09E838E
:102880008D833FC06F81788589859A8520E03FEFF1
:102890004FE757E40E94C50318164CF56B857C85FD
:1028A0008D859E8520E030E040E251E40E941F02C9
:1028B000DC01CB01BC01CD010E944900DC01CB0150
:1028C0009E838D830FC088EC90E09C838B838B81EB
:1028D0009C810197F1F79C838B838D819E81019769
:1028E0009E838D838D819E81009769F714C06F81CF
:1028F000788589859A850E944900DC01CB019E83F9
:102900008D838D819E819A83898389819A810197A4
:10291000F1F79A83898361960FB6F894DEBF0FBEF4
:10292000CDBFCF91DF910895DF93CF93CDB7DEB7C1
:102930002E970FB6F894DEBF0FBECDBF81E00E9488
:10294000140B80E090E0A0E8BFE38B879C87AD8705
:10295000BE876B857C858D859E8520E030E04AEFC3
:1029600054E40E941F02DC01CB018F839887A98762
:10297000BA876F81788589859A8520E030E040E8C4
:102980005FE30E94250488232CF481E090E09E837D
:102990008D833FC06F81788589859A8520E03FEFE0
:1029A0004FE757E40E94C50318164CF56B857C85EC
:1029B0008D859E8520E030E040E251E40E941F02B8
:1029C000DC01CB01BC01CD010E944900DC01CB013F
:1029D0009E838D830FC088EC90E09C838B838B81DA
:1029E0009C810197F1F79C838B838D819E81019758
:1029F0009E838D838D819E81009769F714C06F81BE
:102A0000788589859A850E944900DC01CB019E83E7
:102A10008D838D819E819A83898389819A81019793
:102A2000F1F79A8389832E960FB6F894DEBF0FBE16
:102A3000CDBFCF91DF910895DF93CF930F92CDB7A4
:102A4000DEB7198260E573EC80E090E043E00E941D
:102A50000D1B89830E94D31B89810F90CF91DF9139
:102A60000895DF93CF9300D000D00F92CDB7DEB79B
:102A70009C838B836D838B819C81892F992789838C
:102A8000898180658A830E94281C0E949F1C0E9465
:102A9000941C883039F58A81882F90E0880F991F1F
:102AA0000E94BA1C0E94AB1C0E949F1C0E94941C96
:102AB0008831C1F48B810E94BA1C0E94AB1C0E9419
:102AC0009F1C0E94941C883269F48D810E94BA1C5C
:102AD0000E94AB1C0E949F1C0E94941C883211F41F
:102AE0000E94361C0F900F900F900F900F90CF9177
:102AF000DF910895DF93CF9300D000D00F92CDB730
:102B0000DEB79D838C8319828C819D81892F9927C3
:102B10008A838A8180658B830E94281C0E949F1C67
:102B20000E94941C883009F03FC08B81882F90E070
:102B3000880F991F0E94BA1C0E94AB1C0E949F1C08
:102B40000E94941C883181F58C810E94BA1C0E94DD
:102B5000AB1C0E949F1C0E94941C883229F50E9485
:102B6000281C0E949F1C0E94941C8031E9F48B81D8
:102B7000882F90E0880F991F81600E94BA1C0E94E4
:102B8000AB1C0E949F1C0E94941C803469F40E941C
:102B9000AB1C0E949F1C0E94941C883529F40E9443
:102BA000C81C89830E94361C89810F900F900F905A
:102BB0000F900F90CF91DF910895DF93CF9300D0C6
:102BC00000D00F92CDB7DEB78A836B8319828A81DA
:102BD000282F30E03D832C838C819D8182309105AC
:102BE000D9F02C813D812330310534F48C819D81D5
:102BF0008130910561F01FC02C813D81233031056A
:102C000081F08C819D818430910581F014C0E9E3CD
:102C1000F0E08B81818311C0E6E3F0E08B8181835A
:102C20000CC0E3E3F0E08B81818307C0E0E3F0E0D8
:102C30008B81818302C081E0898389810F900F900D
:102C40000F900F900F90CF91DF910895DF93CF9366
:102C500000D000D00F92CDB7DEB78A836B83198284
:102C60008A81282F30E03D832C838C819D818230A6
:102C70009105D9F02C813D812330310534F48C81CC
:102C80009D818130910561F01FC02C813D812330F1
:102C9000310581F08C819D818430910581F014C0D3
:102CA000E9E3F0E08B81828311C0E6E3F0E08B8101
:102CB00082830CC0E3E3F0E08B81828307C0E0E312
:102CC000F0E08B81828302C081E0898389810F904B
:102CD0000F900F900F900F90CF91DF910895DF9399
:102CE000CF9300D000D000D0CDB7DEB79B838A83CE
:102CF0006C8319828C81282F30E03E832D838D8157
:102D00009E8182309105E9F02D813E81233031058D
:102D100034F48D819E818130910561F027C02D8131
:102D20003E8123303105A1F08D819E818430910553
:102D3000B1F01CC0E9E3F0E08081EA81FB8180838F
:102D400017C0E6E3F0E08081EA81FB81808310C058
:102D5000E3E3F0E08081EA81FB81808309C0E0E366
:102D6000F0E08081EA81FB81808302C081E0898379
:102D7000898126960FB6F894DEBF0FBECDBFCF91E6
:102D8000DF910895DF93CF93CDB7DEB72A970FB6C3
:102D9000F894DEBF0FBECDBF8A836B834C8319824C
:102DA0008B81883008F0D9C18C81813009F07CC0DA
:102DB0008A81282F30E03A87298789859A85823051
:102DC000910569F129853A852330310534F48985E7
:102DD0009A858130910569F064C029853A85233050
:102DE000310599F189859A858430910509F443C0AC
:102DF00058C0A9E3B0E0E9E3F0E08181482F8B817E
:102E0000282F30E081E090E0022E02C0880F991F49
:102E10000A94E2F7842B11968C931197A0C1A6E334
:102E2000B0E0E6E3F0E08181482F8B81282F30E08D
:102E300081E090E0022E02C0880F991F0A94E2F709
:102E4000842B11968C9311978AC1A3E3B0E0E3E33E
:102E5000F0E08181482F8B81282F30E081E090E0E5
:102E6000022E02C0880F991F0A94E2F7842B119654
:102E70008C93119774C1A0E3B0E0E0E3F0E08181AE
:102E8000482F8B81282F30E081E090E0022E02C095
:102E9000880F991F0A94E2F7842B11968C9311974F
:102EA0005EC181E089835BC18C81823009F080C082
:102EB0008A81282F30E038872F838F819885823050
:102EC000910571F12F8138852330310534F48F81DC
:102ED00098858130910569F068C02F81388523304D
:102EE0003105A9F18F8198858430910509F446C098
:102EF0005CC0A9E3B0E0E9E3F0E08181482F8B8179
:102F0000282F30E081E090E0022E02C0880F991F48
:102F10000A94E2F78095842311968C9311971FC130
:102F2000A6E3B0E0E6E3F0E08181482F8B81282F13
:102F300030E081E090E0022E02C0880F991F0A94D1
:102F4000E2F78095842311968C93119708C1A3E32F
:102F5000B0E0E3E3F0E08181482F8B81282F30E05F
:102F600081E090E0022E02C0880F991F0A94E2F7D8
:102F70008095842311968C931197F1C0A0E3B0E063
:102F8000E0E3F0E08181482F8B81282F30E081E061
:102F900090E0022E02C0880F991F0A94E2F78095F4
:102FA000842311968C931197DAC081E08983D7C06E
:102FB0008C81833009F0CEC08A81282F30E03E8397
:102FC0002D838D819E818230910509F442C02D812F
:102FD0003E812330310534F48D819E81813091050D
:102FE00071F0B5C02D813E812330310509F45BC0FD
:102FF0008D819E818430910509F47FC0A8C0A9E32A
:10300000B0E0E9E3F0E08181482F8B81282F30E0A8
:1030100081E090E002C0880F991F2A95E2F7809521
:10302000842311968C93A9E3B0E0E9E3F0E0828178
:10303000482F8B81282F30E081E090E0022E02C0E3
:10304000880F991F0A94E2F7842B12968C9312979B
:1030500086C0A6E3B0E0E6E3F0E08181482F8B81F3
:10306000282F30E081E090E002C0880F991F2A9558
:10307000E2F78095842311968C93A6E3B0E0E6E313
:10308000F0E08281482F8B81282F30E081E090E0B2
:10309000022E02C0880F991F0A94E2F7842B129621
:1030A0008C9312975CC0A3E3B0E0E3E3F0E081818E
:1030B000482F8B81282F30E081E090E002C0880FFC
:1030C000991F2A95E2F78095842311968C93A3E3A8
:1030D000B0E0E3E3F0E08281482F8B81282F30E0DD
:1030E00081E090E0022E02C0880F991F0A94E2F757
:1030F000842B12968C93129732C0A0E3B0E0E0E3E9
:10310000F0E08181482F8B81282F30E081E090E032
:1031100002C0880F991F2A95E2F7809584231196A3
:103120008C93A0E3B0E0E0E3F0E08281482F8B8154
:10313000282F30E081E090E0022E02C0880F991F16
:103140000A94E2F7842B12968C93129708C081E0C0
:10315000898305C081E0898302C081E089838981F8
:103160002A960FB6F894DEBF0FBECDBFCF91DF9188
:103170000895DF93CF93CDB7DEB728970FB6F894B5
:10318000DEBF0FBECDBF8A836B834C8319828B81D8
:10319000883008F007C18C81823009F07CC08A81B8
:1031A000282F30E038872F838F81988582309105D2
:1031B00069F12F8138852330310534F48F8198856A
:1031C0008130910569F064C02F8138852330310545
:1031D00099F18F8198858430910509F443C058C0D6
:1031E000A9E3B0E0E9E3F0E08281482F8B81282F4A
:1031F00030E081E090E0022E02C0880F991F0A940F
:10320000E2F7842B12968C931297CEC0A6E3B0E01F
:10321000E6E3F0E08281482F8B81282F30E081E0C7
:1032200090E0022E02C0880F991F0A94E2F7842BC7
:1032300012968C931297B8C0A3E3B0E0E3E3F0E0FA
:103240008281482F8B81282F30E081E090E0022E90
:1032500002C0880F991F0A94E2F7842B12968C9370
:103260001297A2C0A0E3B0E0E0E3F0E08281482F33
:103270008B81282F30E081E090E0022E02C0880F81
:10328000991F0A94E2F7842B12968C9312978CC0A4
:1032900081E0898389C08C81813009F080C08A8176
:1032A000282F30E03E832D838D819E8182309105D1
:1032B00071F12D813E812330310534F48D819E8161
:1032C0008130910569F068C02D813E812330310540
:1032D000A9F18D819E818430910509F446C05CC0BE
:1032E000A9E3B0E0E9E3F0E08281482F8B81282F49
:1032F00030E081E090E0022E02C0880F991F0A940E
:10330000E2F78095842312968C9312974DC0A6E322
:10331000B0E0E6E3F0E08281482F8B81282F30E097
:1033200081E090E0022E02C0880F991F0A94E2F714
:103330008095842312968C93129736C0A3E3B0E055
:10334000E3E3F0E08281482F8B81282F30E081E099
:1033500090E0022E02C0880F991F0A94E2F7809530
:10336000842312968C9312971FC0A0E3B0E0E0E391
:10337000F0E08281482F8B81282F30E081E090E0BF
:10338000022E02C0880F991F0A94E2F780958423C9
:1033900012968C93129708C081E0898305C081E062
:1033A000898302C081E08983898128960FB6F894C9
:1033B000DEBF0FBECDBFCF91DF910895DF93CF93D6
:1033C000CDB7DEB727970FB6F894DEBF0FBECDBFDF
:1033D0009B838A836C834D8319828A819B810097AA
:1033E00019F482E089837AC08D81883008F074C036
:1033F0008C81282F30E03F832E834E815F814230C5
:10340000510559F18E819F818330910534F42E81CD
:103410003F812130310569F05CC04E815F814330CE
:10342000510579F18E819F818430910509F43DC069
:1034300050C0E9E3F0E08081282F30E08D81882FB3
:1034400090E0A90102C0559547958A95E2F7CA0117
:103450008170EA81FB81808341C0E6E3F0E08081F6
:10346000282F30E08D81882F90E0A90102C055956A
:1034700047958A95E2F7CA018170EA81FB818083D2
:103480002DC0E3E3F0E08081282F30E08D81882F8C
:1034900090E0A90102C0559547958A95E2F7CA01C7
:1034A0008170EA81FB81808319C0E0E3F0E08081D4
:1034B000282F30E08D81882F90E0A90102C055951A
:1034C00047958A95E2F7CA018170EA81FB81808382
:1034D00005C081E0898302C081E0898389812796C4
:1034E0000FB6F894DEBF0FBECDBFCF91DF91089528
:1034F000DF93CF9300D000D00F92CDB7DEB78A8391
:103500006B8319828B81883008F07CC08A81282FD8
:1035100030E03D832C838C819D818230910569F15F
:103520002C813D812330310534F48C819D818130A3
:10353000910569F064C02C813D812330310599F1FA
:103540008C819D818430910509F443C058C0A9E362
:10355000B0E0E9E3F0E08281482F8B81282F30E052
:1035600081E090E0022E02C0880F991F0A94E2F7D2
:10357000842712968C93129747C0A6E3B0E0E6E347
:10358000F0E08281482F8B81282F30E081E090E0AD
:10359000022E02C0880F991F0A94E2F78427129620
:1035A0008C93129731C0A3E3B0E0E3E3F0E08281B3
:1035B000482F8B81282F30E081E090E0022E02C05E
:1035C000880F991F0A94E2F7842712968C9312971A
:1035D0001BC0A0E3B0E0E0E3F0E08281482F8B81E4
:1035E000282F30E081E090E0022E02C0880F991F62
:1035F0000A94E2F7842712968C93129705C081E013
:10360000898302C082E0898389810F900F900F9097
:103610000F900F90CF91DF9108950F931F93DF9339
:10362000CF93CDB7DEB728970FB6F894DEBF0FBEA5
:10363000CDBF6A837B838C839D834E8319828E8169
:10364000282F30E038872F838F819885813091052E
:1036500091F1EF81F885E230F10534F42F8138855E
:103660002115310571F081C08F81988582309105D7
:1036700009F43FC0EF81F885E330F10509F457C044
:1036800074C000E210E080E092E1AAE7B0E02A8195
:103690003B814C815D81BC01CD010E948421DA0116
:1036A000C9014097A109B109B695A7959795879546
:1036B000F80180835CC000E210E080E092E1AAE7BC
:1036C000B0E02A813B814C815D81BC01CD010E942B
:1036D0008421DA01C9014097A109B109689412F85F
:1036E000B695A795979587951694D1F7F80180839D
:1036F0003EC000E210E080E092E1AAE7B0E02A815B
:103700003B814C815D81BC01CD010E948421DA01A5
:10371000C9014097A109B109689414F8B695A79515
:10372000979587951694D1F7F801808320C000E221
:1037300010E080E092E1AAE7B0E02A813B814C8171
:103740005D81BC01CD010E948421DA01C90140974D
:10375000A109B109689416F8B695A795979587952C
:103760001694D1F7F801808302C081E089838E81AD
:10377000843058F4A1E2B0E0E1E2F0E08081982FDB
:103780009C7F8E81892B8C9302C081E08983898103
:1037900028960FB6F894DEBF0FBECDBFCF91DF9154
:1037A0001F910F910895DF93CF93CDB7DEB7A6E5B4
:1037B000B0E0E6E5F0E0808184608C93CF91DF910A
:1037C0000895DF93CF93CDB7DEB7A6E5B0E0E6E589
:1037D000F0E080818B7F8C93CF91DF910895DF9310
:1037E000CF93CDB7DEB7A6E5B0E0E6E5F0E08081A7
:1037F00081608C93CF91DF910895DF93CF93CDB704
:10380000DEB7A6E5B0E0E6E5F0E080818E7F8C9340
:10381000CF91DF910895DF93CF9300D00F92CDB772
:10382000DEB79B838A8319828A819B81009739F452
:103830008A819B81909391008093900002C081E0E7
:10384000898389810F900F900F90CF91DF91089518
:10385000DF93CF93CDB7DEB7A6E5B0E0E6E5F0E0C5
:103860008081806A8C93CF91DF910895DF93CF930D
:10387000CDB7DEB7A6E5B0E0E6E5F0E0808180698F
:103880008C93CF91DF910895DF93CF93CDB7DEB7BF
:10389000A6E5B0E0E6E5F0E0808180648C93CF910E
:1038A000DF910895DF93CF93CDB7DEB7A6E5B0E003
:1038B000E6E5F0E080818F7B8C93CF91DF910895D6
:1038C000DF93CF93CDB7DEB7A2E2B0E0E2E2F0E063
:1038D000808181608C93CF91DF910895DF93CF93A6
:1038E000CDB7DEB7A2E2B0E0E2E2F0E080818E7F09
:1038F0008C93CF91DF910895DF93CF930F92CDB743
:10390000DEB78983A2E2B0E0E2E2F0E08081282F16
:1039100021708981882F90E0880F991F822B8C93CA
:103920000F90CF91DF910895DF93CF93CDB7DEB79E
:10393000E1E2F0E08081887FCF91DF910895DF930D
:10394000CF93CDB7DEB7E6E5F0E080818823DCF7E2
:10395000CF91DF910895DF93CF93CDB7DEB7A6E582
:10396000B0E0E6E5F0E080818F7480688C93CF91C1
:10397000DF910895DF93CF930F92CDB7DEB78983A0
:10398000E3E2F0E0898180830F90CF91DF91089589
:10399000DF93CF93CDB7DEB7E3E2F0E08081CF9144
:1039A000DF910895DF93CF9300D0CDB7DEB7898341
:1039B0006A830E94281C0E949F1C0E94941C8830CD
:1039C000E1F48981882F90E0880F991F0E94BA1C2A
:1039D0000E94AB1C0E949F1C0E94941C883169F4B9
:1039E0008A810E94BA1C0E94AB1C0E949F1C0E94EC
:1039F000941C883211F40E94361C0F900F90CF91C6
:103A0000DF910895DF93CF9300D000D00F92CDB710
:103A1000DEB78B837D836C831A8219820E94281CF7
:103A20000E949F1C0E94941C883091F58B81882FE6
:103A300090E0880F991F0E94BA1C0E94AB1C0E9444
:103A40009F1C0E94941C883119F52C813D8189812D
:103A50009A81F901E80FF91F80810E94BA1C0E9427
:103A6000AB1C0E949F1C89819A8101969A8389834D
:103A70000E94941C883251F42C813D8189819A8165
:103A8000F901E80FF91F80818823F9F60E94361C9E
:103A90000F900F900F900F900F90CF91DF9108959E
:103AA000DF93CF930F92CDB7DEB719820E949F1C90
:103AB0000E94941C8036A9F40E94AB1C0E949F1C9B
:103AC0000E94941C803869F40E94C81C89830E945B
:103AD000AB1C0E949F1C0E94941C803A11F40E940F
:103AE000AB1C89810F90CF91DF9108950F931F93A5
:103AF000DF93CF93CDB7DEB7C356D0400FB6F8945F
:103B0000DEBF0FBECDBFFE01ED59FF4F108283E037
:103B100060E043E00E94C21683E061E043E00E945F
:103B2000C2160E94D31B0E941C150E944F0680E6FD
:103B300090E00E94D413FE01E15AFF4F80E090E034
:103B4000AAE7B4E480839183A283B3838E01055AEC
:103B50001F4FFE01E15AFF4F608171818281938185
:103B600020E030E04AEF54E40E941F02DC01CB0168
:103B7000F80180839183A283B383FE01E55AFF4F4E
:103B8000608171818281938120E030E040E85FE3D1
:103B90000E942504882344F4FE01E75AFF4F81E088
:103BA00090E09183808364C0FE01E55AFF4F6081FD
:103BB00071818281938120E03FEF4FE757E40E94BB
:103BC000C50318160CF043C0FE01E15AFF4F608197
:103BD00071818281938120E030E040E251E40E94D3
:103BE0001F02DC01CB018E01075A1F4FBC01CD0122
:103BF0000E944900DC01CB01F801918380831FC042
:103C0000FE01E95AFF4F88EC90E091838083FE012A
:103C1000E95AFF4F808191810197F1F7FE01E95A3E
:103C2000FF4F91838083DE01A75ABF4FFE01E75A01
:103C3000FF4F80819181019711969C938E93FE0195
:103C4000E75AFF4F808191810097D1F627C08E01FE
:103C5000075A1F4FFE01E55AFF4F60817181828133
:103C600093810E944900DC01CB01F801918380839C
:103C7000DE01AB5ABF4FFE01E75AFF4F80819181B1
:103C80008D939C93FE01EB5AFF4F808191810197A8
:103C9000F1F7FE01EB5AFF4F918380830E94941449
:103CA000FE01EF5AFF4F80E090E0AAE7B4E4808382
:103CB0009183A283B3838E01035B1F4FFE01EF5AF2
:103CC000FF4F608171818281938120E030E04AEF73
:103CD00054E40E941F02DC01CB01F8018083918330
:103CE000A283B383FE01E35BFF4F60817181828118
:103CF000938120E030E040E85FE30E9425048823C0
:103D000044F4FE01E55BFF4F81E090E09183808306
:103D100064C0FE01E35BFF4F60817181828193810A
:103D200020E03FEF4FE757E40E94C50318160CF060
:103D300043C0FE01EF5AFF4F608171818281938100
:103D400020E030E040E251E40E941F02DC01CB01A0
:103D50008E01055B1F4FBC01CD010E944900DC01B3
:103D6000CB01F801918380831FC0FE01E75BFF4F09
:103D700088EC90E091838083FE01E75BFF4F8081B8
:103D800091810197F1F7FE01E75BFF4F91838083FB
:103D9000DE01A55BBF4FFE01E55BFF4F8081918196
:103DA000019711969C938E93FE01E55BFF4F8081F6
:103DB00091810097D1F627C08E01055B1F4FFE0150
:103DC000E35BFF4F60817181828193810E94490092
:103DD000DC01CB01F80191838083DE01A95BBF4F39
:103DE000FE01E55BFF4F808191818D939C93FE01E5
:103DF000E95BFF4F808191810197F1F7FE01E95B5B
:103E0000FF4F9183808380E090E061E40E94311550
:103E100088E690E00E94D413FE01ED5BFF4F80E046
:103E200090E0AAE7B4E480839183A283B3838E01F8
:103E3000015C1F4FFE01ED5BFF4F6081718182814C
:103E4000938120E030E04AEF54E40E941F02DC013D
:103E5000CB01F80180839183A283B383FE01FF9697
:103E6000608171818281938120E030E040E85FE3EE
:103E70000E94250488232CF481E090E09EAF8DAF52
:103E800046C0FE01FF96608171818281938120E0AE
:103E90003FEF4FE757E40E94C503181664F5FE0193
:103EA000ED5BFF4F608171818281938120E030E082
:103EB00040E251E40E941F02DC01CB01BC01CD01B4
:103EC0000E944900DC01CB019EAF8DAF0FC088EC92
:103ED00090E09CAF8BAF8BAD9CAD0197F1F79CAFA1
:103EE0008BAF8DAD9EAD01979EAF8DAF8DAD9EAD6D
:103EF000009769F716C0FE01FF966081718182818B
:103F000093810E944900DC01CB019EAF8DAF8DAD46
:103F10009EAD9AAF89AF89AD9AAD0197F1F79AAF8F
:103F200089AF0E94941480E090E0A0E0B0E48DABF3
:103F30009EABAFABB8AF6DA97EA98FA998AD20E0BD
:103F400030E04AEF54E40E941F02DC01CB0189AB50
:103F50009AABABABBCAB69A97AA98BA99CA920E0B1
:103F600030E040E85FE30E94250488232CF481E0E0
:103F700090E098AB8FA73FC069A97AA98BA99CA9AB
:103F800020E03FEF4FE757E40E94C50318164CF5B9
:103F90006DA97EA98FA998AD20E030E040E251E400
:103FA0000E941F02DC01CB01BC01CD010E9449002F
:103FB000DC01CB0198AB8FA70FC088EC90E09EA7E7
:103FC0008DA78DA59EA50197F1F79EA78DA78FA51B
:103FD00098A9019798AB8FA78FA598A9009769F723
:103FE00014C069A97AA98BA99CA90E944900DC0187
:103FF000CB0198AB8FA78FA598A99CA78BA78BA562
:104000009CA50197F1F79CA78BA780E090E00E9408
:104010007A15FE01ED59FF4F808389E790E00E94F9
:10402000D413FE01ED59FF4F80810E94470F80E0BD
:1040300090E0AAE7B4E48FA398A7A9A7BAA76FA1B5
:1040400078A589A59AA520E030E04AEF54E40E94C3
:104050001F02DC01CB018BA39CA3ADA3BEA36BA16C
:104060007CA18DA19EA120E030E040E85FE30E94AA
:10407000250488232CF481E090E09AA389A33FC013
:104080006BA17CA18DA19EA120E03FEF4FE757E4FB
:104090000E94C50318164CF56FA178A589A59AA5AD
:1040A00020E030E040E251E40E941F02DC01CB013D
:1040B000BC01CD010E944900DC01CB019AA389A378
:1040C0000FC088EC90E098A38F8F8F8D98A10197F7
:1040D000F1F798A38F8F89A19AA101979AA389A339
:1040E00089A19AA1009769F714C06BA17CA18DA149
:1040F0009EA10E944900DC01CB019AA389A389A15A
:104100009AA19E8F8D8F8D8D9E8D0197F1F79E8F39
:104110008D8F0E94941480E090E0A0E0B0E4898F3D
:104120009A8FAB8FBC8F698D7A8D8B8D9C8D20E0A3
:1041300030E04AEF54E40E941F02DC01CB018D8B7A
:104140009E8BAF8BB88F6D897E898F89988D20E08B
:1041500030E040E85FE30E94250488232CF481E0EE
:1041600090E09C8B8B8B3FC06D897E898F89988D69
:1041700020E03FEF4FE757E40E94C50318164CF5C7
:10418000698D7A8D8B8D9C8D20E030E040E251E48A
:104190000E941F02DC01CB01BC01CD010E9449003D
:1041A000DC01CB019C8B8B8B0FC088EC90E09A8B51
:1041B000898B89899A890197F1F79A8B898B8B89E9
:1041C0009C8901979C8B8B8B8B899C89009769F7C5
:1041D00014C06D897E898F89988D0E944900DC0109
:1041E000CB019C8B8B8B8B899C89988B8F878F8540
:1041F00098890197F1F7988B8F8780E090E0AAE784
:10420000B3E48B879C87AD87BE876B857C858D8566
:104210009E8520E030E04AEF54E40E941F02DC015A
:10422000CB018F839887A987BA876F817885898525
:104230009A8520E030E040E85FE30E94250488236F
:104240002CF481E090E09E838D833FC06F81788560
:1042500089859A8520E03FEF4FE757E40E94C50328
:1042600018164CF56B857C858D859E8520E030E0A9
:1042700040E251E40E941F02DC01CB01BC01CD01F0
:104280000E944900DC01CB019E838D830FC088EC26
:1042900090E09C838B838B819C810197F1F79C83B9
:1042A0008B838D819E8101979E838D838D819E81DD
:1042B000009769F7A8CD6F81788589859A850E94D6
:1042C0004900DC01CB019E838D838D819E819A8381
:1042D000898389819A810197F1F79A83898393CDA4
:1042E000AA1BBB1B51E107C0AA1FBB1FA617B7071C
:1042F00010F0A61BB70B881F991F5A95A9F7809538
:104300009095BC01CD010895A1E21A2EAA1BBB1BFA
:10431000FD010DC0AA1FBB1FEE1FFF1FA217B30791
:10432000E407F50720F0A21BB30BE40BF50B661FA7
:10433000771F881F991F1A9469F76095709580956B
:1043400090959B01AC01BD01CF0108952F923F9242
:104350004F925F926F927F928F929F92AF92BF9295
:10436000CF92DF92EF92FF920F931F93CF93DF9341
:10437000CDB7DEB7CA1BDB0B0FB6F894DEBF0FBE9E
:10438000CDBF09942A88398848885F846E847D84EB
:104390008C849B84AA84B984C884DF80EE80FD80ED
:1043A0000C811B81AA81B981CE0FD11D0FB6F89463
:0E43B000DEBF0FBECDBFED010895F894FFCF24
:1043BE0057656C636F6D65004441544120575249F7
:1043CE005454454E203A2041004441544120524518
:1043DE004144203A202000000000000000000000B0
:00000001FF
