:100000000C942A000C943F000C943F000C943F0089
:100010000C943F000C943F000C943F000C943F0064
:100020000C943F000C943F000C943F000C943F0054
:100030000C943F000C943F000C943F000C943F0044
:100040000C943F000C943F000C943F000C943F0034
:100050000C943F0011241FBECFE5D8E0DEBFCDBF1A
:1000600010E0A0E6B0E0EAE9F4E202C005900D92EB
:10007000AC37B107D9F70E94770B0C944B120C9454
:100080000000EF92FF920F931F937B018C0120E001
:1000900030E040E05FE40E94ED0388238CF0C8016B
:1000A000B70120E030E040E05FE40E94B9010E9427
:1000B0004D049B01AC01205030404040504806C0E8
:1000C000C801B7010E944D049B01AC01B901CA01EE
:1000D0001F910F91FF90EF900895A0E0B0E0E3E74B
:1000E000F0E00C941412DC012B01FA019C91923087
:1000F00008F439C1EB018881823008F433C19430AF
:1001000069F4843009F02FC111969C91119789816F
:10011000981709F428C1A4E7B0E025C1843009F498
:1001200021C18230A9F4923009F01DC19A01AD01BC
:1001300088E0EA010990AE01E90109929E0181502F
:10014000C1F7E201898111969C918923818308C1BD
:10015000923009F407C112962D903C901397EB0151
:100160008A819B811496AD90BD90CD90DC901797BD
:10017000EC80FD800E811F819101281B390BB90194
:1001800037FF04C066277727621B730B6032710547
:100190000CF061C0121613066CF537014801062EEB
:1001A00004C096948794779467940A94D2F721E0D8
:1001B00030E040E050E004C0220F331F441F551FC1
:1001C0006A95D2F721503040404050402E213F21C7
:1001D00040235123211531054105510521F021E02E
:1001E00030E040E050E079018A01E628F72808294C
:1001F00019293CC0232BD1F1260E371E35014601AB
:10020000062E04C096948794779467940A94D2F744
:1002100021E030E040E050E004C0220F331F441FD3
:10022000551F6A95D2F721503040404050402A2156
:100230003B214C215D21211531054105510521F05E
:1002400021E030E040E050E059016A01A628B728DB
:10025000C828D9280BC0821593052CF01C01AA24AC
:10026000BB24650103C0EE24FF24870111969C91F5
:10027000D20111968C91981709F445C0992339F051
:10028000A80197012A193B094C095D0906C0A6017E
:1002900095012E193F09400B510B57FD08C01182E3
:1002A0003382228224833583468357831DC081E0B5
:1002B00081833382228288279927DC01821B930B5A
:1002C000A40BB50B84839583A683B7830DC0220F3F
:1002D000331F441F551F24833583468357838281F0
:1002E000938101979383828324813581468157814D
:1002F000DA01C9010197A109B1098F5F9F4FAF4F83
:10030000BF4328F30BC0918333822282EA0CFB1C8B
:100310000C1D1D1DE482F5820683178383E0808314
:10032000248135814681578157FF1AC0C901AA2708
:1003300097FDA095BA2F81709070A070B0705695FF
:10034000479537952795822B932BA42BB52B848328
:100350009583A683B7838281938101969383828359
:10036000DF0101C0D201CD01CDB7DEB7E2E10C94CF
:100370003012A0E2B0E0EFEBF1E00C9420126983C0
:100380007A838B839C832D833E834F835887E9E058
:10039000EE2EF12CEC0EFD1ECE010196B7010E944F
:1003A00076058E010F5E1F4FCE010596B8010E94A3
:1003B00076058A8991E089278A8BC701B801AE0149
:1003C000475E5F4F0E946D000E94A104A096E6E088
:1003D0000C943C12A0E2B0E0E0EFF1E00C942012AB
:1003E00069837A838B839C832D833E834F835887D5
:1003F000F9E0EF2EF12CEC0EFD1ECE010196B701B7
:100400000E9476058E010F5E1F4FCE010596B80142
:100410000E947605C701B801AE01475E5F4F0E949A
:100420006D000E94A104A096E6E00C943C12A0E2AC
:10043000B0E0EDE1F2E00C94141269837A838B83CF
:100440009C832D833E834F835887CE010196BE0146
:10045000675F7F4F0E947605CE010596BE016F5EF5
:100460007F4F0E9476059985923088F08989823085
:10047000C8F0943019F4823051F404C0843029F467
:10048000923081F484E790E0C6C0923049F420E0D5
:100490009A858A89981321E02A87CE010996BBC0E4
:1004A000823049F420E09A858A89981321E02A8BCA
:1004B000CE014196B0C02D843E844F8458886D880B
:1004C0007E888F88988CEE24FF248701AA24BB2481
:1004D000650140E050E060E070E0E0E0F0E0C10184
:1004E00081709070892BE9F0E60CF71C081D191D2E
:1004F0009A01AB012A0D3B1D4C1D5D1D80E090E073
:10050000A0E0B0E0E614F7040805190520F481E046
:1005100090E0A0E0B0E0BA01A901480F591F6A1F9E
:100520007B1FAA0CBB1CCC1CDD1C97FE08C081E005
:1005300090E0A0E0B0E0A82AB92ACA2ADB2A3196C6
:10054000E032F10549F0660C771C881C991C569422
:10055000479437942794C3CFFA85EA892B893C893D
:100560008B859C85280F391F2E5F3F4F17C0CA010E
:1005700081709070892B61F016950795F794E79438
:1005800080E090E0A0E0B0E8E82AF92A0A2B1B2BD3
:1005900076956795579547952F5F3F4F77FDE7CF46
:1005A0000CC0440F551F661F771F17FD4160EE0CEE
:1005B000FF1C001F111F21503040403090E05907B0
:1005C00090E0690790E4790760F32B8F3C8FDB01A3
:1005D000CA018F779070A070B07080349105A1052A
:1005E000B10561F447FD0AC0E114F10401051105EC
:1005F00029F0405C5F4F6F4F7F4F40781A8EFE1797
:1006000011F081E08A8F4D8F5E8F6F8F78A383E02A
:10061000898FCE0149960E94A104A096E2E10C9434
:100620003012A8E1B0E0E7E1F3E00C941C1269831A
:100630007A838B839C832D833E834F835887B9E0D5
:10064000EB2EF12CEC0EFD1ECE010196B7010E949F
:1006500076058E010F5E1F4FCE010596B8010E94F0
:1006600076052985223008F47EC03989323010F4AD
:10067000B8017CC08A859A8989278A87243011F03D
:10068000223031F4231709F06EC064E770E06EC0C9
:10069000343039F41D861E861F86188A1C861B86F8
:1006A00004C0323021F484E08987B7015FC02B8514
:1006B0003C858B899C89281B390B3C872B87ED84D3
:1006C000FE840F851889AD88BE88CF88D88CEA143F
:1006D000FB040C051D0540F4EE0CFF1C001F111F50
:1006E000215030403C872B8720E030E040E050E054
:1006F00080E090E0A0E0B0E460E070E0EA14FB0489
:100700000C051D0540F0282B392B4A2B5B2BEA18D2
:10071000FB080C091D09B695A79597958795EE0CD2
:10072000FF1C001F111F6F5F7F4F6F31710531F785
:10073000DA01C9018F779070A070B0708034910594
:10074000A105B10561F427FD0AC0E114F10401051A
:10075000110529F0205C3F4F4F4F5F4F20782D87C8
:100760003E874F87588BBE01675F7F4FCB010E944A
:10077000A1046896EAE00C943812A8E1B0E0E3EC3A
:10078000F3E00C94201269837A838B839C832D83FE
:100790003E834F83588789E0E82EF12CEC0EFD1E36
:1007A000CE010196B7010E9476058E010F5E1F4FA4
:1007B000CE010596B8010E9476058985823040F009
:1007C0008989823028F0C701B8010E94EE0501C076
:1007D0008FEF6896E6E00C943C12A8E1B0E0E3EFFE
:1007E000F3E00C94201269837A838B839C832D839E
:1007F0003E834F83588789E0E82EF12CEC0EFD1ED6
:10080000CE010196B7010E9476058E010F5E1F4F43
:10081000CE010596B8010E9476058985823040F0A8
:100820008989823028F0C701B8010E94EE0501C015
:100830008FEF6896E6E00C943C12A8E1B0E0E3E2AA
:10084000F4E00C94201269837A838B839C832D833C
:100850003E834F83588789E0E82EF12CEC0EFD1E75
:10086000CE010196B7010E9476058E010F5E1F4FE3
:10087000CE010596B8010E9476058985823040F048
:100880008989823028F0C701B8010E94EE0501C0B5
:1008900081E06896E6E00C943C12ACE0B0E0E3E561
:1008A000F4E00C94241269837A838B839C83CE01B9
:1008B0000196BE016B5F7F4F0E9476058D8182306D
:1008C00061F1823050F1843021F48E81882351F11E
:1008D0002EC02F81388537FD20C06E812F31310524
:1008E0001CF06623F9F023C08EE190E0821B930B8D
:1008F00029853A854B855C8504C056954795379583
:1009000027958A95D2F76623B1F05095409530959A
:1009100021953F4F4F4F5F4F0EC020E030E040E049
:1009200050E009C02FEF3FEF4FEF5FE704C020E03A
:1009300030E040E050E8B901CA012C96E2E00C94A6
:100940004012DF92EF92FF920F931F93FC01E4801D
:10095000F58006811781D1808081823048F480E063
:1009600090E0A0E1B0E0E82AF92A0A2B1B2BA5C0F1
:10097000843009F49FC0823021F4EE24FF248701E3
:1009800005C0E114F1040105110519F4E0E0F0E0FF
:1009900096C0628173819FEF623879070CF05BC06B
:1009A00022E83FEF261B370B2A3131052CF020E0DF
:1009B00030E040E050E02AC0B801A701022E04C098
:1009C00076956795579547950A94D2F781E090E020
:1009D000A0E0B0E004C0880F991FAA1FBB1F2A9592
:1009E000D2F70197A109B1098E219F21A023B1233C
:1009F0000097A105B10521F081E090E0A0E0B0E012
:100A00009A01AB01282B392B4A2B5B2BDA01C90148
:100A10008F779070A070B07080349105A105B105FA
:100A200039F427FF09C0205C3F4F4F4F5F4F04C090
:100A3000215C3F4F4F4F5F4FE0E0F0E02030A0E0FF
:100A40003A07A0E04A07A0E45A0710F0E1E0F0E01E
:100A500079018A0127C06038710564F5FB01E1580E
:100A6000FF4FD801C7018F779070A070B0708034AD
:100A70009105A105B10539F4E7FE0DC080E490E0D1
:100A8000A0E0B0E004C08FE390E0A0E0B0E0E80EAA
:100A9000F91E0A1F1B1F17FF05C016950795F7942F
:100AA000E794319687E016950795F794E7948A9531
:100AB000D1F705C0EE24FF248701EFEFF0E06E2FA1
:100AC000679566276795902F9F77D794DD24D794F5
:100AD0008E2F8695492F462B582F5D29B701CA01C5
:100AE0001F910F91FF90EF90DF900895FC01DB01C3
:100AF000408151812281622F6F7770E0221F22276F
:100B0000221F9381892F880F822B282F30E0991F75
:100B10009927991F11969C93119721153105A9F5D5
:100B2000411551056105710511F482E037C082E875
:100B30009FEF13969C938E9312979A01AB0167E0F7
:100B4000220F331F441F551F6A95D1F783E08C9302
:100B50000DC0220F331F441F551F12968D919C917B
:100B60001397019713969C938E931297203080E0F1
:100B7000380780E0480780E4580758F314962D930F
:100B80003D934D935C93179708952F3F310579F46A
:100B9000411551056105710519F484E08C930895A0
:100BA00064FF03C081E08C9312C01C9210C02F57C9
:100BB000304013963C932E93129783E08C9387E0FA
:100BC000440F551F661F771F8A95D1F770641496DE
:100BD0004D935D936D937C93179708951F93DC015C
:100BE000FB019C91923008F447C08081823008F468
:100BF00043C0943051F411961C91843099F5818151
:100C0000682F70E0611B71093FC0843021F0923081
:100C100031F48230B9F18181882389F12DC0119698
:100C20001C9111978230F1F081811817D9F4129636
:100C30002D913C911397828193818217930794F0B1
:100C400028173907BCF014968D919D910D90BC9199
:100C5000A02D2481358146815781281739074A07FD
:100C60005B0718F4112341F00AC082179307A40709
:100C7000B50740F4112319F061E070E005C06FEF93
:100C80007FEF02C060E070E0CB011F910895DF9319
:100C9000CF9300D000D00F92CDB7DEB78A836B839D
:100CA00019828A81282F30E03D832C838C819D819D
:100CB00082309105D9F02C813D812330310534F407
:100CC0008C819D818130910561F01FC02C813D8117
:100CD0002330310581F08C819D818430910581F034
:100CE00014C0E9E3F0E08B81818311C0E6E3F0E01A
:100CF0008B8181830CC0E3E3F0E08B81818307C0AB
:100D0000E0E3F0E08B81818302C081E08983898107
:100D10000F900F900F900F900F90CF91DF9108954B
:100D2000DF93CF9300D000D00F92CDB7DEB78A8388
:100D30006B8319828A81282F30E03D832C838C813C
:100D40009D8182309105D9F02C813D812330310580
:100D500034F48C819D818130910561F01FC02C811C
:100D60003D812330310581F08C819D818430910556
:100D700081F014C0E9E3F0E08B81828311C0E6E3E7
:100D8000F0E08B8182830CC0E3E3F0E08B8182830F
:100D900007C0E0E3F0E08B81828302C081E08983B9
:100DA00089810F900F900F900F900F90CF91DF914E
:100DB0000895DF93CF9300D000D000D0CDB7DEB739
:100DC0009B838A836C8319828C81282F30E03E8339
:100DD0002D838D819E8182309105E9F02D813E81A8
:100DE0002330310534F48D819E818130910561F08D
:100DF00027C02D813E8123303105A1F08D819E8158
:100E000084309105B1F01CC0E9E3F0E08081EA8113
:100E1000FB81808317C0E6E3F0E08081EA81FB81FB
:100E2000808310C0E3E3F0E08081EA81FB8180836E
:100E300009C0E0E3F0E08081EA81FB81808302C0A9
:100E400081E08983898126960FB6F894DEBF0FBEB4
:100E5000CDBFCF91DF910895DF93CF93CDB7DEB7AC
:100E60002A970FB6F894DEBF0FBECDBF8A836B837F
:100E70004C8319828B81883008F0D9C18C818130F4
:100E800009F07CC08A81282F30E03A87298789853C
:100E90009A858230910569F129853A85233031059B
:100EA00034F489859A858130910569F064C029857B
:100EB0003A852330310599F189859A8584309105E9
:100EC00009F443C058C0A9E3B0E0E9E3F0E0818150
:100ED000482F8B81282F30E081E090E0022E02C065
:100EE000880F991F0A94E2F7842B11968C9311971F
:100EF000A0C1A6E3B0E0E6E3F0E08181482F8B815A
:100F0000282F30E081E090E0022E02C0880F991F68
:100F10000A94E2F7842B11968C9311978AC1A3E36C
:100F2000B0E0E3E3F0E08181482F8B81282F30E0AF
:100F300081E090E0022E02C0880F991F0A94E2F728
:100F4000842B11968C93119774C1A0E3B0E0E0E379
:100F5000F0E08181482F8B81282F30E081E090E004
:100F6000022E02C0880F991F0A94E2F7842B119673
:100F70008C9311975EC181E089835BC18C81823043
:100F800009F080C08A81282F30E038872F838F8135
:100F900098858230910571F12F8138852330310594
:100FA00034F48F8198858130910569F068C02F8174
:100FB000388523303105A9F18F81988584309105DA
:100FC00009F446C05CC0A9E3B0E0E9E3F0E0818148
:100FD000482F8B81282F30E081E090E0022E02C064
:100FE000880F991F0A94E2F78095842311968C93B9
:100FF00011971FC1A6E3B0E0E6E3F0E08181482F3E
:101000008B81282F30E081E090E0022E02C0880F13
:10101000991F0A94E2F78095842311968C93119777
:1010200008C1A3E3B0E0E3E3F0E08181482F8B81C6
:10103000282F30E081E090E0022E02C0880F991F37
:101040000A94E2F78095842311968C931197F1C04E
:10105000A0E3B0E0E0E3F0E08181482F8B81282F0E
:1010600030E081E090E0022E02C0880F991F0A94C0
:10107000E2F78095842311968C931197DAC081E072
:101080008983D7C08C81833009F0CEC08A81282F14
:1010900030E03E832D838D819E818230910509F45D
:1010A00042C02D813E812330310534F48D819E81F3
:1010B0008130910571F0B5C02D813E81233031051D
:1010C00009F45BC08D819E818430910509F47FC055
:1010D000A8C0A9E3B0E0E9E3F0E08181482F8B816B
:1010E000282F30E081E090E002C0880F991F2A95F8
:1010F000E2F78095842311968C93A9E3B0E0E9E3AD
:10110000F0E08281482F8B81282F30E081E090E051
:10111000022E02C0880F991F0A94E2F7842B1296C0
:101120008C93129786C0A6E3B0E0E6E3F0E08181FD
:10113000482F8B81282F30E081E090E002C0880F9B
:10114000991F2A95E2F78095842311968C93A6E344
:10115000B0E0E6E3F0E08281482F8B81282F30E079
:1011600081E090E0022E02C0880F991F0A94E2F7F6
:10117000842B12968C9312975CC0A3E3B0E0E3E358
:10118000F0E08181482F8B81282F30E081E090E0D2
:1011900002C0880F991F2A95E2F780958423119643
:1011A0008C93A3E3B0E0E3E3F0E08281482F8B81EE
:1011B000282F30E081E090E0022E02C0880F991FB6
:1011C0000A94E2F7842B12968C93129732C0A0E314
:1011D000B0E0E0E3F0E08181482F8B81282F30E000
:1011E00081E090E002C0880F991F2A95E2F7809570
:1011F000842311968C93A0E3B0E0E0E3F0E08281D9
:10120000482F8B81282F30E081E090E0022E02C031
:10121000880F991F0A94E2F7842B12968C931297E9
:1012200008C081E0898305C081E0898302C081E034
:10123000898389812A960FB6F894DEBF0FBECDBF91
:10124000CF91DF910895DF93CF93CDB7DEB7289785
:101250000FB6F894DEBF0FBECDBF8A836B834C837D
:1012600019828B81883008F007C18C81823009F0A7
:101270007CC08A81282F30E038872F838F81988522
:101280008230910569F12F8138852330310534F49E
:101290008F8198858130910569F064C02F813885F0
:1012A0002330310599F18F8198858430910509F4B7
:1012B00043C058C0A9E3B0E0E9E3F0E08281482FE1
:1012C0008B81282F30E081E090E0022E02C0880F51
:1012D000991F0A94E2F7842B12968C931297CEC032
:1012E000A6E3B0E0E6E3F0E08281482F8B81282F6F
:1012F00030E081E090E0022E02C0880F991F0A942E
:10130000E2F7842B12968C931297B8C0A3E3B0E057
:10131000E3E3F0E08281482F8B81282F30E081E0E9
:1013200090E0022E02C0880F991F0A94E2F7842BE6
:1013300012968C931297A2C0A0E3B0E0E0E3F0E035
:101340008281482F8B81282F30E081E090E0022EAF
:1013500002C0880F991F0A94E2F7842B12968C938F
:1013600012978CC081E0898389C08C81813009F01B
:1013700080C08A81282F30E03E832D838D819E811D
:101380008230910571F12D813E812330310534F495
:101390008D819E818130910569F068C02D813E81EB
:1013A00023303105A9F18D819E818430910509F4A6
:1013B00046C05CC0A9E3B0E0E9E3F0E08281482FD9
:1013C0008B81282F30E081E090E0022E02C0880F50
:1013D000991F0A94E2F78095842312968C931297B2
:1013E0004DC0A6E3B0E0E6E3F0E08281482F8B81B8
:1013F000282F30E081E090E0022E02C0880F991F74
:101400000A94E2F78095842312968C93129736C043
:10141000A3E3B0E0E3E3F0E08281482F8B81282F43
:1014200030E081E090E0022E02C0880F991F0A94FC
:10143000E2F78095842312968C9312971FC0A0E345
:10144000B0E0E0E3F0E08281482F8B81282F30E08C
:1014500081E090E0022E02C0880F991F0A94E2F703
:101460008095842312968C93129708C081E089831B
:1014700005C081E0898302C081E089838981289643
:101480000FB6F894DEBF0FBECDBFCF91DF910895A8
:10149000DF93CF93CDB7DEB727970FB6F894DEBFB3
:1014A0000FBECDBF9B838A836C834D8319828A8153
:1014B0009B81009719F482E089837AC08D818830FE
:1014C00008F074C08C81282F30E03F832E834E813A
:1014D0005F814230510559F18E819F8183309105A2
:1014E00034F42E813F812130310569F05CC04E819A
:1014F0005F814330510579F18E819F818430910560
:1015000009F43DC050C0E9E3F0E08081282F30E0CD
:101510008D81882F90E0A90102C0559547958A9545
:10152000E2F7CA018170EA81FB81808341C0E6E372
:10153000F0E08081282F30E08D81882F90E0A90194
:1015400002C0559547958A95E2F7CA018170EA81F4
:10155000FB8180832DC0E3E3F0E08081282F30E021
:101560008D81882F90E0A90102C0559547958A95F5
:10157000E2F7CA018170EA81FB81808319C0E0E350
:10158000F0E08081282F30E08D81882F90E0A90144
:1015900002C0559547958A95E2F7CA018170EA81A4
:1015A000FB81808305C081E0898302C081E089835B
:1015B000898127960FB6F894DEBF0FBECDBFCF91BD
:1015C000DF910895DF93CF9300D000D00F92CDB775
:1015D000DEB78A836B8319828B81883008F07CC0E8
:1015E0008A81282F30E03D832C838C819D8182303D
:1015F000910569F12C813D812330310534F48C81D2
:101600009D818130910569F064C02C813D8123303A
:10161000310599F18C819D818430910509F443C095
:1016200058C0A9E3B0E0E9E3F0E08281482F8B8164
:10163000282F30E081E090E0022E02C0880F991F31
:101640000A94E2F7842712968C93129747C0A6E378
:10165000B0E0E6E3F0E08281482F8B81282F30E074
:1016600081E090E0022E02C0880F991F0A94E2F7F1
:10167000842712968C93129731C0A3E3B0E0E3E382
:10168000F0E08281482F8B81282F30E081E090E0CC
:10169000022E02C0880F991F0A94E2F7842712963F
:1016A0008C9312971BC0A0E3B0E0E0E3F0E08281EE
:1016B000482F8B81282F30E081E090E0022E02C07D
:1016C000880F991F0A94E2F7842712968C93129739
:1016D00005C081E0898302C082E0898389810F90FF
:1016E0000F900F900F900F90CF91DF910895DF939F
:1016F000CF93CDB7DEB76B970FB6F894DEBF0FBEB2
:10170000CDBF1A821982CE010396988F8F8BA0E6E7
:10171000B0E0BA8FA98FBBE0BB8FE98DFA8D008056
:10172000898D9A8D01969A8F898FAF89B88D0C9289
:10173000EF89F88D3196F88FEF8BFB8DF150FB8F91
:101740008B8D882351F789E0FE013E96DF01982FAB
:101750001D929A95E9F70E94C70B29813A81CE0123
:101760000396FC01E20FF31F80810E9436108981ED
:101770009A8101969A83898329813A81CE010396C1
:10178000FC01E20FF31F8081882339F7FFCF0F930D
:101790001F93DF93CF93CDB7DEB7CE56D0400FB6B1
:1017A000F894DEBF0FBECDBF81E06FEF0E94470609
:1017B00082E060E041E00E942C0782E061E041E0CD
:1017C0000E942C0782E062E041E00E942C078CE33B
:1017D0000E942511FE01E559FF4F80E090E0A8E44A
:1017E000B2E480839183A283B3838E0109591F4F92
:1017F000FE01E559FF4F60817181828193812BEA5F
:101800003AEA4AE250E40E941702DC01CB01F801F7
:1018100080839183A283B383FE01E959FF4F6081E6
:1018200071818281938120E030E040E85FE30E9493
:101830001D04882334F4FE01EA59FF4F81E08083C0
:10184000E0C0FE01E959FF4F60817181828193817F
:1018500020E030E04FE753E40E94BD0318160CF07F
:10186000C0C0FE01E559FF4F608171818281938183
:1018700020E030E04AE754E40E941103DC01CB0190
:10188000FE01EE59FF4F80839183A283B3838E01C3
:10189000025A1F4FFE01EE59FF4F60817181828114
:1018A000938120E030E04AEF54E40E941702DC010B
:1018B000CB01F80180839183A283B383FE01E25AB6
:1018C000FF4F608171818281938120E030E040E8A8
:1018D0005FE30E941D04882344F4FE01E45AFF4F95
:1018E00081E090E09183808364C0FE01E25AFF4F63
:1018F000608171818281938120E03FEF4FE757E45F
:101900000E94BD0318160CF043C0FE01EE59FF4FB4
:10191000608171818281938120E030E040E251E476
:101920000E941702DC01CB018E01045A1F4FBC013B
:10193000CD010E944100DC01CB01F801918380833D
:101940001FC0FE01E65AFF4F88EC90E09183808330
:10195000FE01E65AFF4F808191810197F1F7FE0168
:10196000E65AFF4F91838083DE01A45ABF4FFE01E8
:10197000E45AFF4F80819181019711969C938E9339
:10198000FE01E45AFF4F808191810097D1F64BC050
:101990008E01045A1F4FFE01E25AFF4F6081718190
:1019A000828193810E944100DC01CB01F801918387
:1019B0008083DE01A85ABF4FFE01E45AFF4F8081A9
:1019C000918111969C938E93FE01E85AFF4F80817E
:1019D00091810197F1F7FE01E85AFF4F91838083CF
:1019E00022C08E010A591F4FFE01E959FF4F608145
:1019F0007181828193810E944100DC01CB01F80159
:101A00008083DE01A95ABF4FFE01EA59FF4F808152
:101A10008C93FE01E95AFF4F80818A95F1F7FE0110
:101A2000E95AFF4F808386E00E942511FE01ED5A9E
:101A3000FF4F80E090E0A8E4B2E480839183A2832A
:101A4000B3838E01015B1F4FFE01ED5AFF4F608192
:101A50007181828193812BEA3AEA4AE250E40E9442
:101A60001702DC01CB01F80180839183A283B38349
:101A7000FE01E15BFF4F608171818281938120E0F3
:101A800030E040E85FE30E941D04882334F4FE0147
:101A9000E25BFF4F81E08083E0C0FE01E15BFF4F2E
:101AA000608171818281938120E030E04FE753E4CF
:101AB0000E94BD0318160CF0C0C0FE01ED5AFF4F86
:101AC000608171818281938120E030E04AE754E4B3
:101AD0000E941103DC01CB01FE01E65BFF4F808316
:101AE0009183A283B3838E010A5B1F4FFE01E65BE5
:101AF000FF4F608171818281938120E030E04AEF65
:101B000054E40E941702DC01CB01F8018083918329
:101B1000A283B383FE01EA5BFF4F60817181828102
:101B2000938120E030E040E85FE30E941D048823B9
:101B300044F4FE01EC5BFF4F81E090E091838083F1
:101B400064C0FE01EA5BFF4F6081718182819381F5
:101B500020E03FEF4FE757E40E94BD0318160CF05A
:101B600043C0FE01E65BFF4F6081718182819381FA
:101B700020E030E040E251E40E941702DC01CB019A
:101B80008E010C5B1F4FBC01CD010E944100DC01A6
:101B9000CB01F801918380831FC0FE01EE5BFF4FF4
:101BA00088EC90E091838083FE01EE5BFF4F8081A3
:101BB00091810197F1F7FE01EE5BFF4F91838083E6
:101BC000DE01AC5BBF4FFE01EC5BFF4F808191817A
:101BD000019711969C938E93FE01EC5BFF4F8081E1
:101BE00091810097D1F642C08E010C5B1F4FFE0120
:101BF000EA5BFF4F60817181828193810E94410085
:101C0000DC01CB01F80191838083DE01A05CBF4F32
:101C1000FE01EC5BFF4F8081918111969C938E9326
:101C2000FE01E05CFF4F808191810197F1F7FE0199
:101C3000E05CFF4F9183808319C08E01025B1F4FD0
:101C4000FE01E15BFF4F60817181828193810E947F
:101C50004100DC01CB01F8018083FE01E25BFF4F14
:101C600080818FAF8FAD8A95F1F78FAF8FE00E94A3
:101C7000251180E090E0A8E4B2E48BAF9CAFADAF5B
:101C8000BEAF6BAD7CAD8DAD9EAD2BEA3AEA4AE2BC
:101C900050E40E941702DC01CB018FAB98AFA9AFD3
:101CA000BAAF6FA978AD89AD9AAD20E030E040E8D9
:101CB0005FE30E941D0488231CF481E08EAB91C079
:101CC0006FA978AD89AD9AAD20E030E04FE753E4DD
:101CD0000E94BD0318160CF07BC06BAD7CAD8DADC2
:101CE0009EAD20E030E04AE754E40E941103DC019D
:101CF000CB018AAB9BABACABBDAB6AA97BA98CA972
:101D00009DA920E030E04AEF54E40E941702DC0174
:101D1000CB018EA79FA7A8ABB9AB6EA57FA588A95D
:101D200099A920E030E040E85FE30E941D04882389
:101D30002CF481E090E09DA78CA73FC06EA57FA505
:101D400088A999A920E03FEF4FE757E40E94BD031F
:101D500018164CF56AA97BA98CA99DA920E030E052
:101D600040E251E40E941702DC01CB01BC01CD012D
:101D70000E944100DC01CB019DA78CA70FC088EC1D
:101D800090E09BA78AA78AA59BA50197F1F79BA73F
:101D90008AA78CA59DA501979DA78CA78CA59DA51D
:101DA000009769F724C06EA57FA588A999A90E940C
:101DB0004100DC01CB019DA78CA78CA59DA599A70F
:101DC00088A788A599A50197F1F799A788A70FC0BB
:101DD0006FA978AD89AD9AAD0E944100DC01CB01BD
:101DE0008EAB8EA98FA38FA18A95F1F78FA381E087
:101DF0000E94251180E090E0A8E4B2E48BA39CA3AC
:101E0000ADA3BEA36BA17CA18DA19EA12BEA3AEA52
:101E10004AE250E40E941702DC01CB018F8F98A3A5
:101E2000A9A3BAA36F8D78A189A19AA120E030E07F
:101E300040E85FE30E941D0488231CF481E08E8F3C
:101E400091C06F8D78A189A19AA120E030E04FE781
:101E500053E40E94BD0318160CF07BC06BA17CA15B
:101E60008DA19EA120E030E04AE754E40E941103D6
:101E7000DC01CB018A8F9B8FAC8FBD8F6A8D7B8DF0
:101E80008C8D9D8D20E030E04AEF54E40E941702D3
:101E9000DC01CB018E8B9F8BA88FB98F6E897F89D8
:101EA000888D998D20E030E040E85FE30E941D04BA
:101EB00088232CF481E090E09D8B8C8B3FC06E8951
:101EC0007F89888D998D20E03FEF4FE757E40E948E
:101ED000BD0318164CF56A8D7B8D8C8D9D8D20E091
:101EE00030E040E251E40E941702DC01CB01BC016A
:101EF000CD010E944100DC01CB019D8B8C8B0FC07A
:101F000088EC90E09B8B8A8B8A899B890197F1F7FB
:101F10009B8B8A8B8C899D8901979D8B8C8B8C895F
:101F20009D89009769F724C06E897F89888D998D76
:101F30000E944100DC01CB019D8B8C8B8C899D899B
:101F4000998B888B888999890197F1F7998B888B70
:101F50000FC06F8D78A189A19AA10E944100DC0178
:101F6000CB018E8F8E8D8F878F858A95F1F78F8726
:101F700080E090E0A0E0B0E48B879C87AD87BE87CF
:101F80006B857C858D859E8520E030E04AEF54E4AA
:101F90000E941702DC01CB018F839887A987BA873B
:101FA0006F81788589859A8520E030E040E85FE39D
:101FB0000E941D0488232CF481E090E09E838D8391
:101FC0003FC06F81788589859A8520E03FEF4FE794
:101FD00057E40E94BD0318164CF56B857C858D85F2
:101FE0009E8520E030E040E251E40E941702DC01CF
:101FF000CB01BC01CD010E944100DC01CB019E83DD
:102000008D830FC088EC90E09C838B838B819C81B7
:102010000197F1F79C838B838D819E8101979E832D
:102020008D838D819E81009769F714C06F817885BB
:1020300089859A850E944100DC01CB019E838D83B6
:102040008D819E819A83898389819A810197F1F795
:102050009A838983C259DF4F0FB6F894DEBF0FBE53
:10206000CDBFCF91DF911F910F910895DF93CF9353
:10207000CDB7DEB769970FB6F894DEBF0FBECDBF00
:10208000898F82E060E042E00E94230982E061E003
:1020900041E00E94230982E062E041E00E942309BE
:1020A00082E062E042E00E94230981E0698D0E94A3
:1020B000900680E090E0A0E0B0E48D8B9E8BAF8B2B
:1020C000B88F6D897E898F89988D2BEA3AEA4AE22A
:1020D00050E40E941702DC01CB01898B9A8BAB8BF9
:1020E000BC8B69897A898B899C8920E030E040E843
:1020F0005FE30E941D0488231CF481E0888B91C05B
:1021000069897A898B899C8920E030E04FE753E424
:102110000E94BD0318160CF07BC06D897E898F89E3
:10212000988D20E030E04AE754E40E941103DC017E
:10213000CB018C879D87AE87BF876C857D858E851B
:102140009F8520E030E04AEF54E40E941702DC0152
:10215000CB0188879987AA87BB87688579858A8517
:102160009B8520E030E040E85FE30E941D04882367
:102170002CF481E090E09F838E833FC06885798551
:102180008A859B8520E03FEF4FE757E40E94BD031F
:1021900018164CF56C857D858E859F8520E030E096
:1021A00040E251E40E941702DC01CB01BC01CD01E9
:1021B0000E944100DC01CB019F838E830FC088EC1D
:1021C00090E09D838C838C819D810197F1F79D83A5
:1021D0008C838E819F8101979F838E838E819F81C7
:1021E000009769F724C0688579858A859B850E9458
:1021F0004100DC01CB019F838E838E819F819B8375
:102200008A838A819B810197F1F79B838A830FC020
:1022100069897A898B899C890E944100DC01CB0104
:10222000888B8889898389818A95F1F7898382E0FF
:1022300062E041E00E94230969960FB6F894DEBF80
:102240000FBECDBFCF91DF910895DF93CF93CDB770
:10225000DEB769970FB6F894DEBF0FBECDBF898F8A
:1022600082E060E041E00E94230982E061E041E019
:102270000E94230982E062E041E00E94230982E09B
:1022800062E042E00E94230981E0698D0E9490068D
:1022900080E090E0A0E0B0E48D8B9E8BAF8BB88F98
:1022A0006D897E898F89988D2BEA3AEA4AE250E45B
:1022B0000E941702DC01CB01898B9A8BAB8BBC8B04
:1022C00069897A898B899C8920E030E040E85FE366
:1022D0000E941D0488231CF481E0888B91C06989C9
:1022E0007A898B899C8920E030E04FE753E40E9493
:1022F000BD0318160CF07BC06D897E898F89988D7F
:1023000020E030E04AE754E40E941103DC01CB01F5
:102310008C879D87AE87BF876C857D858E859F85E1
:1023200020E030E04AEF54E40E941702DC01CB01C8
:1023300088879987AA87BB87688579858A859B85E1
:1023400020E030E040E85FE30E941D0488232CF485
:1023500081E090E09F838E833FC0688579858A8580
:102360009B8520E03FEF4FE757E40E94BD0318161E
:102370004CF56C857D858E859F8520E030E040E2C0
:1023800051E40E941702DC01CB01BC01CD010E9487
:102390004100DC01CB019F838E830FC088EC90E06D
:1023A0009D838C838C819D810197F1F79D838C8324
:1023B0008E819F8101979F838E838E819F8100975D
:1023C00069F724C0688579858A859B850E944100CC
:1023D000DC01CB019F838E838E819F819B838A83C7
:1023E0008A819B810197F1F79B838A830FC069895A
:1023F0007A898B899C890E944100DC01CB01888B02
:102400008889898389818A95F1F7898382E062E0EE
:1024100041E00E94230969960FB6F894DEBF0FBE13
:10242000CDBFCF91DF9108952F923F924F925F924F
:102430006F927F928F929F92AF92BF92CF92DF92D4
:10244000EF92FF920F931F93CF93DF93CDB7DEB739
:10245000CA1BDB0B0FB6F894DEBF0FBECDBF0994CD
:102460002A88398848885F846E847D848C849B8424
:10247000AA84B984C884DF80EE80FD800C811B8132
:10248000AA81B981CE0FD11D0FB6F894DEBF0FBE61
:0A249000CDBFED010895F894FFCFD1
:10249A00374144454441202A5F2A000000000000D9
:0C24AA0000000000000000000000000026
:00000001FF
