:100000000C942A000C94D61C0C94031D0C94301DE7
:100010000C9447000C9447000C9447000C94470044
:100020000C9447000C9447000C9447000C94442017
:100030000C9447000C9447000C9447000C94470024
:100040000C9447000C9447000C9447000C94470014
:100050000C94470011241FBECFE5D8E0DEBFCDBF12
:1000600011E0A0E6B0E0E4E6F7E402C005900D92EE
:10007000AC39B107D9F711E0ACE9B1E001C01D928C
:10008000AF3AB107E1F70E942A220C94B0230C94F6
:100090000000EF92FF920F931F937B018C0120E0F1
:1000A00030E040E05FE40E94F50388238CF0C80153
:1000B000B70120E030E040E05FE40E94C1010E940F
:1000C00055049B01AC01205030404040504806C0D0
:1000D000C801B7010E9455049B01AC01B901CA01D6
:1000E0001F910F91FF90EF900895A0E0B0E0EBE733
:1000F000F0E00C947923DC012B01FA019C91923001
:1001000008F439C1EB018881823008F433C194309E
:1001100069F4843009F02FC111969C91119789815F
:10012000981709F428C1A4E8B0E025C1843009F487
:1001300021C18230A9F4923009F01DC19A01AD01AC
:1001400088E0EA010990AE01E90109929E0181501F
:10015000C1F7E201898111969C918923818308C1AD
:10016000923009F407C112962D903C901397EB0141
:100170008A819B811496AD90BD90CD90DC901797AD
:10018000EC80FD800E811F819101281B390BB90184
:1001900037FF04C066277727621B730B6032710537
:1001A0000CF061C0121613066CF537014801062EDB
:1001B00004C096948794779467940A94D2F721E0C8
:1001C00030E040E050E004C0220F331F441F551FB1
:1001D0006A95D2F721503040404050402E213F21B7
:1001E00040235123211531054105510521F021E01E
:1001F00030E040E050E079018A01E628F72808293C
:1002000019293CC0232BD1F1260E371E350146019A
:10021000062E04C096948794779467940A94D2F734
:1002200021E030E040E050E004C0220F331F441FC3
:10023000551F6A95D2F721503040404050402A2146
:100240003B214C215D21211531054105510521F04E
:1002500021E030E040E050E059016A01A628B728CB
:10026000C828D9280BC0821593052CF01C01AA249C
:10027000BB24650103C0EE24FF24870111969C91E5
:10028000D20111968C91981709F445C0992339F041
:10029000A80197012A193B094C095D0906C0A6016E
:1002A00095012E193F09400B510B57FD08C01182D3
:1002B0003382228224833583468357831DC081E0A5
:1002C00081833382228288279927DC01821B930B4A
:1002D000A40BB50B84839583A683B7830DC0220F2F
:1002E000331F441F551F24833583468357838281E0
:1002F000938101979383828324813581468157813D
:10030000DA01C9010197A109B1098F5F9F4FAF4F72
:10031000BF4328F30BC0918333822282EA0CFB1C7B
:100320000C1D1D1DE482F5820683178383E0808304
:10033000248135814681578157FF1AC0C901AA27F8
:1003400097FDA095BA2F81709070A070B0705695EF
:10035000479537952795822B932BA42BB52B848318
:100360009583A683B7838281938101969383828349
:10037000DF0101C0D201CD01CDB7DEB7E2E10C94BF
:100380009523A0E2B0E0E7ECF1E00C9485236983CB
:100390007A838B839C832D833E834F835887E9E048
:1003A000EE2EF12CEC0EFD1ECE010196B7010E943F
:1003B00046068E010F5E1F4FCE010596B8010E94C2
:1003C00046068A8991E089278A8BC701B801AE0168
:1003D000475E5F4F0E9475000E947105A096E6E09F
:1003E0000C94A123A0E2B0E0E8EFF1E00C948523A7
:1003F00069837A838B839C832D833E834F835887C5
:10040000F9E0EF2EF12CEC0EFD1ECE010196B701A6
:100410000E9446068E010F5E1F4FCE010596B80161
:100420000E944606C701B801AE01475E5F4F0E94B9
:1004300075000E947105A096E6E00C94A123A0E24D
:10044000B0E0E5E2F2E00C94792369837A838B8350
:100450009C832D833E834F835887CE010196BE0136
:10046000675F7F4F0E944606CE010596BE016F5E14
:100470007F4F0E9446069985923088F089898230A4
:10048000C8F0943019F4823051F404C0843029F457
:10049000923081F484E890E0C6C0923049F420E0C4
:1004A0009A858A89981321E02A87CE010996BBC0D4
:1004B000823049F420E09A858A89981321E02A8BBA
:1004C000CE014196B0C02D843E844F8458886D88FB
:1004D0007E888F88988CEE24FF248701AA24BB2471
:1004E000650140E050E060E070E0E0E0F0E0C10174
:1004F00081709070892BE9F0E60CF71C081D191D1E
:100500009A01AB012A0D3B1D4C1D5D1D80E090E062
:10051000A0E0B0E0E614F7040805190520F481E036
:1005200090E0A0E0B0E0BA01A901480F591F6A1F8E
:100530007B1FAA0CBB1CCC1CDD1C97FE08C081E0F5
:1005400090E0A0E0B0E0A82AB92ACA2ADB2A3196B6
:10055000E032F10549F0660C771C881C991C569412
:10056000479437942794C3CFFA85EA892B893C892D
:100570008B859C85280F391F2E5F3F4F17C0CA01FE
:1005800081709070892B61F016950795F794E79428
:1005900080E090E0A0E0B0E8E82AF92A0A2B1B2BC3
:1005A00076956795579547952F5F3F4F77FDE7CF36
:1005B0000CC0440F551F661F771F17FD4160EE0CDE
:1005C000FF1C001F111F21503040403090E05907A0
:1005D00090E0690790E4790760F32B8F3C8FDB0193
:1005E000CA018F779070A070B07080349105A1051A
:1005F000B10561F447FD0AC0E114F10401051105DC
:1006000029F0405C5F4F6F4F7F4F40781A8EFE1786
:1006100011F081E08A8F4D8F5E8F6F8F78A383E01A
:10062000898FCE0149960E947105A096E2E10C9453
:100630009523A8E1B0E0EFE1F3E00C948123698316
:100640007A838B839C832D833E834F835887B9E0C5
:10065000EB2EF12CEC0EFD1ECE010196B7010E948F
:1006600046068E010F5E1F4FCE010596B8010E940F
:1006700046062985223008F47EC03989323010F4CC
:10068000B8017CC08A859A8989278A87243011F02D
:10069000223031F4231709F06EC064E870E06EC0B8
:1006A000343039F41D861E861F86188A1C861B86E8
:1006B00004C0323021F484E08987B7015FC02B8504
:1006C0003C858B899C89281B390B3C872B87ED84C3
:1006D000FE840F851889AD88BE88CF88D88CEA142F
:1006E000FB040C051D0540F4EE0CFF1C001F111F40
:1006F000215030403C872B8720E030E040E050E044
:1007000080E090E0A0E0B0E460E070E0EA14FB0478
:100710000C051D0540F0282B392B4A2B5B2BEA18C2
:10072000FB080C091D09B695A79597958795EE0CC2
:10073000FF1C001F111F6F5F7F4F6F31710531F775
:10074000DA01C9018F779070A070B0708034910584
:10075000A105B10561F427FD0AC0E114F10401050A
:10076000110529F0205C3F4F4F4F5F4F20782D87B8
:100770003E874F87588BBE01675F7F4FCB010E943A
:1007800071056896EAE00C949D23A8E1B0E0EBECDB
:10079000F3E00C94852369837A838B839C832D8378
:1007A0003E834F83588789E0E82EF12CEC0EFD1E26
:1007B000CE010196B7010E9446068E010F5E1F4FC3
:1007C000CE010596B8010E9446068985823040F028
:1007D0008989823028F0C701B8010E94BE0601C095
:1007E0008FEF6896E6E00C94A123A8E1B0E0EBEF70
:1007F000F3E00C94852369837A838B839C832D8318
:100800003E834F83588789E0E82EF12CEC0EFD1EC5
:10081000CE010196B7010E9446068E010F5E1F4F62
:10082000CE010596B8010E9446068985823040F0C7
:100830008989823028F0C701B8010E94BE0601C034
:100840008FEF6896E6E00C94A123A8E1B0E0EBE21C
:10085000F4E00C94852369837A838B839C832D83B6
:100860003E834F83588789E0E82EF12CEC0EFD1E65
:10087000CE010196B7010E9446068E010F5E1F4F02
:10088000CE010596B8010E9446068985823040F067
:100890008989823028F0C701B8010E94BE0601C0D4
:1008A00081E06896E6E00C94A123ACE0B0E0EBE5D3
:1008B000F4E00C94892369837A838B839C83CE0133
:1008C0000196BE016B5F7F4F0E9446068D8182308C
:1008D00061F1823050F1843021F48E81882351F10E
:1008E0002EC02F81388537FD20C06E812F31310514
:1008F0001CF06623F9F023C08EE190E0821B930B7D
:1009000029853A854B855C8504C056954795379572
:1009100027958A95D2F76623B1F05095409530958A
:1009200021953F4F4F4F5F4F0EC020E030E040E039
:1009300050E009C02FEF3FEF4FEF5FE704C020E02A
:1009400030E040E050E8B901CA012C96E2E00C9496
:10095000A523A8E0B0E0EFEAF4E00C9481237B014A
:100960008C01611571058105910519F482E0898377
:1009700060C083E089838EE1C82ED12CDC82CB82DB
:10098000ED82FE820F831887C801B7010E942205FD
:10099000FC013197F7FF3BC0222733272E1B3F0B6B
:1009A00057016801022E04C0D694C794B794A79447
:1009B0000A94D2F740E050E060E070E081E090E01F
:1009C000A0E0B0E004C0880F991FAA1FBB1F2A95A2
:1009D000D2F70197A109B1098E219F21A023B1234C
:1009E0000097A105B10521F041E050E060E070E022
:1009F0004A295B296C297D294D835E836F83788723
:100A00008EE190E08E1B9F0B9C838B8312C03097EE
:100A100081F00E2E04C0EE0CFF1C001F111F0A9463
:100A2000D2F7ED82FE820F831887CE1ADF0ADC82AE
:100A3000CB821A82CE0101960E9471052896EAE0C7
:100A40000C949D23EF92FF920F931F937B018C01D7
:100A500080E0E81680E0F80681E0080780E01807EB
:100A600088F48FEFE816F1040105110531F028F044
:100A700088E090E0A0E0B0E017C080E090E0A0E067
:100A8000B0E012C080E0E81680E0F80680E00807D9
:100A900081E0180728F088E190E0A0E0B0E004C011
:100AA00080E190E0A0E0B0E020E230E040E050E003
:100AB000281B390B4A0B5B0B04C016950795F7945E
:100AC000E7948A95D2F7F701E457FF4F8081281BFE
:100AD000310941095109C9011F910F91FF90EF9010
:100AE0000895DF92EF92FF920F931F93FC01E48031
:100AF000F58006811781D1808081823048F480E0C2
:100B000090E0A0E1B0E0E82AF92A0A2B1B2BA5C04F
:100B1000843009F49FC0823021F4EE24FF24870141
:100B200005C0E114F1040105110519F4E0E0F0E05D
:100B300096C0628173819FEF623879070CF05BC0C9
:100B400022E83FEF261B370B2A3131052CF020E03D
:100B500030E040E050E02AC0B801A701022E04C0F6
:100B600076956795579547950A94D2F781E090E07E
:100B7000A0E0B0E004C0880F991FAA1FBB1F2A95F0
:100B8000D2F70197A109B1098E219F21A023B1239A
:100B90000097A105B10521F081E090E0A0E0B0E070
:100BA0009A01AB01282B392B4A2B5B2BDA01C901A7
:100BB0008F779070A070B07080349105A105B10559
:100BC00039F427FF09C0205C3F4F4F4F5F4F04C0EF
:100BD000215C3F4F4F4F5F4FE0E0F0E02030A0E05E
:100BE0003A07A0E04A07A0E45A0710F0E1E0F0E07D
:100BF00079018A0127C06038710564F5FB01E1586D
:100C0000FF4FD801C7018F779070A070B07080340B
:100C10009105A105B10539F4E7FE0DC080E490E02F
:100C2000A0E0B0E004C08FE390E0A0E0B0E0E80E08
:100C3000F91E0A1F1B1F17FF05C016950795F7948D
:100C4000E794319687E016950795F794E7948A958F
:100C5000D1F705C0EE24FF248701EFEFF0E06E2FFF
:100C6000679566276795902F9F77D794DD24D79453
:100C70008E2F8695492F462B582F5D29B701CA0123
:100C80001F910F91FF90EF90DF900895FC01DB0121
:100C9000408151812281622F6F7770E0221F2227CD
:100CA000221F9381892F880F822B282F30E0991FD4
:100CB0009927991F11969C93119721153105A9F534
:100CC000411551056105710511F482E037C082E8D4
:100CD0009FEF13969C938E9312979A01AB0167E056
:100CE000220F331F441F551F6A95D1F783E08C9361
:100CF0000DC0220F331F441F551F12968D919C91DA
:100D00001397019713969C938E931297203080E04F
:100D1000380780E0480780E4580758F314962D936D
:100D20003D934D935C93179708952F3F310579F4C8
:100D3000411551056105710519F484E08C930895FE
:100D400064FF03C081E08C9312C01C9210C02F5727
:100D5000304013963C932E93129783E08C9387E058
:100D6000440F551F661F771F8A95D1F7706414963C
:100D70004D935D936D937C93179708951F93DC01BA
:100D8000FB019C91923008F447C08081823008F4C6
:100D900043C0943051F411961C91843099F58181AF
:100DA000682F70E0611B71093FC0843021F09230E0
:100DB00031F48230B9F18181882389F12DC01196F7
:100DC0001C9111978230F1F081811817D9F4129695
:100DD0002D913C911397828193818217930794F010
:100DE00028173907BCF014968D919D910D90BC91F8
:100DF000A02D2481358146815781281739074A075C
:100E00005B0718F4112341F00AC082179307A40767
:100E1000B50740F4112319F061E070E005C06FEFF1
:100E20007FEF02C060E070E0CB011F910895DF9377
:100E3000CF9300D000D000D0CDB7DEB783E060EF15
:100E40000E948A1683E06FE00E94D316CE010196BD
:100E500063E00E941C17898180958F708983898146
:100E60008823A1F383E06FE00E948A1683E060EF9D
:100E70000E94D316CE01029663E00E941C178A815D
:100E8000882F90E080959095807F907095958795BC
:100E90009595879595958795959587958A83898169
:100EA000282F30E03E832D838D819E8182309105F5
:100EB000C1F02D813E812330310534F48D819E8136
:100EC0008130910561F015C02D813E8124303105BE
:100ED00059F08D819E818830910549F00AC01982B0
:100EE00008C081E0898305C082E0898302C083E075
:100EF00089838A81282F30E03C832B838B819C81DE
:100F000082309105C1F02B813C812330310534F4CE
:100F10008B819C818130910561F015C02B813C81D2
:100F20002430310559F08B819C818830910549F03E
:100F30000AC01A8208C081E08A8305C082E08A83E1
:100F400002C083E08A838981482F50E08A81282F5C
:100F500030E0CA01880F991F880F991F820F931FD5
:100F6000FC01E457FE4F808126960FB6F894DEBF51
:100F70000FBECDBFCF91DF9108950F931F93DF93E5
:100F8000CF93CDB7DEB7C257D0400FB6F894DEBFCF
:100F90000FBECDBF81E060E041E00E946F1781E0AD
:100FA00061E041E00E946F1781E062E041E00E9451
:100FB0006F1781E064E041E00E946F1781E065E017
:100FC00041E00E946F1781E066E041E00E946F17E8
:100FD00081E067E041E00E946F17FE01E159FF4F99
:100FE00080E090E0A0E2B2E480839183A283B383A7
:100FF0008E0105591F4FFE01E159FF4F608171813C
:101000008281938120E030E04AEF54E40E941F0285
:10101000DC01CB01F80180839183A283B383FE01BD
:10102000E559FF4F608171818281938120E030E03A
:1010300040E85FE30E942504882344F4FE01E75959
:10104000FF4F81E090E09183808364C0FE01E55909
:10105000FF4F608171818281938120E03FEF4FE7F4
:1010600057E40E94C50318160CF043C0FE01E15975
:10107000FF4F608171818281938120E030E040E206
:1010800051E40E941F02DC01CB018E0107591F4F62
:10109000BC01CD010E944900DC01CB01F801918324
:1010A00080831FC0FE01E959FF4F88EC90E09183D7
:1010B0008083FE01E959FF4F808191810197F1F70B
:1010C000FE01E959FF4F91838083DE01A759BF4F8D
:1010D000FE01E759FF4F80819181019711969C9302
:1010E0008E93FE01E759FF4F808191810097D1F6E1
:1010F00027C08E0107591F4FFE01E559FF4F608140
:101100007181828193810E944900DC01CB01F80149
:1011100091838083DE01AB59BF4FFE01E759FF4F3A
:10112000808191818D939C93FE01EB59FF4F8081CB
:1011300091810197F1F7FE01EB59FF4F9183808375
:1011400083E30E94820CFE01EF59FF4F80E090E0A4
:10115000A0EAB0E480839183A283B3838E01035A13
:101160001F4FFE01EF59FF4F608171818281938192
:1011700020E030E04AEF54E40E941F02DC01CB0182
:10118000F80180839183A283B383FE01E35AFF4F6A
:10119000608171818281938120E030E040E85FE3EB
:1011A0000E942504882344F4FE01E55AFF4F81E0A4
:1011B00090E09183808364C0FE01E35AFF4F608119
:1011C00071818281938120E03FEF4FE757E40E94D5
:1011D000C50318160CF043C0FE01EF59FF4F6081A4
:1011E00071818281938120E030E040E251E40E94ED
:1011F0001F02DC01CB018E01055A1F4FBC01CD013E
:101200000E944900DC01CB01F801918380831FC05B
:10121000FE01E75AFF4F88EC90E091838083FE0146
:10122000E75AFF4F808191810197F1F7FE01E75A5C
:10123000FF4F91838083DE01A55ABF4FFE01E55A1F
:10124000FF4F80819181019711969C938E93FE01AF
:10125000E55AFF4F808191810097D1F627C08E011A
:10126000055A1F4FFE01E35AFF4F60817181828151
:1012700093810E944900DC01CB01F80191838083B6
:10128000DE01A95ABF4FFE01E55AFF4F80819181CF
:101290008D939C93FE01E95AFF4F808191810197C4
:1012A000F1F7FE01E95AFF4F9183808382E30E94A8
:1012B000820CFE01ED5AFF4F80E090E0A8ECB2E412
:1012C00080839183A283B3838E01015B1F4FFE0154
:1012D000ED5AFF4F60817181828193812BEA3AEA56
:1012E0004AE250E40E941F02DC01CB01F801808336
:1012F0009183A283B383FE01E15BFF4F6081718123
:101300008281938120E030E040E85FE30E94250481
:10131000882334F4FE01E25BFF4F81E08083E0C06C
:10132000FE01E15BFF4F608171818281938120E04A
:1013300030E04FE753E40E94C50318160CF0C0C01C
:10134000FE01ED5AFF4F608171818281938120E01F
:1013500030E04AE754E40E941903DC01CB01FE01AE
:10136000E65BFF4F80839183A283B3838E010A5B88
:101370001F4FFE01E65BFF4F608171818281938187
:1013800020E030E04AEF54E40E941F02DC01CB0170
:10139000F80180839183A283B383FE01EA5BFF4F50
:1013A000608171818281938120E030E040E85FE3D9
:1013B0000E942504882344F4FE01EC5BFF4F81E08A
:1013C00090E09183808364C0FE01EA5BFF4F6081FF
:1013D00071818281938120E03FEF4FE757E40E94C3
:1013E000C50318160CF043C0FE01E65BFF4F608199
:1013F00071818281938120E030E040E251E40E94DB
:101400001F02DC01CB018E010C5B1F4FBC01CD0123
:101410000E944900DC01CB01F801918380831FC049
:10142000FE01EE5BFF4F88EC90E091838083FE012C
:10143000EE5BFF4F808191810197F1F7FE01EE5B3A
:10144000FF4F91838083DE01AC5BBF4FFE01EC5BFD
:10145000FF4F80819181019711969C938E93FE019D
:10146000EC5BFF4F808191810097D1F642C08E01E5
:101470000C5B1F4FFE01EA5BFF4F6081718182812F
:1014800093810E944900DC01CB01F80191838083A4
:10149000DE01A05CBF4FFE01EC5BFF4F80819181BC
:1014A00011969C938E93FE01E05CFF4F80819181A9
:1014B0000197F1F7FE01E05CFF4F9183808319C033
:1014C0008E01025B1F4FFE01E15BFF4F6081718166
:1014D000828193810E944900DC01CB01F801808365
:1014E000FE01E25BFF4F80818FAF8FAD8A95F1F7F0
:1014F0008FAF88E20E94820C80E090E0A8ECB2E41A
:101500008BAF9CAFADAFBEAF6BAD7CAD8DAD9EADC7
:101510002BEA3AEA4AE250E40E941F02DC01CB01C6
:101520008FAB98AFA9AFBAAF6FA978AD89AD9AADBF
:1015300020E030E040E85FE30E94250488231CF4AB
:1015400081E08EAB91C06FA978AD89AD9AAD20E0F6
:1015500030E04FE753E40E94C50318160CF07BC03F
:101560006BAD7CAD8DAD9EAD20E030E04AE754E43C
:101570000E941903DC01CB018AAB9BABACABBDABCA
:101580006AA97BA98CA99DA920E030E04AEF54E428
:101590000E941F02DC01CB018EA79FA7A8ABB9ABAD
:1015A0006EA57FA588A999A920E030E040E85FE317
:1015B0000E94250488232CF481E090E09DA78CA74D
:1015C0003FC06EA57FA588A999A920E03FEF4FE70E
:1015D00057E40E94C50318164CF56AA97BA98CA98B
:1015E0009DA920E030E040E251E40E941F02DC01AE
:1015F000CB01BC01CD010E944900DC01CB019DA7BC
:101600008CA70FC088EC90E09BA78AA78AA59BA512
:101610000197F1F79BA78AA78CA59DA501979DA788
:101620008CA78CA59DA5009769F724C06EA57FA502
:1016300088A999A90E944900DC01CB019DA78CA72C
:101640008CA59DA599A788A788A599A50197F1F7CD
:1016500099A788A70FC06FA978AD89AD9AAD0E94F0
:101660004900DC01CB018EAB8EA98FA38FA18A9597
:10167000F1F78FA38CE00E94820C80E090E0A8E458
:10168000B3E48BA39CA3ADA3BEA36BA17CA18DA14E
:101690009EA12BEA3AEA4AE250E40E941F02DC01D2
:1016A000CB018F8F98A3A9A3BAA36F8D78A189A12D
:1016B0009AA120E030E040E85FE30E9425048823FF
:1016C0001CF481E08E8F91C06F8D78A189A19AA1C1
:1016D00020E030E04FE753E40E94C50318160CF0F9
:1016E0007BC06BA17CA18DA19EA120E030E04AE7E8
:1016F00054E40E941903DC01CB018A8F9B8FAC8FCD
:10170000BD8F6A8D7B8D8C8D9D8D20E030E04AEF02
:1017100054E40E941F02DC01CB018E8B9F8BA88FAB
:10172000B98F6E897F89888D998D20E030E040E8FF
:101730005FE30E94250488232CF481E090E09D8BD8
:101740008C8B3FC06E897F89888D998D20E03FEF1B
:101750004FE757E40E94C50318164CF56A8D7B8D40
:101760008C8D9D8D20E030E040E251E40E941F020C
:10177000DC01CB01BC01CD010E944900DC01CB01A1
:101780009D8B8C8B0FC088EC90E09B8B8A8B8A8919
:101790009B890197F1F79B8B8A8B8C899D89019797
:1017A0009D8B8C8B8C899D89009769F724C06E89ED
:1017B0007F89888D998D0E944900DC01CB019D8B2A
:1017C0008C8B8C899D89998B888B888999890197C5
:1017D000F1F7998B888B0FC06F8D78A189A19AA1A1
:1017E0000E944900DC01CB018E8F8E8D8F878F8503
:1017F0008A95F1F78F8786E00E94820C8FE00E9425
:10180000820C81E00E94820C80E090E0A0E0B0E4D5
:101810008B879C87AD87BE876B857C858D859E85F4
:1018200020E030E04AEF54E40E941F02DC01CB01CB
:101830008F839887A987BA876F81788589859A85EC
:1018400020E030E040E85FE30E94250488232CF488
:1018500081E090E09E838D833FC06F81788589858C
:101860009A8520E03FEF4FE757E40E94C503181622
:101870004CF56B857C858D859E8520E030E040E2CF
:1018800051E40E941F02DC01CB01BC01CD010E948A
:101890004900DC01CB019E838D830FC088EC90E072
:1018A0009C838B838B819C810197F1F79C838B8335
:1018B0008D819E8101979E838D838D819E8100976E
:1018C00069F714C06F81788589859A850E944900DF
:1018D000DC01CB019E838D838D819E819A838983D8
:1018E00089819A810197F1F79A838983CE58DF4FD6
:1018F0000FB6F894DEBF0FBECDBFCF91DF911F9121
:101900000F9108950F931F93DF93CF93CDB7DEB759
:10191000C156D0400FB6F894DEBF0FBECDBFFE015A
:10192000EF59FF4F808381E060E041E00E9466193B
:1019300081E061E041E00E94661981E062E041E0FF
:101940000E946619FE01EF59FF4F808182958F70CA
:101950008170982F9F5F81E064E0492F0E94661993
:10196000FE01EF59FF4F80818295869587708170C7
:10197000982F9F5F81E065E0492F0E946619FE0164
:10198000EF59FF4F8081829586958695837081708F
:10199000982F9F5F81E066E0492F0E946619FE0143
:1019A000EF59FF4F8081881F8827881F982F9F5FDE
:1019B00081E067E0492F0E94661981E062E042E021
:1019C0000E946619FE01E35AFF4F80E090E0A0E21A
:1019D000B1E480839183A283B3838E01075A1F4FA2
:1019E000FE01E35AFF4F60817181828193812BEA6E
:1019F0003AEA4AE250E40E941F02DC01CB01F801FE
:101A000080839183A283B383FE01E75AFF4F6081F5
:101A100071818281938120E030E040E85FE30E94A1
:101A20002504882334F4FE01E85AFF4F81E08083C7
:101A3000E0C0FE01E75AFF4F60817181828193818E
:101A400020E030E04FE753E40E94C50318160CF085
:101A5000C0C0FE01E35AFF4F608171818281938192
:101A600020E030E04AE754E40E941903DC01CB0196
:101A7000FE01EC5AFF4F80839183A283B3838E01D2
:101A8000005B1F4FFE01EC5AFF4F60817181828124
:101A9000938120E030E04AEF54E40E941F02DC0111
:101AA000CB01F80180839183A283B383FE01E05BC5
:101AB000FF4F608171818281938120E030E040E8B6
:101AC0005FE30E942504882344F4FE01E25BFF4F9C
:101AD00081E090E09183808364C0FE01E05BFF4F72
:101AE000608171818281938120E03FEF4FE757E46D
:101AF0000E94C50318160CF043C0FE01EC5AFF4FBC
:101B0000608171818281938120E030E040E251E484
:101B10000E941F02DC01CB018E01025B1F4FBC0142
:101B2000CD010E944900DC01CB01F8019183808343
:101B30001FC0FE01E45BFF4F88EC90E0918380833F
:101B4000FE01E45BFF4F808191810197F1F7FE0177
:101B5000E45BFF4F91838083DE01A25BBF4FFE01F8
:101B6000E25BFF4F80819181019711969C938E9348
:101B7000FE01E25BFF4F808191810097D1F64BC05F
:101B80008E01025B1F4FFE01E05BFF4F60817181A0
:101B9000828193810E944900DC01CB01F80191838D
:101BA0008083DE01A65BBF4FFE01E25BFF4F8081B9
:101BB000918111969C938E93FE01E65BFF4F80818D
:101BC00091810197F1F7FE01E65BFF4F91838083DE
:101BD00022C08E01085A1F4FFE01E75AFF4F608155
:101BE0007181828193810E944900DC01CB01F8015F
:101BF0008083DE01A75BBF4FFE01E85AFF4F808163
:101C00008C93FE01E75BFF4F80818A95F1F7FE011F
:101C1000E75BFF4F808381E062E041E00E9466194C
:101C2000FE01EB5BFF4F80E090E0A8ECB2E4808324
:101C30009183A283B3838E010F5B1F4FFE01EB5B89
:101C4000FF4F60817181828193812BEA3AEA4AE2F7
:101C500050E40E941F02DC01CB01F80180839183D4
:101C6000A283B383FE01EF5BFF4F608171818281AC
:101C7000938120E030E040E85FE30E942504882360
:101C800034F481E0FE01E05CFF4F80839DC0FE01E3
:101C9000EF5BFF4F608171818281938120E030E0B2
:101CA0004FE753E40E94C50318160CF07EC0FE01F6
:101CB000EB5BFF4F608171818281938120E030E096
:101CC0004AE754E40E941903DC01CB018CAF9DAFBD
:101CD000AEAFBFAF6CAD7DAD8EAD9FAD20E030E05F
:101CE0004AEF54E40E941F02DC01CB0188AF99AF98
:101CF000AAAFBBAF68AD79AD8AAD9BAD20E030E057
:101D000040E85FE30E94250488232CF481E090E002
:101D10009FAB8EAB3FC068AD79AD8AAD9BAD20E087
:101D20003FEF4FE757E40E94C50318164CF56CAD22
:101D30007DAD8EAD9FAD20E030E040E251E40E94E9
:101D40001F02DC01CB01BC01CD010E944900DC0176
:101D5000CB019FAB8EAB0FC088EC90E09DAB8CAB02
:101D60008CA99DA90197F1F79DAB8CAB8EA99FA97A
:101D700001979FAB8EAB8EA99FA9009769F72DC0E5
:101D800068AD79AD8AAD9BAD0E944900DC01CB0105
:101D90009FAB8EAB8EA99FA99BAB8AAB8AA99BA94F
:101DA0000197F1F79BAB8AAB18C0FE01EF5BFF4FC9
:101DB00060817181828193810E944900DC01CB01A5
:101DC000FE01E05CFF4F8083FE01E05CFF4F8081FD
:101DD00089AB89A98A95F1F789ABFE01EF59FF4FCD
:101DE00080818170982F9F5F81E064E0492F0E947D
:101DF0006619FE01EF59FF4F808186958170982FFB
:101E00009F5F81E065E0492F0E946619FE01EF594E
:101E1000FF4F8081869586958170982F9F5F81E026
:101E200066E0492F0E946619FE01EF59FF4F80813D
:101E30008695869586958170982F9F5F81E067E0F3
:101E4000492F0E94661981E062E042E00E94661913
:101E500080E090E0A0E2B1E48DA79EA7AFA7B8AB69
:101E60006DA57EA58FA598A92BEA3AEA4AE250E42F
:101E70000E941F02DC01CB0189A79AA7ABA7BCA7D0
:101E800069A57AA58BA59CA520E030E040E85FE33A
:101E90000E94250488231CF481E088A791C069A5CD
:101EA0007AA58BA59CA520E030E04FE753E40E9483
:101EB000C50318160CF07BC06DA57EA58FA598A94B
:101EC00020E030E04AE754E40E941903DC01CB0132
:101ED0008CA39DA3AEA3BFA36CA17DA18EA19FA146
:101EE00020E030E04AEF54E40E941F02DC01CB0105
:101EF00088A399A3AAA3BBA368A179A18AA19BA146
:101F000020E030E040E85FE30E94250488232CF4C1
:101F100081E090E09F8F8E8F3FC068A179A18AA158
:101F20009BA120E03FEF4FE757E40E94C50318163E
:101F30004CF56CA17DA18EA19FA120E030E040E294
:101F400051E40E941F02DC01CB01BC01CD010E94C3
:101F50004900DC01CB019F8F8E8F0FC088EC90E091
:101F60009D8F8C8F8C8D9D8D0197F1F79D8F8C8F20
:101F70008E8D9F8D01979F8F8E8F8E8D9F8D009759
:101F800069F724C068A179A18AA19BA10E94490098
:101F9000DC01CB019F8F8E8F8E8D9F8D9B8F8A8FC3
:101FA0008A8D9B8D0197F1F79B8F8A8F0FC069A552
:101FB0007AA58BA59CA50E944900DC01CB0188A7CE
:101FC00088A5898F898D8A95F1F7898F81E062E0F4
:101FD00041E00E94661980E090E0A8ECB2E48D8BAD
:101FE0009E8BAF8BB88F6D897E898F89988D2BEAF8
:101FF0003AEA4AE250E40E941F02DC01CB01898BDD
:102000009A8BAB8BBC8B69897A898B899C8920E000
:1020100030E040E85FE30E94250488231CF481E05F
:10202000888B91C069897A898B899C8920E030E00E
:102030004FE753E40E94C50318160CF07BC06D896E
:102040007E898F89988D20E030E04AE754E40E9431
:102050001903DC01CB018C879D87AE87BF876C8518
:102060007D858E859F8520E030E04AEF54E40E9414
:102070001F02DC01CB0188879987AA87BB87688507
:1020800079858A859B8520E030E040E85FE30E9407
:10209000250488232CF481E090E09F838E833FC049
:1020A000688579858A859B8520E03FEF4FE757E477
:1020B0000E94C50318164CF56C857D858E859F851D
:1020C00020E030E040E251E40E941F02DC01CB013D
:1020D000BC01CD010E944900DC01CB019F838E83AE
:1020E0000FC088EC90E09D838C838C819D8101974B
:1020F000F1F79D838C838E819F8101979F838E83CF
:102100008E819F81009769F724C0688579858A85CB
:102110009B850E944900DC01CB019F838E838E81C9
:102120009F819B838A838A819B810197F1F79B839F
:102130008A830FC069897A898B899C890E944900AA
:10214000DC01CB01888B8889898389818A95F1F7A5
:102150008983CF59DF4F0FB6F894DEBF0FBECDBFD6
:10216000CF91DF911F910F9108950F931F93DF93EC
:10217000CF93CDB7DEB7C156D0400FB6F894DEBFCF
:102180000FBECDBFFE01EF59FF4F808381E060E0BD
:1021900042E00E94661981E061E041E00E94661918
:1021A00081E062E041E00E946619FE01EF59FF4FB5
:1021B000808182958F708170982F9F5F81E064E0AD
:1021C000492F0E946619FE01EF59FF4F80818295C9
:1021D000869587708170982F9F5F81E065E0492F19
:1021E0000E946619FE01EF59FF4F80818295869506
:1021F000869583708170982F9F5F81E066E0492FFC
:102200000E946619FE01EF59FF4F8081881F8827C1
:10221000881F982F9F5F81E067E0492F0E94661911
:1022200081E062E042E00E946619FE01E35AFF4F3E
:1022300080E090E0A0E2B1E480839183A283B38345
:102240008E01075A1F4FFE01E35AFF4F60817181D3
:10225000828193812BEA3AEA4AE250E40E941F020B
:10226000DC01CB01F80180839183A283B383FE015B
:10227000E75AFF4F608171818281938120E030E0D5
:1022800040E85FE30E942504882334F4FE01E85A05
:10229000FF4F81E08083E0C0FE01E75AFF4F60817D
:1022A00071818281938120E030E04FE753E40E9406
:1022B000C50318160CF0C0C0FE01E35AFF4F608141
:1022C00071818281938120E030E04AE754E40E94EA
:1022D0001903DC01CB01FE01EC5AFF4F808391838F
:1022E000A283B3838E01005B1F4FFE01EC5AFF4FA8
:1022F000608171818281938120E030E04AEF54E473
:102300000E941F02DC01CB01F80180839183A2832C
:10231000B383FE01E05BFF4F608171818281938115
:1023200020E030E040E85FE30E942504882344F485
:10233000FE01E25BFF4F81E090E09183808364C007
:10234000FE01E05BFF4F608171818281938120E01B
:102350003FEF4FE757E40E94C50318160CF043C047
:10236000FE01EC5AFF4F608171818281938120E0F0
:1023700030E040E251E40E941F02DC01CB018E01FB
:10238000025B1F4FBC01CD010E944900DC01CB0163
:10239000F801918380831FC0FE01E45BFF4F88EC4E
:1023A00090E091838083FE01E45BFF4F8081918107
:1023B0000197F1F7FE01E45BFF4F91838083DE011B
:1023C000A25BBF4FFE01E25BFF4F808191810197CD
:1023D00011969C938E93FE01E25BFF4F8081918169
:1023E0000097D1F64BC08E01025B1F4FFE01E05BF0
:1023F000FF4F60817181828193810E944900DC01DD
:10240000CB01F80191838083DE01A65BBF4FFE0103
:10241000E25BFF4F8081918111969C938E93FE0128
:10242000E65BFF4F808191810197F1F7FE01E65B4A
:10243000FF4F9183808322C08E01085A1F4FFE01F7
:10244000E75AFF4F60817181828193810E94490028
:10245000DC01CB01F8018083DE01A75BBF4FFE01E9
:10246000E85AFF4F80818C93FE01E75BFF4F80812C
:102470008A95F1F7FE01E75BFF4F808381E062E020
:1024800041E00E946619FE01EB5BFF4F80E090E0A7
:10249000A8ECB2E480839183A283B3838E010F5BA7
:1024A0001F4FFE01EB5BFF4F608171818281938141
:1024B0002BEA3AEA4AE250E40E941F02DC01CB0117
:1024C000F80180839183A283B383FE01EF5BFF4F0A
:1024D000608171818281938120E030E040E85FE398
:1024E0000E942504882334F481E0FE01E05CFF4F64
:1024F00080839DC0FE01EF5BFF4F6081718182810F
:10250000938120E030E04FE753E40E94C5031816A2
:102510000CF07EC0FE01EB5BFF4F60817181828118
:10252000938120E030E04AE754E40E941903DC0183
:10253000CB018CAF9DAFAEAFBFAF6CAD7DAD8EADFF
:102540009FAD20E030E04AEF54E40E941F02DC011E
:10255000CB0188AF99AFAAAFBBAF68AD79AD8AADFB
:102560009BAD20E030E040E85FE30E942504882333
:102570002CF481E090E09FAB8EAB3FC068AD79ADAD
:102580008AAD9BAD20E03FEF4FE757E40E94C503C3
:1025900018164CF56CAD7DAD8EAD9FAD20E030E0F2
:1025A00040E251E40E941F02DC01CB01BC01CD01DD
:1025B0000E944900DC01CB019FAB8EAB0FC088ECC1
:1025C00090E09DAB8CAB8CA99DA90197F1F79DABD9
:1025D0008CAB8EA99FA901979FAB8EAB8EA99FA9AB
:1025E000009769F72DC068AD79AD8AAD9BAD0E94AB
:1025F0004900DC01CB019FAB8EAB8EA99FA99BABA1
:102600008AAB8AA99BA90197F1F79BAB8AAB18C04B
:10261000FE01EF5BFF4F60817181828193810E9497
:102620004900DC01CB01FE01E05CFF4F8083FE012D
:10263000E05CFF4F808189AB89A98A95F1F789AB6E
:10264000FE01EF59FF4F80818170982F9F5F81E0DD
:1026500064E0492F0E946619FE01EF59FF4F808107
:1026600086958170982F9F5F81E065E0492F0E94D9
:102670006619FE01EF59FF4F80818695869581701E
:10268000982F9F5F81E066E0492F0E946619FE0146
:10269000EF59FF4F80818695869586958170982F9A
:1026A0009F5F81E067E0492F0E94661981E062E048
:1026B00042E00E94661980E090E0A0E2B1E48DA7BC
:1026C0009EA7AFA7B8AB6DA57EA58FA598A92BEA4D
:1026D0003AEA4AE250E40E941F02DC01CB0189A7DA
:1026E0009AA7ABA7BCA769A57AA58BA59CA520E056
:1026F00030E040E85FE30E94250488231CF481E079
:1027000088A791C069A57AA58BA59CA520E030E09B
:102710004FE753E40E94C50318160CF07BC06DA56B
:102720007EA58FA598A920E030E04AE754E40E94F6
:102730001903DC01CB018CA39DA3AEA3BFA36CA1A5
:102740007DA18EA19FA120E030E04AEF54E40E94D9
:102750001F02DC01CB0188A399A3AAA3BBA368A194
:1027600079A18AA19BA120E030E040E85FE30E94CC
:10277000250488232CF481E090E09F8F8E8F3FC04A
:1027800068A179A18AA19BA120E03FEF4FE757E420
:102790000E94C50318164CF56CA17DA18EA19FA1C6
:1027A00020E030E040E251E40E941F02DC01CB0156
:1027B000BC01CD010E944900DC01CB019F8F8E8FAF
:1027C0000FC088EC90E09D8F8C8F8C8D9D8D019734
:1027D000F1F79D8F8C8F8E8D9F8D01979F8F8E8FA0
:1027E0008E8D9F8D009769F724C068A179A18AA179
:1027F0009BA10E944900DC01CB019F8F8E8F8E8DA3
:102800009F8D9B8F8A8F8A8D9B8D0197F1F79B8F70
:102810008A8F0FC069A57AA58BA59CA50E94490047
:10282000DC01CB0188A788A5898F898D8A95F1F76E
:10283000898F81E062E041E00E94661980E090E0CB
:10284000A8ECB2E48D8B9E8BAF8BB88F6D897E899F
:102850008F89988D2BEA3AEA4AE250E40E941F02DF
:10286000DC01CB01898B9A8BAB8BBC8B69897A8914
:102870008B899C8920E030E040E85FE30E942504DA
:1028800088231CF481E0888B91C069897A898B89BF
:102890009C8920E030E04FE753E40E94C5031816FE
:1028A0000CF07BC06D897E898F89988D20E030E0A7
:1028B0004AE754E40E941903DC01CB018C879D8711
:1028C000AE87BF876C857D858E859F8520E030E053
:1028D0004AEF54E40E941F02DC01CB0188879987EC
:1028E000AA87BB87688579858A859B8520E030E04B
:1028F00040E85FE30E94250488232CF481E090E007
:102900009F838E833FC0688579858A859B8520E07B
:102910003FEF4FE757E40E94C50318164CF56C854E
:102920007D858E859F8520E030E040E251E40E9465
:102930001F02DC01CB01BC01CD010E944900DC017A
:10294000CB019F838E830FC088EC90E09D838C83A6
:102950008C819D810197F1F79D838C838E819F816E
:1029600001979F838E838E819F81009769F724C092
:10297000688579858A859B850E944900DC01CB01A9
:102980009F838E838E819F819B838A838A819B8193
:102990000197F1F79B838A830FC069897A898B89B4
:1029A0009C890E944900DC01CB01888B888989833E
:1029B00089818A95F1F78983CF59DF4F0FB6F89453
:1029C000DEBF0FBECDBFCF91DF911F910F91089554
:1029D000DF93CF93CDB7DEB729970FB6F894DEBF5C
:1029E0000FBECDBF9987888788859985009721F488
:1029F00080E30E94B5103DC0198220C08981E82F74
:102A0000FF27E7FDF095888599852AE030E0B90138
:102A10000E944323282F205DCE010296E80FF91F64
:102A20002083888599852AE030E0B9010E944323FC
:102A3000CB019987888789818F5F8983888599856C
:102A40000097E1F689818150898310C08981282F00
:102A5000332727FD3095CE010296FC01E20FF31FCC
:102A600080810E94B51089818150898389818F3F3F
:102A700069F729960FB6F894DEBF0FBECDBFCF9190
:102A8000DF910895DF93CF9300D00F92CDB7DEB7DB
:102A90009B838A838A819B810097D1F019828981E7
:102AA000282F30E08A819B81FC01E20FF31F808197
:102AB0000E94B51089818F5F89838981282F30E03A
:102AC0008A819B81FC01E20FF31F8081882339F703
:102AD0000F900F900F90CF91DF910895DF93CF93D8
:102AE000CDB7DEB761970FB6F894DEBF0FBECDBF8E
:102AF000888B698B8889982F9295990F990F907C74
:102B00008989892B80688F878F850E94820C80E05D
:102B100090E0A0E8BFE38B879C87AD87BE876B857D
:102B20007C858D859E8520E030E04AEF54E40E944C
:102B30001F02DC01CB018F839887A987BA876F8139
:102B4000788589859A8520E030E040E85FE30E943F
:102B5000250488232CF481E090E09E838D833FC080
:102B60006F81788589859A8520E03FEF4FE757E4AC
:102B70000E94C50318164CF56B857C858D859E8556
:102B800020E030E040E251E40E941F02DC01CB0172
:102B9000BC01CD010E944900DC01CB019E838D83E5
:102BA0000FC088EC90E09C838B838B819C81019784
:102BB000F1F79C838B838D819E8101979E838D830A
:102BC0008D819E81009769F714C06F817885898512
:102BD0009A850E944900DC01CB019E838D838D8103
:102BE0009E819A83898389819A810197F1F79A83DB
:102BF000898361960FB6F894DEBF0FBECDBFCF912B
:102C0000DF910895DF93CF93CDB7DEB72E970FB640
:102C1000F894DEBF0FBECDBF81E00E94820C80E041
:102C200090E0A0E8BFE38B879C87AD87BE876B856C
:102C30007C858D859E8520E030E04AEF54E40E943B
:102C40001F02DC01CB018F839887A987BA876F8128
:102C5000788589859A8520E030E040E85FE30E942E
:102C6000250488232CF481E090E09E838D833FC06F
:102C70006F81788589859A8520E03FEF4FE757E49B
:102C80000E94C50318164CF56B857C858D859E8545
:102C900020E030E040E251E40E941F02DC01CB0161
:102CA000BC01CD010E944900DC01CB019E838D83D4
:102CB0000FC088EC90E09C838B838B819C81019773
:102CC000F1F79C838B838D819E8101979E838D83F9
:102CD0008D819E81009769F714C06F817885898501
:102CE0009A850E944900DC01CB019E838D838D81F2
:102CF0009E819A83898389819A810197F1F79A83CA
:102D000089832E960FB6F894DEBF0FBECDBFCF914C
:102D1000DF910895DF93CF9300D000D00F92CDB70D
:102D2000DEB78A836B8319828A81282F30E03D8346
:102D30002C838C819D8182309105D9F02C813D813D
:102D40002330310534F48C819D818130910561F00F
:102D50001FC02C813D812330310581F08C819D8104
:102D60008430910581F014C0E9E3F0E08B81818328
:102D700011C0E6E3F0E08B8181830CC0E3E3F0E077
:102D80008B81818307C0E0E3F0E08B81818302C007
:102D900081E0898389810F900F900F900F900F90A1
:102DA000CF91DF910895DF93CF9300D000D00F92A1
:102DB000CDB7DEB78A836B8319828A81282F30E0F2
:102DC0003D832C838C819D8182309105D9F02C81AB
:102DD0003D812330310534F48C819D818130910512
:102DE00061F01FC02C813D812330310581F08C8141
:102DF0009D818430910581F014C0E9E3F0E08B817E
:102E0000828311C0E6E3F0E08B8182830CC0E3E3B0
:102E1000F0E08B81828307C0E0E3F0E08B81828366
:102E200002C081E0898389810F900F900F900F90ED
:102E30000F90CF91DF910895DF93CF9300D000D012
:102E400000D0CDB7DEB79B838A836C8319828C81D7
:102E5000282F30E03E832D838D819E818230910525
:102E6000E9F02D813E812330310534F48D819E813E
:102E70008130910561F027C02D813E8123303105DD
:102E8000A1F08D819E8184309105B1F01CC0E9E3F1
:102E9000F0E08081EA81FB81808317C0E6E3F0E007
:102EA0008081EA81FB81808310C0E3E3F0E08081D0
:102EB000EA81FB81808309C0E0E3F0E08081EA8160
:102EC000FB81808302C081E08983898126960FB6C9
:102ED000F894DEBF0FBECDBFCF91DF910895DF9391
:102EE000CF93CDB7DEB72A970FB6F894DEBF0FBEEB
:102EF000CDBF8A836B834C8319828B81883008F025
:102F0000D9C18C81813009F07CC08A81282F30E0C2
:102F10003A87298789859A858230910569F12985C3
:102F20003A852330310534F489859A8581309105BD
:102F300069F064C029853A852330310599F1898586
:102F40009A858430910509F443C058C0A9E3B0E0E4
:102F5000E9E3F0E08181482F8B81282F30E081E088
:102F600090E0022E02C0880F991F0A94E2F7842B8A
:102F700011968C931197A0C1A6E3B0E0E6E3F0E0D0
:102F80008181482F8B81282F30E081E090E0022E54
:102F900002C0880F991F0A94E2F7842B11968C9334
:102FA00011978AC1A3E3B0E0E3E3F0E08181482F09
:102FB0008B81282F30E081E090E0022E02C0880F44
:102FC000991F0A94E2F7842B11968C93119774C180
:102FD000A0E3B0E0E0E3F0E08181482F8B81282F6F
:102FE00030E081E090E0022E02C0880F991F0A9421
:102FF000E2F7842B11968C9311975EC181E089834F
:103000005BC18C81823009F080C08A81282F30E03A
:1030100038872F838F8198858230910571F12F81B8
:1030200038852330310534F48F81988581309105BE
:1030300069F068C02F81388523303105A9F18F816F
:1030400098858430910509F446C05CC0A9E3B0E0DE
:10305000E9E3F0E08181482F8B81282F30E081E087
:1030600090E0022E02C0880F991F0A94E2F7809523
:10307000842311968C9311971FC1A6E3B0E0E6E379
:10308000F0E08181482F8B81282F30E081E090E0B3
:10309000022E02C0880F991F0A94E2F780958423BC
:1030A00011968C93119708C1A3E3B0E0E3E3F0E03D
:1030B0008181482F8B81282F30E081E090E0022E23
:1030C00002C0880F991F0A94E2F780958423119615
:1030D0008C931197F1C0A0E3B0E0E0E3F0E08181D0
:1030E000482F8B81282F30E081E090E0022E02C033
:1030F000880F991F0A94E2F78095842311968C9388
:103100001197DAC081E08983D7C08C81833009F0C0
:10311000CEC08A81282F30E03E832D838D819E8111
:103120008230910509F442C02D813E812330310562
:1031300034F48D819E818130910571F0B5C02D816F
:103140003E812330310509F45BC08D819E8184303E
:10315000910509F47FC0A8C0A9E3B0E0E9E3F0E07D
:103160008181482F8B81282F30E081E090E002C0E0
:10317000880F991F2A95E2F78095842311968C93E6
:10318000A9E3B0E0E9E3F0E08281482F8B81282FAA
:1031900030E081E090E0022E02C0880F991F0A946F
:1031A000E2F7842B12968C93129786C0A6E3B0E0C8
:1031B000E6E3F0E08181482F8B81282F30E081E029
:1031C00090E002C0880F991F2A95E2F7809584232A
:1031D00011968C93A6E3B0E0E6E3F0E08281482FFD
:1031E0008B81282F30E081E090E0022E02C0880F12
:1031F000991F0A94E2F7842B12968C9312975CC065
:10320000A3E3B0E0E3E3F0E08181482F8B81282F36
:1032100030E081E090E002C0880F991F2A95E2F724
:103220008095842311968C93A3E3B0E0E3E3F0E070
:103230008281482F8B81282F30E081E090E0022EA0
:1032400002C0880F991F0A94E2F7842B12968C9380
:10325000129732C0A0E3B0E0E0E3F0E08181482FB4
:103260008B81282F30E081E090E002C0880F991F09
:103270002A95E2F78095842311968C93A0E3B0E021
:10328000E0E3F0E08281482F8B81282F30E081E05D
:1032900090E0022E02C0880F991F0A94E2F7842B57
:1032A00012968C93129708C081E0898305C081E053
:1032B000898302C081E0898389812A960FB6F894B8
:1032C000DEBF0FBECDBFCF91DF910895DF93CF93C7
:1032D000CDB7DEB728970FB6F894DEBF0FBECDBFCF
:1032E0008A836B834C8319828B81883008F007C1F5
:1032F0008C81823009F07CC08A81282F30E03887A9
:103300002F838F8198858230910569F12F813885CF
:103310002330310534F48F8198858130910569F02F
:1033200064C02F8138852330310599F18F819885CC
:103330008430910509F443C058C0A9E3B0E0E9E343
:10334000F0E08281482F8B81282F30E081E090E0EF
:10335000022E02C0880F991F0A94E2F7842B12965E
:103360008C931297CEC0A6E3B0E0E6E3F0E0828152
:10337000482F8B81282F30E081E090E0022E02C0A0
:10338000880F991F0A94E2F7842B12968C93129758
:10339000B8C0A3E3B0E0E3E3F0E08281482F8B8183
:1033A000282F30E081E090E0022E02C0880F991FA4
:1033B0000A94E2F7842B12968C931297A2C0A0E392
:1033C000B0E0E0E3F0E08281482F8B81282F30E0ED
:1033D00081E090E0022E02C0880F991F0A94E2F764
:1033E000842B12968C9312978CC081E0898389C0BC
:1033F0008C81813009F080C08A81282F30E03E83A3
:103400002D838D819E818230910571F12D813E81C8
:103410002330310534F48D819E818130910569F02E
:1034200068C02D813E8123303105A9F18D819E81B7
:103430008430910509F446C05CC0A9E3B0E0E9E33B
:10344000F0E08281482F8B81282F30E081E090E0EE
:10345000022E02C0880F991F0A94E2F780958423F8
:1034600012968C9312974DC0A6E3B0E0E6E3F0E02D
:103470008281482F8B81282F30E081E090E0022E5E
:1034800002C0880F991F0A94E2F780958423129650
:103490008C93129736C0A3E3B0E0E3E3F0E08281BF
:1034A000482F8B81282F30E081E090E0022E02C06F
:1034B000880F991F0A94E2F78095842312968C93C3
:1034C00012971FC0A0E3B0E0E0E3F0E08281482F54
:1034D0008B81282F30E081E090E0022E02C0880F1F
:1034E000991F0A94E2F78095842312968C93129781
:1034F00008C081E0898305C081E0898302C081E042
:103500008983898128960FB6F894DEBF0FBECDBFA0
:10351000CF91DF910895DF93CF93CDB7DEB7279793
:103520000FB6F894DEBF0FBECDBF9B838A836C833A
:103530004D8319828A819B81009719F482E08983E7
:103540007AC08D81883008F074C08C81282F30E0DB
:103550003F832E834E815F814230510559F18E8128
:103560009F818330910534F42E813F8121303105D4
:1035700069F05CC04E815F814330510579F18E81E5
:103580009F818430910509F43DC050C0E9E3F0E02B
:103590008081282F30E08D81882F90E0A90102C022
:1035A000559547958A95E2F7CA018170EA81FB81BA
:1035B000808341C0E6E3F0E08081282F30E08D81F8
:1035C000882F90E0A90102C0559547958A95E2F7AA
:1035D000CA018170EA81FB8180832DC0E3E3F0E0C2
:1035E0008081282F30E08D81882F90E0A90102C0D2
:1035F000559547958A95E2F7CA018170EA81FB816A
:10360000808319C0E0E3F0E08081282F30E08D81D5
:10361000882F90E0A90102C0559547958A95E2F759
:10362000CA018170EA81FB81808305C081E08983C2
:1036300002C081E08983898127960FB6F894DEBFA6
:103640000FBECDBFCF91DF910895DF93CF9300D010
:1036500000D00F92CDB7DEB78A836B8319828B813E
:10366000883008F07CC08A81282F30E03D832C838D
:103670008C819D818230910569F12C813D812330BF
:10368000310534F48C819D818130910569F064C0ED
:103690002C813D812330310599F18C819D818430CD
:1036A000910509F443C058C0A9E3B0E0E9E3F0E0B4
:1036B0008281482F8B81282F30E081E090E0022E1C
:1036C00002C0880F991F0A94E2F7842712968C9300
:1036D000129747C0A6E3B0E0E6E3F0E08281482F0E
:1036E0008B81282F30E081E090E0022E02C0880F0D
:1036F000991F0A94E2F7842712968C93129731C08F
:10370000A3E3B0E0E3E3F0E08281482F8B81282F30
:1037100030E081E090E0022E02C0880F991F0A94E9
:10372000E2F7842712968C9312971BC0A0E3B0E0B7
:10373000E0E3F0E08281482F8B81282F30E081E0A8
:1037400090E0022E02C0880F991F0A94E2F78427A6
:1037500012968C93129705C081E0898302C082E0A3
:10376000898389810F900F900F900F900F90CF91C8
:10377000DF910895DF93CF93CDB7DEB727970FB6CC
:10378000F894DEBF0FBECDBF8A836B8319828A8116
:10379000282F30E03F832E838E819F8181309105D9
:1037A000D1F02E813F812230310561F18E819F81E0
:1037B000009709F04AC0A5E5B0E0E5E5F0E08081BA
:1037C0008C7F8C93A5E5B0E0E5E5F0E090818B81FE
:1037D000892B8C933CC0A5E5B0E0E5E5F0E0808165
:1037E000837F8C93A5E5B0E0E5E5F0E08081282FAC
:1037F0008B81882F90E0880F991F880F991F822B4B
:103800008C9325C08B81282F30E03D832C838C81C5
:103810009D818230910531F02C813D81233031052D
:1038200049F010C0A4E5B0E0E4E5F0E080818F7BD2
:103830008C930DC0A4E5B0E0E4E5F0E08081806405
:103840008C9305C081E0898302C081E089838981EE
:1038500027960FB6F894DEBF0FBECDBFCF91DF9194
:103860000895DF93CF9300D000D0CDB7DEB79B8310
:103870008A836C8319828A819B81009719F482E084
:10388000898312C08C81833068F48C81882F90E00A
:10389000880F991FFC01E456FE4F8A819B8191831A
:1038A000808302C081E0898389810F900F900F90FF
:1038B0000F90CF91DF910895DF93CF9300D000D088
:1038C000CDB7DEB78A8319828A81282F30E03C8306
:1038D0002B838B819C818130910589F02B813C81E8
:1038E00022303105A1F08B819C810097C1F4ABE5BA
:1038F000B0E0EBE5F0E0808180648C9312C0ABE532
:10390000B0E0EBE5F0E0808180688C930AC0ABE525
:10391000B0E0EBE5F0E0808180628C9302C081E052
:10392000898389810F900F900F900F90CF91DF9135
:103930000895DF93CF9300D000D0CDB7DEB78A8350
:1039400019828A81282F30E03C832B838B819C81D4
:103950008130910589F02B813C8122303105A1F025
:103960008B819C810097C1F4ABE5B0E0EBE5F0E022
:1039700080818F7B8C9312C0ABE5B0E0EBE5F0E08B
:1039800080818F778C930AC0ABE5B0E0EBE5F0E087
:1039900080818F7D8C9302C081E0898389810F9023
:1039A0000F900F900F90CF91DF9108951F920F927B
:1039B0000FB60F9211242F933F934F935F936F9302
:1039C0007F938F939F93AF93BF93EF93FF93DF9377
:1039D000CF93CDB7DEB7E0919C01F0919D010995A1
:1039E000CF91DF91FF91EF91BF91AF919F918F9117
:1039F0007F916F915F914F913F912F910F900FBEEB
:103A00000F901F9018951F920F920FB60F921124CE
:103A10002F933F934F935F936F937F938F939F93D6
:103A2000AF93BF93EF93FF93DF93CF93CDB7DEB701
:103A3000E0919E01F0919F010995CF91DF91FF9157
:103A4000EF91BF91AF919F918F917F916F915F9116
:103A50004F913F912F910F900FBE0F901F9018958F
:103A60001F920F920FB60F9211242F933F934F93F3
:103A70005F936F937F938F939F93AF93BF93EF93D6
:103A8000FF93DF93CF93CDB7DEB7E091A001F09124
:103A9000A1010995CF91DF91FF91EF91BF91AF9176
:103AA0009F918F917F916F915F914F913F912F9156
:103AB0000F900FBE0F901F901895DF93CF93CDB747
:103AC000DEB7AFE5B0E0EFE5F0E0808180688C9391
:103AD000CF91DF910895DF93CF93CDB7DEB7AFE5F8
:103AE000B0E0EFE5F0E080818F778C93CF91DF91AC
:103AF0000895DF93CF93CDB7DEB729970FB6F8942B
:103B0000DEBF0FBECDBF8A836B834C832D831982AA
:103B10008A81833008F098C08B81883008F094C087
:103B20008C81843008F090C08D81843008F08CC086
:103B30008A81282F30E039872887888599858130C8
:103B4000910509F483C0288539852230310509F4AF
:103B50007DC088859985009709F073C08C81282FD6
:103B600030E03F832E838E819F818130910521F14A
:103B70002E813F81223031052CF48E819F81009768
:103B800061F047C02E813F812230310521F18E81C5
:103B90009F818330910571F13CC0A3E5B0E0E3E57E
:103BA000F0E08081877F8C93A3E5B0E0E3E5F0E06F
:103BB00080818F7B8C932FC0A3E5B0E0E3E5F0E03C
:103BC000808188608C93A3E5B0E0E3E5F0E080813C
:103BD0008F7B8C9320C0A3E5B0E0E3E5F0E080812B
:103BE00088608C93A3E5B0E0E3E5F0E08081806439
:103BF0008C9311C0A3E5B0E0E3E5F0E08081806440
:103C00008C93A3E5B0E0E3E5F0E08081877F8C93BF
:103C100002C081E08983A3E5B0E0E3E5F0E08081C4
:103C2000282F2F7C8D81882F90E082959295907F10
:103C30009827807F9827822B8C938B818093A80173
:103C400005C081E0898302C081E08983898129964A
:103C50000FB6F894DEBF0FBECDBFCF91DF910895B0
:103C6000DF93CF93CDB7DEB7A3E5B0E0E3E5F0E0B7
:103C7000808180688C93CF91DF910895DF93CF93FB
:103C800000D0CDB7DEB78A8319828A818830A0F44C
:103C9000A9E5B0E0E9E5F0E08081482F8A81282F8E
:103CA00030E081E090E0022E02C0880F991F0A9454
:103CB000E2F7842B8C9302C081E0898389810F9085
:103CC0000F90CF91DF910895DF93CF9300D0CDB7C0
:103CD000DEB78A8319828A818830A8F4A9E5B0E02A
:103CE000E9E5F0E08081482F8A81282F30E081E0EB
:103CF00090E0022E02C0880F991F0A94E2F7809587
:103D000084238C9302C081E0898389810F900F9076
:103D1000CF91DF910895DF93CF9300D000D000D0F2
:103D2000CDB7DEB79B838A836C8319828A819B819E
:103D3000009701F18C81282F30E03E832D838D8107
:103D40009E81009731F02D813E812130310541F077
:103D50000EC08A819B819093A3018093A2010CC025
:103D60008A819B819093A5018093A40105C081E085
:103D7000898302C082E08983898126960FB6F894F0
:103D8000DEBF0FBECDBFCF91DF910895DF93CF93FC
:103D900000D000D0CDB7DEB78A8319828A81282F60
:103DA00030E03C832B838B819C8181309105B9F07D
:103DB0002B813C812230310591F08B819C810097D1
:103DC00061F4A3E5B0E0E3E5F0E08081982F987F0F
:103DD0008091A801892B8C9302C081E0898389811D
:103DE0000F900F900F900F90CF91DF910895DF9378
:103DF000CF9300D000D0CDB7DEB78A8319828A81F5
:103E0000282F30E03C832B838B819C81813091056E
:103E100099F02B813C812230310571F08B819C819E
:103E2000009741F4A3E5B0E0E3E5F0E08081887F0E
:103E30008C9302C081E0898389810F900F900F904D
:103E40000F90CF91DF910895DF93CF9300D000D0F2
:103E500000D0CDB7DEB78A837C836B8319828A81D9
:103E6000282F30E03E832D838D819E818130910506
:103E700081F02D813E812230310559F08D819E8166
:103E8000009729F4ECE5F0E08B81808302C081E0AB
:103E90008983898126960FB6F894DEBF0FBECDBF09
:103EA000CF91DF910895EF92FF920F931F93DF93CD
:103EB000CF93CDB7DEB764970FB6F894DEBF0FBED1
:103EC000CDBF8C874D875E876F87788B1B868C85EF
:103ED000282F30E03C8B2B8B8B899C89813091057E
:103EE00009F4C4C02B893C892230310509F4BEC0D5
:103EF0008B899C89009709F0B7C08091A801282F71
:103F000030E03A8B298B89899A898330910529F190
:103F100029893A89243031055CF489899A8981306C
:103F2000910589F029893A892230310589F024C028
:103F300089899A8984309105A9F029893A8925309F
:103F40003105A9F019C081E090E09A83898316C0F9
:103F500088E090E09A83898311C080E490E09A839E
:103F600089830CC080E091E09A83898307C080E058
:103F700094E09A83898302C081E08B8789819A814A
:103F8000CC01A0E0B0E0BC01CD010E94A904DC019D
:103F9000CB01BC01CD0120E034E244EF5AE40E94A1
:103FA0001903DC01CB018F839887A987BA876F81BA
:103FB000788589859A8520E030E040E853E40E94C6
:103FC0001F02DC01CB018B839C83AD83BE836D8597
:103FD0007E858F8598890E94A904DC01CB01BC01F4
:103FE000CD0120E030E04AE754E40E941903DC01EF
:103FF000CB01BC01CD012B813C814D815E810E94B2
:104000001903DC01CB01BC01CD010E944900DC0198
:10401000CB019093AA018093A9018D859E85AF85E0
:10402000B88928EE33E040E050E0BC01CD010E94A9
:104030005723DA01C9017C018D016B817C818D815F
:104040009E810E9449009B01AC01C801B7010E94FA
:104050005723DC01CB0181958093AB01E2E5F0E0D1
:104060008091AB01808302C081E08B878B85649651
:104070000FB6F894DEBF0FBECDBFCF91DF911F9179
:104080000F91FF90EF9008951F920F920FB60F922D
:1040900011242F933F934F935F936F937F938F934D
:1040A0009F93AF93BF93EF93FF93DF93CF93CDB7DE
:1040B000DEB78091A2019091A301009729F1809130
:1040C000A6019091A70101969093A7018093A60164
:1040D0008091A9019091AA019C012F5F3F4F80918F
:1040E000A6019091A7012817390771F41092A70132
:1040F0001092A601E2E5F0E08091AB018083E091AF
:10410000A201F091A3010995CF91DF91FF91EF9169
:10411000BF91AF919F918F917F916F915F914F91DF
:104120003F912F910F900FBE0F901F901895DF9326
:10413000CF93CDB7DEB78091AC01882341F4809155
:10414000AD01882321F480E00E94F71E16C0809103
:10415000AC01882369F08091AD01882349F48BE399
:104160008093AD018091AC0181508093AC0105C07A
:104170008091AD0181508093AD01CF91DF91089581
:10418000DF93CF93CDB7DEB72F970FB6F894DEBF8E
:104190000FBECDBF1092AC011092AD011F8693C02F
:1041A0000E9417078A3209F492C08091AC01882FCF
:1041B00090E09C01220F331FC901880F991F880FBF
:1041C000991F820F931F8093AC010E941707982FAD
:1041D0008091AC01890F80538093AC0180E090E026
:1041E000A6E9B3E48B879C87AD87BE876B857C850A
:1041F0008D859E8520E030E04AEF54E40E941F0246
:10420000DC01CB018F839887A987BA876F81788576
:1042100089859A8520E030E040E85FE30E9425042C
:1042200088232CF481E090E09E838D833FC06F81D2
:10423000788589859A8520E03FEF4FE757E40E9413
:10424000C50318164CF56B857C858D859E8520E011
:1042500030E040E251E40E941F02DC01CB01BC01CE
:10426000CD010E944900DC01CB019E838D830FC0EC
:1042700088EC90E09C838B838B819C810197F1F784
:104280009C838B838D819E8101979E838D838D81FD
:104290009E81009769F714C06F81788589859A851A
:1042A0000E944900DC01CB019E838D838D819E811C
:1042B0009A83898389819A810197F1F79A83898307
:1042C0008F858F5F8F878F85823008F469CF2F9617
:1042D0000FB6F894DEBF0FBECDBFCF91DF9108952A
:1042E000DF93CF93CDB7DEB781E063E00E946E1518
:1042F0008091AC018A3050F480E30E94B510809127
:10430000AC01882F90E00E94E81406C08091AC01B7
:10431000882F90E00E94E8148AE30E94B5108091F3
:10432000AD018A3050F480E30E94B5108091AD0158
:10433000882F90E00E94E81406C08091AD01882F7C
:1043400090E00E94E814CF91DF910895DF93CF931E
:1043500000D0CDB7DEB719821A82CE01019662E095
:1043600040E00E948B1ACE01029662E042E00E9479
:104370008B1A8091AC018823A1F08981813089F466
:104380008A81813071F480E00E94C61E82E063E081
:1043900042E00E94661982E064E042E00E946619F1
:1043A00003C081E08093AE010F900F90CF91DF9119
:1043B0000895DF93CF930F92CDB7DEB71982109295
:1043C000AC011092AD01CE01019662E043E00E9483
:1043D0008B1A8981813089F480E00E94F71E82E087
:1043E00063E041E00E94661982E064E041E00E94DF
:1043F000661983E08093AE0102C01092AE010F9067
:10440000CF91DF910895DF93CF930F92CDB7DEB7B1
:1044100019821092AC011092AD01CE01019662E0BA
:1044200043E00E948B1A8981813081F480E00E94F0
:10443000F71E82E063E041E00E94661982E064E0DA
:1044400041E00E94661983E08093AE010F90CF9106
:10445000DF910895DF93CF93CDB7DEB72E970FB6D8
:10446000F894DEBF0FBECDBF84E062E043E00E945F
:104470006F1784E063E043E00E946F1782E062E020
:1044800043E00E946F1782E060E043E00E946F17F4
:1044900082E063E041E00E946F1782E064E041E067
:1044A0000E946F1780E062E00E94BA1B81E062E028
:1044B0000E94BA1B82E062E00E94BA1B80E00E9468
:1044C0005C1C81E00E945C1C82E00E945C1C86EA0D
:1044D00091E260E00E94311C89ED91E261E00E946E
:1044E000311C83E092E262E00E94311C80E065E0D2
:1044F00040E020E00E94791D87E990E260E00E94A0
:104500008B1E80E00E943E1E0E945D1D1092AE0137
:1045100080E048EE53E060E070E00E94531F0E948C
:10452000BD078CE00E94820C8091AD018823A9F424
:104530008091AC01882389F48091AE01882369F4CD
:1045400080E061E00E946E1580E690E00E944215D6
:104550000E9470210E94C020E7CF8091AE0181307F
:1045600029F08091AE01833009F08AC00E940216C2
:1045700080E063E00E946E158091AE01813029F4E5
:104580008AE690E00E94421504C087E790E00E940E
:10459000421580E090E0AAE7B4E48B879C87AD8762
:1045A000BE876B857C858D859E8520E030E04AEF57
:1045B00054E40E941F02DC01CB018F839887A987F6
:1045C000BA876F81788589859A8520E030E040E858
:1045D0005FE30E94250488232CF481E090E09E8311
:1045E0008D833FC06F81788589859A8520E03FEF74
:1045F0004FE757E40E94C50318164CF56B857C8580
:104600008D859E8520E030E040E251E40E941F024B
:10461000DC01CB01BC01CD010E944900DC01CB01D2
:104620009E838D830FC088EC90E09C838B838B816D
:104630009C810197F1F79C838B838D819E810197EB
:104640009E838D838D819E81009769F714C06F8151
:10465000788589859A850E944900DC01CB019E837B
:104660008D838D819E819A83898389819A81019727
:10467000F1F79A8389830E9402161092AE0154CFFB
:104680000E94702151CFAA1BBB1B51E107C0AA1F7A
:10469000BB1FA617B70710F0A61BB70B881F991FE3
:1046A0005A95A9F780959095BC01CD010895A1E296
:1046B0001A2EAA1BBB1BFD010DC0AA1FBB1FEE1F9C
:1046C000FF1FA217B307E407F50720F0A21BB30BE7
:1046D000E40BF50B661F771F881F991F1A9469F763
:1046E00060957095809590959B01AC01BD01CF01BF
:1046F00008952F923F924F925F926F927F928F9286
:104700009F92AF92BF92CF92DF92EF92FF920F9360
:104710001F93CF93DF93CDB7DEB7CA1BDB0B0FB66A
:10472000F894DEBF0FBECDBF09942A883988488827
:104730005F846E847D848C849B84AA84B984C884BD
:10474000DF80EE80FD800C811B81AA81B981CE0FB4
:10475000D11D0FB6F894DEBF0FBECDBFED01089599
:04476000F894FFCFFB
:104764004E65772044656C617900205741524E496B
:104774004E47202E2E2E002046494E49534845448C
:10478400202E2E00000000000000000000010202A4
:1047940003030303040404040404040405050505D5
:1047A40005050505050505050505050506060606B1
:1047B4000606060606060606060606060606060695
:1047C4000606060606060606060606060707070781
:1047D4000707070707070707070707070707070765
:1047E4000707070707070707070707070707070755
:1047F4000707070707070707070707070707070745
:104804000707070707070707070707070808080830
:104814000808080808080808080808080808080814
:104824000808080808080808080808080808080804
:1048340008080808080808080808080808080808F4
:1048440008080808080808080808080808080808E4
:1048540008080808080808080808080808080808D4
:1048640008080808080808080808080808080808C4
:1048740008080808080808080808080808080808B4
:1048840008080808080808080808080837383941DB
:0C48940034353642313233432A3023449D
:00000001FF
