:100000000C942A000C9434000C9434000C943400AA
:100010000C9434000C9434000C9434000C94340090
:100020000C9434000C9434000C9434000C94340080
:100030000C9434000C9434000C9434000C94340070
:100040000C9434000C9434000C9434000C94340060
:100050000C94340011241FBECFE5D8E0DEBFCDBF25
:100060000E94D8040C9404050C940000DF93CF93F5
:1000700000D000D0CDB7DEB789836A838981282F6D
:1000800030E03C832B838B819C8182309105D9F0B9
:100090002B813C812330310534F48B819C8181306C
:1000A000910561F01EC02B813C812330310581F028
:1000B0008B819C818430910581F013C0E9E3F0E0ED
:1000C0008A8181830EC0E6E3F0E08A81818309C0E2
:1000D000E3E3F0E08A81818304C0E0E3F0E08A8119
:1000E00081830F900F900F900F90CF91DF91089523
:1000F000DF93CF9300D000D0CDB7DEB789836A837A
:100100008981282F30E03C832B838B819C81823036
:100110009105D9F02B813C812330310534F48B815A
:100120009C818130910561F01EC02B813C81233080
:10013000310581F08B819C818430910581F013C061
:10014000E9E3F0E08A8182830EC0E6E3F0E08A8191
:10015000828309C0E3E3F0E08A81828304C0E0E3A4
:10016000F0E08A8182830F900F900F900F90CF91D3
:10017000DF910895DF93CF9300D000D0CDB7DEB7E5
:100180008A8319828A81282F30E03C832B838B81DC
:100190009C8182309105D9F02B813C81233031053F
:1001A00034F48B819C818130910561F01EC02B81DC
:1001B0003C812330310581F08B819C818430910515
:1001C00081F013C0E9E3F0E0808189830EC0E9E3A8
:1001D000F0E08081898309C0E9E3F0E080818983D0
:1001E00004C0E9E3F0E08081898389810F900F905A
:1001F0000F900F90CF91DF910895DF93CF9300D0B0
:1002000000D00F92CDB7DEB789836A834B83898193
:10021000282F30E03D832C836C817D816230710515
:1002200009F444C08C819D818330910534F42C8184
:100230003D812130310571F0BCC06C817D8163301E
:10024000710509F45FC08C819D818430910509F4AA
:1002500085C0AFC0A9E3B0E0E9E3F0E08181482FB9
:100260008A81282F30E081E090E002C0880F991F3A
:100270002A95E2F78095842311968C93A9E3B0E048
:10028000E9E3F0E08181482F8B81282F30E08A81DB
:10029000882F90E0B90102C0660F771F8A95E2F7B8
:1002A000CB01842B11968C93119783C0A6E3B0E009
:1002B000E6E3F0E08181482F8A81282F30E081E059
:1002C00090E002C0880F991F2A95E2F78095842359
:1002D00011968C93A6E3B0E0E6E3F0E08181482F2D
:1002E0008B81282F30E08A81882F90E0B90102C0ED
:1002F000660F771F8A95E2F7CB01842B11968C93BA
:10030000119757C0A0E3B0E0E0E3F0E08181482F0F
:100310008A81282F30E081E090E002C0880F991F89
:100320002A95E2F78095842311968C93A0E3B0E0A0
:10033000E0E3F0E08181482F8B81282F30E08A8133
:10034000882F90E0B90102C0660F771F8A95E2F707
:10035000CB01842B11968C9311972BC0A0E3B0E0B6
:10036000E0E3F0E08181482F8A81282F30E081E0AE
:1003700090E002C0880F991F2A95E2F780958423A8
:1003800011968C93A0E3B0E0E0E3F0E08181482F88
:100390008B81282F30E08A81882F90E0B90102C03C
:1003A000660F771F8A95E2F7CB01842B11968C9309
:1003B00011970F900F900F900F900F90CF91DF91AA
:1003C0000895DF93CF9300D000D00F92CDB7DEB762
:1003D00089836A834B838981282F30E03D832C8376
:1003E0006C817D816230710509F444C08C819D81EE
:1003F0008330910534F42C813D812130310571F039
:10040000BCC06C817D816330710509F45FC08C8153
:100410009D818430910509F485C0AFC0A9E3B0E0A7
:10042000E9E3F0E08281482F8A81282F30E081E0E3
:1004300090E002C0880F991F2A95E2F780958423E7
:1004400012968C93A9E3B0E0E9E3F0E08281482FB3
:100450008B81282F30E08A81882F90E0B90102C07B
:10046000660F771F8A95E2F7CB01842B12968C9347
:10047000129783C0A6E3B0E0E6E3F0E08281482F64
:100480008A81282F30E081E090E002C0880F991F18
:100490002A95E2F78095842312968C93A6E3B0E028
:1004A000E6E3F0E08281482F8B81282F30E08A81BB
:1004B000882F90E0B90102C0660F771F8A95E2F796
:1004C000CB01842B12968C93129757C0A0E3B0E017
:1004D000E0E3F0E08281482F8A81282F30E081E03C
:1004E00090E002C0880F991F2A95E2F78095842337
:1004F00012968C93A0E3B0E0E0E3F0E08281482F15
:100500008B81282F30E08A81882F90E0B90102C0CA
:10051000660F771F8A95E2F7CB01842B12968C9396
:1005200012972BC0A0E3B0E0E0E3F0E08281482F17
:100530008A81282F30E081E090E002C0880F991F67
:100540002A95E2F78095842312968C93A0E3B0E07D
:10055000E0E3F0E08281482F8B81282F30E08A8110
:10056000882F90E0B90102C0660F771F8A95E2F7E5
:10057000CB01842B12968C9312970F900F900F90B3
:100580000F900F90CF91DF910895DF93CF9300D01C
:1005900000D00F92CDB7DEB78A836B8319828A8130
:1005A000282F30E03D832C834C815D814230510502
:1005B00041F18C819D818330910534F42C813D8102
:1005C0002130310561F052C04C815D8143305105CD
:1005D00051F18C819D8184309105B9F147C0E9E3E7
:1005E000F0E08081282F30E08B81882F90E0A901F6
:1005F00002C0559547958A95E2F7CA0181708983B3
:1006000035C0E6E3F0E08081282F30E08B81882F31
:1006100090E0A90102C0559547958A95E2F7CA0175
:100620008170898323C0E3E3F0E08081282F30E0EC
:100630008B81882F90E0A90102C0559547958A9536
:10064000E2F7CA018170898311C0E0E3F0E08081A4
:10065000282F30E08B81882F90E0A90102C05595AA
:1006600047958A95E2F7CA018170898389810F9045
:100670000F900F900F900F90CF91DF910895DF931F
:10068000CF9300D000D0CDB7DEB789836A8389814C
:10069000282F30E03C832B838B819C818230910515
:1006A00069F12B813C812330310534F48B819C81AD
:1006B0008130910569F063C02B813C812330310585
:1006C00099F18B819C818430910509F443C057C016
:1006D000A9E3B0E0E9E3F0E08281482F8A81282F86
:1006E00030E081E090E0022E02C0880F991F0A944A
:1006F000E2F7842712968C93129741C0A6E3B0E0EC
:10070000E6E3F0E08281482F8A81282F30E081E003
:1007100090E0022E02C0880F991F0A94E2F7842706
:1007200012968C9312972BC0A3E3B0E0E3E3F0E0C2
:100730008281482F8A81282F30E081E090E0022ECC
:1007400002C0880F991F0A94E2F7842712968C93AF
:10075000129715C0A0E3B0E0E0E3F0E08281482FFB
:100760008A81282F30E081E090E0022E02C0880FBD
:10077000991F0A94E2F7842712968C9312970F9090
:100780000F900F900F90CF91DF910895DF93CF934B
:1007900000D000D0CDB7DEB789836A838981282F46
:1007A00030E03C832B838B819C818230910569F101
:1007B0002B813C812330310534F48B819C81813045
:1007C000910569F063C02B813C812330310599F19B
:1007D0008B819C818430910509F443C057C0A9E303
:1007E000B0E0E9E3F0E08281482F8A81282F30E0F1
:1007F00081E090E0022E02C0880F991F0A94E2F770
:10080000842B12968C93129741C0A6E3B0E0E6E3E6
:10081000F0E08281482F8A81282F30E081E090E04B
:10082000022E02C0880F991F0A94E2F7842B1296B9
:100830008C9312972BC0A3E3B0E0E3E3F0E0828156
:10084000482F8A81282F30E081E090E0022E02C0FC
:10085000880F991F0A94E2F7842B12968C931297B3
:1008600015C0A0E3B0E0E0E3F0E08281482F8A8188
:10087000282F30E081E090E0022E02C0880F991FFF
:100880000A94E2F7842B12968C9312970F900F9094
:100890000F900F90CF91DF910895DF93CF9300D009
:1008A00000D0CDB7DEB789836A838981282F30E0F5
:1008B0003C832B838B819C818230910571F12B814C
:1008C0003C812330310534F48B819C81813091054A
:1008D00069F067C02B813C8123303105A9F18B8100
:1008E0009C818430910509F446C05BC0A9E3B0E067
:1008F000E9E3F0E08281482F8A81282F30E081E00F
:1009000090E0022E02C0880F991F0A94E2F78095AA
:10091000842312968C93129744C0A6E3B0E0E6E3DA
:10092000F0E08281482F8A81282F30E081E090E03A
:10093000022E02C0880F991F0A94E2F78095842343
:1009400012968C9312972DC0A3E3B0E0E3E3F0E09E
:100950008281482F8A81282F30E081E090E0022EAA
:1009600002C0880F991F0A94E2F78095842312969B
:100970008C93129716C0A0E3B0E0E0E3F0E0828130
:10098000482F8A81282F30E081E090E0022E02C0BB
:10099000880F991F0A94E2F78095842312968C930E
:1009A00012970F900F900F900F90CF91DF910895B5
:1009B000DF93CF93CDB7DEB781E06FEF0E943600B3
:1009C00082E062E040E00E94FD0082E062E00E947E
:1009D000C60382E064E041E00E94FD0082E064E042
:1009E00041E00E94E10182E062E00E94C5028823AA
:1009F000D1F782E064E00E943F0382E062E00E945F
:0C0A0000C5028823D1F3EFCFF894FFCF9C
:00000001FF
