:100000000C942A000C9447000C9447000C94470071
:100010000C9447000C9447000C9447000C94470044
:100020000C9447000C9447000C94DA0F0C94870F43
:100030000C9447000C9447000C9447000C94470024
:100040000C9447000C9447000C9447000C94470014
:100050000C94470011241FBECFE5D8E0DEBFCDBF12
:1000600011E0A8E6B1E001C01D92A237B107E1F7A7
:1000700011E0A0E6B0E0E6E7F1E202C005900D92E3
:10008000A836B107D9F70E9407100C94B9100C9448
:100090000000EF92FF920F931F937B018C0120E0F1
:1000A00030E040E05FE40E94C50388238CF0C80183
:1000B000B70120E030E040E05FE40E94C1010E940F
:1000C000F5039B01AC01205030404040504806C031
:1000D000C801B7010E94F5039B01AC01B901CA0137
:1000E0001F910F91FF90EF900895A0E0B0E0EBE733
:1000F000F0E00C948210DC012B01FA019C9192300B
:1001000008F439C1EB018881823008F433C194309E
:1001100069F4843009F02FC111969C91119789815F
:10012000981709F428C1A0E6B0E025C1843009F48D
:1001300021C18230A9F4923009F01DC19A01AD01AC
:1001400088E0EA010990AE01E90109929E0181501F
:10015000C1F7E201898111969C918923818308C1AD
:10016000923009F407C112962D903C901397EB0141
:100170008A819B811496AD90BD90CD90DC901797AD
:10018000EC80FD800E811F819101281B390BB90184
:1001900037FF04C066277727621B730B6032710537
:1001A0000CF061C0121613066CF537014801062EDB
:1001B00004C096948794779467940A94D2F721E0C8
:1001C00030E040E050E004C0220F331F441F551FB1
:1001D0006A95D2F721503040404050402E213F21B7
:1001E00040235123211531054105510521F021E01E
:1001F00030E040E050E079018A01E628F72808293C
:1002000019293CC0232BD1F1260E371E350146019A
:10021000062E04C096948794779467940A94D2F734
:1002200021E030E040E050E004C0220F331F441FC3
:10023000551F6A95D2F721503040404050402A2146
:100240003B214C215D21211531054105510521F04E
:1002500021E030E040E050E059016A01A628B728CB
:10026000C828D9280BC0821593052CF01C01AA249C
:10027000BB24650103C0EE24FF24870111969C91E5
:10028000D20111968C91981709F445C0992339F041
:10029000A80197012A193B094C095D0906C0A6016E
:1002A00095012E193F09400B510B57FD08C01182D3
:1002B0003382228224833583468357831DC081E0A5
:1002C00081833382228288279927DC01821B930B4A
:1002D000A40BB50B84839583A683B7830DC0220F2F
:1002E000331F441F551F24833583468357838281E0
:1002F000938101979383828324813581468157813D
:10030000DA01C9010197A109B1098F5F9F4FAF4F72
:10031000BF4328F30BC0918333822282EA0CFB1C7B
:100320000C1D1D1DE482F5820683178383E0808304
:10033000248135814681578157FF1AC0C901AA27F8
:1003400097FDA095BA2F81709070A070B0705695EF
:10035000479537952795822B932BA42BB52B848318
:100360009583A683B7838281938101969383828349
:10037000DF0101C0D201CD01CDB7DEB7E2E10C94BF
:100380009E10A0E2B0E0E7ECF1E00C948E106983DF
:100390007A838B839C832D833E834F835887E9E048
:1003A000EE2EF12CEC0EFD1ECE010196B7010E943F
:1003B000E6058E010F5E1F4FCE010596B8010E9423
:1003C000E6058A8991E089278A8BC701B801AE01C9
:1003D000475E5F4F0E9475000E941105A096E6E0FF
:1003E0000C94AA10A0E2B0E0E8EFF1E00C948E10BB
:1003F00069837A838B839C832D833E834F835887C5
:10040000F9E0EF2EF12CEC0EFD1ECE010196B701A6
:100410000E94E6058E010F5E1F4FCE010596B801C2
:100420000E94E605C701B801AE01475E5F4F0E941A
:1004300075000E941105A096E6E00C94AA10A0E2B7
:10044000B0E0E5E2F2E00C94821069837A838B835A
:100450009C832D833E834F835887CE010196BE0136
:10046000675F7F4F0E94E605CE010596BE016F5E75
:100470007F4F0E94E6059985923088F08989823005
:10048000C8F0943019F4823051F404C0843029F457
:10049000923081F480E690E0C6C0923049F420E0CA
:1004A0009A858A89981321E02A87CE010996BBC0D4
:1004B000823049F420E09A858A89981321E02A8BBA
:1004C000CE014196B0C02D843E844F8458886D88FB
:1004D0007E888F88988CEE24FF248701AA24BB2471
:1004E000650140E050E060E070E0E0E0F0E0C10174
:1004F00081709070892BE9F0E60CF71C081D191D1E
:100500009A01AB012A0D3B1D4C1D5D1D80E090E062
:10051000A0E0B0E0E614F7040805190520F481E036
:1005200090E0A0E0B0E0BA01A901480F591F6A1F8E
:100530007B1FAA0CBB1CCC1CDD1C97FE08C081E0F5
:1005400090E0A0E0B0E0A82AB92ACA2ADB2A3196B6
:10055000E032F10549F0660C771C881C991C569412
:10056000479437942794C3CFFA85EA892B893C892D
:100570008B859C85280F391F2E5F3F4F17C0CA01FE
:1005800081709070892B61F016950795F794E79428
:1005900080E090E0A0E0B0E8E82AF92A0A2B1B2BC3
:1005A00076956795579547952F5F3F4F77FDE7CF36
:1005B0000CC0440F551F661F771F17FD4160EE0CDE
:1005C000FF1C001F111F21503040403090E05907A0
:1005D00090E0690790E4790760F32B8F3C8FDB0193
:1005E000CA018F779070A070B07080349105A1051A
:1005F000B10561F447FD0AC0E114F10401051105DC
:1006000029F0405C5F4F6F4F7F4F40781A8EFE1786
:1006100011F081E08A8F4D8F5E8F6F8F78A383E01A
:10062000898FCE0149960E941105A096E2E10C94B3
:100630009E10A8E1B0E0EFE1F3E00C948A1069832A
:100640007A838B839C832D833E834F835887B9E0C5
:10065000EB2EF12CEC0EFD1ECE010196B7010E948F
:10066000E6058E010F5E1F4FCE010596B8010E9470
:10067000E6052985223008F47EC03989323010F42D
:10068000B8017CC08A859A8989278A87243011F02D
:10069000223031F4231709F06EC060E670E06EC0BE
:1006A000343039F41D861E861F86188A1C861B86E8
:1006B00004C0323021F484E08987B7015FC02B8504
:1006C0003C858B899C89281B390B3C872B87ED84C3
:1006D000FE840F851889AD88BE88CF88D88CEA142F
:1006E000FB040C051D0540F4EE0CFF1C001F111F40
:1006F000215030403C872B8720E030E040E050E044
:1007000080E090E0A0E0B0E460E070E0EA14FB0478
:100710000C051D0540F0282B392B4A2B5B2BEA18C2
:10072000FB080C091D09B695A79597958795EE0CC2
:10073000FF1C001F111F6F5F7F4F6F31710531F775
:10074000DA01C9018F779070A070B0708034910584
:10075000A105B10561F427FD0AC0E114F10401050A
:10076000110529F0205C3F4F4F4F5F4F20782D87B8
:100770003E874F87588BBE01675F7F4FCB010E943A
:1007800011056896EAE00C94A610A8E1B0E0EBEC45
:10079000F3E00C948E1069837A838B839C832D8382
:1007A0003E834F83588789E0E82EF12CEC0EFD1E26
:1007B000CE010196B7010E94E6058E010F5E1F4F24
:1007C000CE010596B8010E94E6058985823040F089
:1007D0008989823028F0C701B8010E945E0601C0F5
:1007E0008FEF6896E6E00C94AA10ACE0B0E0EBEF77
:1007F000F3E00C94921069837A838B839C83CE01FF
:100800000196BE016B5F7F4F0E94E6058D818230AD
:1008100061F1823050F1843021F48E81882351F1CE
:100820002EC02F81388537FD20C06E812F313105D4
:100830001CF06623F9F023C08EE190E0821B930B3D
:1008400029853A854B855C8504C056954795379533
:1008500027958A95D2F76623B1F05095409530954B
:1008600021953F4F4F4F5F4F0EC020E030E040E0FA
:1008700050E009C02FEF3FEF4FEF5FE704C020E0EB
:1008800030E040E050E8B901CA012C96E2E00C9457
:10089000AE10A8E0B0E0EFE4F4E00C948A107B0125
:1008A0008C01611571058105910519F482E0898338
:1008B00060C083E089838EE1C82ED12CDC82CB829C
:1008C000ED82FE820F831887C801B7010E94C2041F
:1008D000FC013197F7FF3BC0222733272E1B3F0B2C
:1008E00057016801022E04C0D694C794B794A79408
:1008F0000A94D2F740E050E060E070E081E090E0E0
:10090000A0E0B0E004C0880F991FAA1FBB1F2A9562
:10091000D2F70197A109B1098E219F21A023B1230C
:100920000097A105B10521F041E050E060E070E0E2
:100930004A295B296C297D294D835E836F837887E3
:100940008EE190E08E1B9F0B9C838B8312C03097AF
:1009500081F00E2E04C0EE0CFF1C001F111F0A9424
:10096000D2F7ED82FE820F831887CE1ADF0ADC826F
:10097000CB821A82CE0101960E9411052896EAE0E8
:100980000C94A610EF92FF920F931F937B018C01A2
:1009900080E0E81680E0F80681E0080780E01807AC
:1009A00088F48FEFE816F1040105110531F028F005
:1009B00088E090E0A0E0B0E017C080E090E0A0E028
:1009C000B0E012C080E0E81680E0F80680E008079A
:1009D00081E0180728F088E190E0A0E0B0E004C0D2
:1009E00080E190E0A0E0B0E020E230E040E050E0C4
:1009F000281B390B4A0B5B0B04C016950795F7941F
:100A0000E7948A95D2F7F701E859FF4F8081281BB8
:100A1000310941095109C9011F910F91FF90EF90D0
:100A20000895DF92EF92FF920F931F93FC01E480F1
:100A3000F58006811781D1808081823048F480E082
:100A400090E0A0E1B0E0E82AF92A0A2B1B2BA5C010
:100A5000843009F49FC0823021F4EE24FF24870102
:100A600005C0E114F1040105110519F4E0E0F0E01E
:100A700096C0628173819FEF623879070CF05BC08A
:100A800022E83FEF261B370B2A3131052CF020E0FE
:100A900030E040E050E02AC0B801A701022E04C0B7
:100AA00076956795579547950A94D2F781E090E03F
:100AB000A0E0B0E004C0880F991FAA1FBB1F2A95B1
:100AC000D2F70197A109B1098E219F21A023B1235B
:100AD0000097A105B10521F081E090E0A0E0B0E031
:100AE0009A01AB01282B392B4A2B5B2BDA01C90168
:100AF0008F779070A070B07080349105A105B1051A
:100B000039F427FF09C0205C3F4F4F4F5F4F04C0AF
:100B1000215C3F4F4F4F5F4FE0E0F0E02030A0E01E
:100B20003A07A0E04A07A0E45A0710F0E1E0F0E03D
:100B300079018A0127C06038710564F5FB01E1582D
:100B4000FF4FD801C7018F779070A070B0708034CC
:100B50009105A105B10539F4E7FE0DC080E490E0F0
:100B6000A0E0B0E004C08FE390E0A0E0B0E0E80EC9
:100B7000F91E0A1F1B1F17FF05C016950795F7944E
:100B8000E794319687E016950795F794E7948A9550
:100B9000D1F705C0EE24FF248701EFEFF0E06E2FC0
:100BA000679566276795902F9F77D794DD24D79414
:100BB0008E2F8695492F462B582F5D29B701CA01E4
:100BC0001F910F91FF90EF90DF900895FC01DB01E2
:100BD000408151812281622F6F7770E0221F22278E
:100BE000221F9381892F880F822B282F30E0991F95
:100BF0009927991F11969C93119721153105A9F5F5
:100C0000411551056105710511F482E037C082E894
:100C10009FEF13969C938E9312979A01AB0167E016
:100C2000220F331F441F551F6A95D1F783E08C9321
:100C30000DC0220F331F441F551F12968D919C919A
:100C40001397019713969C938E931297203080E010
:100C5000380780E0480780E4580758F314962D932E
:100C60003D934D935C93179708952F3F310579F489
:100C7000411551056105710519F484E08C930895BF
:100C800064FF03C081E08C9312C01C9210C02F57E8
:100C9000304013963C932E93129783E08C9387E019
:100CA000440F551F661F771F8A95D1F770641496FD
:100CB0004D935D936D937C93179708951F93DC017B
:100CC000FB019C91923008F447C08081823008F487
:100CD00043C0943051F411961C91843099F5818170
:100CE000682F70E0611B71093FC0843021F09230A1
:100CF00031F48230B9F18181882389F12DC01196B8
:100D00001C9111978230F1F081811817D9F4129655
:100D10002D913C911397828193818217930794F0D0
:100D200028173907BCF014968D919D910D90BC91B8
:100D3000A02D2481358146815781281739074A071C
:100D40005B0718F4112341F00AC082179307A40728
:100D5000B50740F4112319F061E070E005C06FEFB2
:100D60007FEF02C060E070E0CB011F910895DF9338
:100D7000CF9300D000D0CDB7DEB78A836B834C838E
:100D800019828A81823018F08A81833061F58B81E3
:100D9000883048F58C81823030F5A7E2B0E0E7E298
:100DA000F0E08081282F2F718A81882F90E0002425
:100DB000969587950794969587950794982F802DFB
:100DC000282B8C81882F90E0880F991F829592950F
:100DD000907F9827807F9827822B8C93E6E2F0E023
:100DE0008B81808302C081E0898389810F900F907D
:100DF0000F900F90CF91DF910895DF93CF9300D0A4
:100E000000D0CDB7DEB79B838A836C8319828A8139
:100E10009B810097B9F00E9450078C810E942C079B
:100E200089838981882381F40E946C07E5E2F0E0E0
:100E30008081882F90E0EA81FB81918380830E94EA
:100E40007E0702C082E0898389810F900F900F9006
:100E50000F90CF91DF910895DF93CF9300D0CDB75E
:100E6000DEB78A8319828A81883090F4A7E2B0E0E5
:100E7000E7E2F0E08081982F907E8A81892B8C9325
:100E8000A6E2B0E0E6E2F0E0808180648C9302C0EC
:100E900081E0898389810F900F90CF91DF91089530
:100EA000DF93CF93CDB7DEB7A6E2B0E0E6E2F0E0A5
:100EB000808180688C93CF91DF910895DF93CF93E9
:100EC000CDB7DEB7A6E2B0E0E6E2F0E080818F7752
:100ED0008C93CF91DF910895DF93CF93CDB7DEB799
:100EE000E6E2F0E0808182958F70882F90E081703B
:100EF00090700097A9F3CF91DF910895DF93CF937E
:100F0000CDB7DEB7A6E2B0E0E6E2F0E08081806136
:100F10008C93CF91DF910895DF93CF9300D000D0D1
:100F20000F92CDB7DEB78A836B8319828A81282F0F
:100F300030E03D832C838C819D8182309105D9F0F6
:100F40002C813D812330310534F48C819D818130A9
:100F5000910561F01FC02C813D812330310581F066
:100F60008C819D818430910581F014C0E9E3F0E02B
:100F70008B81818311C0E6E3F0E08B8181830CC01B
:100F8000E3E3F0E08B81818307C0E0E3F0E08B8155
:100F9000818302C081E0898389810F900F900F9037
:100FA0000F900F90CF91DF910895DF93CF9300D0F2
:100FB00000D00F92CDB7DEB78A836B8319828A8106
:100FC000282F30E03D832C838C819D8182309105D8
:100FD000D9F02C813D812330310534F48C819D8101
:100FE0008130910561F01FC02C813D812330310596
:100FF00081F08C819D818430910581F014C0E9E3FA
:10100000F0E08B81828311C0E6E3F0E08B81828384
:101010000CC0E3E3F0E08B81828307C0E0E3F0E003
:101020008B81828302C081E0898389810F900F9038
:101030000F900F900F90CF91DF910895DF93CF9392
:1010400000D000D000D0CDB7DEB79B838A836C83FD
:1010500019828C81282F30E03E832D838D819E81E3
:1010600082309105E9F02D813E812330310534F441
:101070008D819E818130910561F027C02D813E8157
:1010800023303105A1F08D819E8184309105B1F02E
:101090001CC0E9E3F0E08081EA81FB81808317C016
:1010A000E6E3F0E08081EA81FB81808310C0E3E326
:1010B000F0E08081EA81FB81808309C0E0E3F0E019
:1010C0008081EA81FB81808302C081E089838981FC
:1010D00026960FB6F894DEBF0FBECDBFCF91DF913D
:1010E0000895DF93CF93CDB7DEB72A970FB6F89464
:1010F000DEBF0FBECDBF8A836B834C8319828B8189
:10110000883008F0D9C18C81813009F07CC08A8197
:10111000282F30E03A87298789859A858230910582
:1011200069F129853A852330310534F489859A851A
:101130008130910569F064C029853A8523303105F5
:1011400099F189859A858430910509F443C058C086
:10115000A9E3B0E0E9E3F0E08181482F8B81282FFB
:1011600030E081E090E0022E02C0880F991F0A94BF
:10117000E2F7842B11968C931197A0C1A6E3B0E0FF
:10118000E6E3F0E08181482F8B81282F30E081E079
:1011900090E0022E02C0880F991F0A94E2F7842B78
:1011A00011968C9311978AC1A3E3B0E0E3E3F0E0DA
:1011B0008181482F8B81282F30E081E090E0022E42
:1011C00002C0880F991F0A94E2F7842B11968C9322
:1011D000119774C1A0E3B0E0E0E3F0E08181482F13
:1011E0008B81282F30E081E090E0022E02C0880F32
:1011F000991F0A94E2F7842B11968C9311975EC184
:1012000081E089835BC18C81823009F080C08A8152
:10121000282F30E038872F838F8198858230910581
:1012200071F12F8138852330310534F48F81988511
:101230008130910569F068C02F81388523303105F0
:10124000A9F18F8198858430910509F446C05CC06E
:10125000A9E3B0E0E9E3F0E08181482F8B81282FFA
:1012600030E081E090E0022E02C0880F991F0A94BE
:10127000E2F78095842311968C9311971FC1A6E302
:10128000B0E0E6E3F0E08181482F8B81282F30E049
:1012900081E090E0022E02C0880F991F0A94E2F7C5
:1012A0008095842311968C93119708C1A3E3B0E035
:1012B000E3E3F0E08181482F8B81282F30E081E04B
:1012C00090E0022E02C0880F991F0A94E2F78095E1
:1012D000842311968C931197F1C0A0E3B0E0E0E372
:1012E000F0E08181482F8B81282F30E081E090E071
:1012F000022E02C0880F991F0A94E2F7809584237A
:1013000011968C931197DAC081E08983D7C08C81C4
:10131000833009F0CEC08A81282F30E03E832D83B0
:101320008D819E818230910509F442C02D813E81DC
:101330002330310534F48D819E818130910571F027
:10134000B5C02D813E812330310509F45BC08D810C
:101350009E818430910509F47FC0A8C0A9E3B0E064
:10136000E9E3F0E08181482F8B81282F30E081E094
:1013700090E002C0880F991F2A95E2F78095842398
:1013800011968C93A9E3B0E0E9E3F0E08281482F65
:101390008B81282F30E081E090E0022E02C0880F80
:1013A000991F0A94E2F7842B12968C93129786C0A9
:1013B000A6E3B0E0E6E3F0E08181482F8B81282F9F
:1013C00030E081E090E002C0880F991F2A95E2F793
:1013D0008095842311968C93A6E3B0E0E6E3F0E0D9
:1013E0008281482F8B81282F30E081E090E0022E0F
:1013F00002C0880F991F0A94E2F7842B12968C93EF
:1014000012975CC0A3E3B0E0E3E3F0E08181482FF2
:101410008B81282F30E081E090E002C0880F991F77
:101420002A95E2F78095842311968C93A3E3B0E08C
:10143000E3E3F0E08281482F8B81282F30E081E0C8
:1014400090E0022E02C0880F991F0A94E2F7842BC5
:1014500012968C93129732C0A0E3B0E0E0E3F0E084
:101460008181482F8B81282F30E081E090E002C0FD
:10147000880F991F2A95E2F78095842311968C9303
:10148000A0E3B0E0E0E3F0E08281482F8B81282FD9
:1014900030E081E090E0022E02C0880F991F0A948C
:1014A000E2F7842B12968C93129708C081E089830F
:1014B00005C081E0898302C081E0898389812A9601
:1014C0000FB6F894DEBF0FBECDBFCF91DF91089568
:1014D000DF93CF93CDB7DEB728970FB6F894DEBF72
:1014E0000FBECDBF8A836B834C8319828B8188307A
:1014F00008F007C18C81823009F07CC08A81282FD6
:1015000030E038872F838F8198858230910569F18B
:101510002F8138852330310534F48F8198858130CF
:10152000910569F064C02F8138852330310599F128
:101530008F8198858430910509F443C058C0A9E390
:10154000B0E0E9E3F0E08281482F8B81282F30E082
:1015500081E090E0022E02C0880F991F0A94E2F702
:10156000842B12968C931297CEC0A6E3B0E0E6E3EC
:10157000F0E08281482F8B81282F30E081E090E0DD
:10158000022E02C0880F991F0A94E2F7842B12964C
:101590008C931297B8C0A3E3B0E0E3E3F0E082815C
:1015A000482F8B81282F30E081E090E0022E02C08E
:1015B000880F991F0A94E2F7842B12968C93129746
:1015C000A2C0A0E3B0E0E0E3F0E08281482F8B818D
:1015D000282F30E081E090E0022E02C0880F991F92
:1015E0000A94E2F7842B12968C9312978CC081E0B8
:1015F000898389C08C81813009F080C08A81282F3D
:1016000030E03E832D838D819E818230910571F182
:101610002D813E812330310534F48D819E818130CE
:10162000910569F068C02D813E8123303105A9F113
:101630008D819E818430910509F446C05CC0A9E388
:10164000B0E0E9E3F0E08281482F8B81282F30E081
:1016500081E090E0022E02C0880F991F0A94E2F701
:101660008095842312968C9312974DC0A6E3B0E028
:10167000E6E3F0E08281482F8B81282F30E081E083
:1016800090E0022E02C0880F991F0A94E2F780951D
:10169000842312968C93129736C0A3E3B0E0E3E361
:1016A000F0E08281482F8B81282F30E081E090E0AC
:1016B000022E02C0880F991F0A94E2F780958423B6
:1016C00012968C9312971FC0A0E3B0E0E0E3F0E025
:1016D0008281482F8B81282F30E081E090E0022E1C
:1016E00002C0880F991F0A94E2F78095842312960E
:1016F0008C93129708C081E0898305C081E08983BB
:1017000002C081E08983898128960FB6F894DEBFF4
:101710000FBECDBFCF91DF910895DF93CF93CDB7AB
:10172000DEB727970FB6F894DEBF0FBECDBF9B8301
:101730008A836C834D8319828A819B81009719F477
:1017400082E089837AC08D81883008F074C08C81F2
:10175000282F30E03F832E834E815F814230510538
:1017600059F18E819F818330910534F42E813F8120
:101770002130310569F05CC04E815F8143305105F5
:1017800079F18E819F818430910509F43DC050C06C
:10179000E9E3F0E08081282F30E08D81882F90E010
:1017A000A90102C0559547958A95E2F7CA01817053
:1017B000EA81FB81808341C0E6E3F0E08081282F4D
:1017C00030E08D81882F90E0A90102C055954795A2
:1017D0008A95E2F7CA018170EA81FB8180832DC07E
:1017E000E3E3F0E08081282F30E08D81882F90E0C6
:1017F000A90102C0559547958A95E2F7CA01817003
:10180000EA81FB81808319C0E0E3F0E08081282F2A
:1018100030E08D81882F90E0A90102C05595479551
:101820008A95E2F7CA018170EA81FB81808305C055
:1018300081E0898302C081E08983898127960FB680
:10184000F894DEBF0FBECDBFCF91DF910895DF9337
:10185000CF9300D000D00F92CDB7DEB78A836B83D1
:1018600019828B81883008F07CC08A81282F30E073
:101870003D832C838C819D818230910569F12C817F
:101880003D812330310534F48C819D818130910577
:1018900069F064C02C813D812330310599F18C8140
:1018A0009D818430910509F443C058C0A9E3B0E09C
:1018B000E9E3F0E08281482F8B81282F30E081E03E
:1018C00090E0022E02C0880F991F0A94E2F7842745
:1018D00012968C93129747C0A6E3B0E0E6E3F0E0DF
:1018E0008281482F8B81282F30E081E090E0022E0A
:1018F00002C0880F991F0A94E2F7842712968C93EE
:10190000129731C0A3E3B0E0E3E3F0E08281482F17
:101910008B81282F30E081E090E0022E02C0880FFA
:10192000991F0A94E2F7842712968C9312971BC092
:10193000A0E3B0E0E0E3F0E08281482F8B81282F24
:1019400030E081E090E0022E02C0880F991F0A94D7
:10195000E2F7842712968C93129705C081E0898361
:1019600002C082E0898389810F900F900F900F90C1
:101970000F90CF91DF910895DF93CF93CDB7DEB76E
:1019800029970FB6F894DEBF0FBECDBF8A836B8355
:101990004C832D8319828A81833008F098C08B8113
:1019A000883008F094C08C81843008F090C08D811C
:1019B000843008F08CC08A81282F30E0398728874E
:1019C000888599858130910509F483C028853985FA
:1019D0002230310509F47DC088859985009709F08A
:1019E00073C08C81282F30E03F832E838E819F81AE
:1019F0008130910521F12E813F81223031052CF477
:101A00008E819F81009761F047C02E813F812230F7
:101A1000310521F18E819F818330910571F13CC0A8
:101A2000A3E5B0E0E3E5F0E08081877F8C93A3E558
:101A3000B0E0E3E5F0E080818F7B8C932FC0A3E5DD
:101A4000B0E0E3E5F0E0808188608C93A3E5B0E04E
:101A5000E3E5F0E080818F7B8C9320C0A3E5B0E0CC
:101A6000E3E5F0E0808188608C93A3E5B0E0E3E5F6
:101A7000F0E0808180648C9311C0A3E5B0E0E3E5E1
:101A8000F0E0808180648C93A3E5B0E0E3E5F0E0D2
:101A90008081877F8C9302C081E08983A3E5B0E0D9
:101AA000E3E5F0E08081282F2F7C8D81882F90E066
:101AB00082959295907F9827807F9827822B8C9390
:101AC0008B8180936E0105C081E0898302C081E033
:101AD0008983898129960FB6F894DEBF0FBECDBFEA
:101AE000CF91DF910895DF93CF93CDB7DEB7A3E514
:101AF000B0E0E3E5F0E0808180688C93CF91DF91E6
:101B00000895DF93CF9300D0CDB7DEB78A831982D3
:101B10008A818830A0F4A9E5B0E0E9E5F0E08081B1
:101B2000482F8A81282F30E081E090E0022E02C009
:101B3000880F991F0A94E2F7842B8C9302C081E0EE
:101B4000898389810F900F90CF91DF910895DF9362
:101B5000CF9300D0CDB7DEB78A8319828A818830CF
:101B6000A8F4A9E5B0E0E9E5F0E08081482F8A819A
:101B7000282F30E081E090E0022E02C0880F991FEC
:101B80000A94E2F7809584238C9302C081E08983D4
:101B900089810F900F90CF91DF910895DF93CF93BC
:101BA00000D000D000D0CDB7DEB79B838A836C8392
:101BB00019828A819B81009701F18C81282F30E066
:101BC0003E832D838D819E81009731F02D813E8152
:101BD0002130310541F00EC08A819B8190936901CB
:101BE000809368010CC08A819B8190936B018093E4
:101BF0006A0105C081E0898302C082E0898389810E
:101C000026960FB6F894DEBF0FBECDBFCF91DF9101
:101C10000895DF93CF9300D000D0CDB7DEB78A838D
:101C200019828A81282F30E03C832B838B819C8111
:101C300081309105B9F02B813C812230310591F042
:101C40008B819C81009761F4A3E5B0E0E3E5F0E0CF
:101C50008081982F987F80916E01892B8C9302C090
:101C600081E0898389810F900F900F900F90CF9121
:101C7000DF910895DF93CF9300D000D0CDB7DEB7CA
:101C80008A8319828A81282F30E03C832B838B81C1
:101C90009C818130910599F02B813C812230310566
:101CA00071F08B819C81009741F4A3E5B0E0E3E5FE
:101CB000F0E08081887F8C9302C081E089838981F4
:101CC0000F900F900F900F90CF91DF910895DF93B9
:101CD000CF9300D000D000D0CDB7DEB78A837C830D
:101CE0006B8319828A81282F30E03E832D838D817A
:101CF0009E818130910581F02D813E812230310518
:101D000059F08D819E81009729F4ECE5F0E08B81FC
:101D1000808302C081E08983898126960FB6F8947A
:101D2000DEBF0FBECDBFCF91DF910895EF92FF923E
:101D30000F931F93DF93CF93CDB7DEB764970FB6A2
:101D4000F894DEBF0FBECDBF8C874D875E876F874F
:101D5000788B1B868C85282F30E03C8B2B8B8B89D6
:101D60009C898130910509F4C4C02B893C892230BB
:101D7000310509F4BEC08B899C89009709F0B7C072
:101D800080916E01282F30E03A8B298B89899A89BE
:101D90008330910529F129893A89243031055CF491
:101DA00089899A898130910589F029893A89223077
:101DB000310589F024C089899A8984309105A9F078
:101DC00029893A8925303105A9F019C081E090E0D0
:101DD0009A83898316C088E090E09A83898311C032
:101DE00080E490E09A8389830CC080E091E09A833C
:101DF000898307C080E094E09A83898302C081E0F0
:101E00008B8789819A81CC01A0E0B0E0BC01CD0133
:101E10000E944904DC01CB01BC01CD0120E034E289
:101E200044EF5AE40E941903DC01CB018F839887A9
:101E3000A987BA876F81788589859A8520E030E007
:101E400040E853E40E941F02DC01CB018B839C839A
:101E5000AD83BE836D857E858F8598890E944904F8
:101E6000DC01CB01BC01CD0120E030E04AE754E4C5
:101E70000E941903DC01CB01BC01CD012B813C8107
:101E80004D815E810E941903DC01CB01BC01CD01B3
:101E90000E944900DC01CB019093700180936F0197
:101EA0008D859E85AF85B88928EE33E040E050E00F
:101EB000BC01CD010E946010DA01C9017C018D01D5
:101EC0006B817C818D819E810E9449009B01AC01C8
:101ED000C801B7010E946010DC01CB01819580939D
:101EE0007101E2E5F0E080917101808302C081E040
:101EF0008B878B8564960FB6F894DEBF0FBECDBF7F
:101F0000CF91DF911F910F91FF90EF9008951F9255
:101F10000F920FB60F9211242F933F934F935F931D
:101F20006F937F938F939F93AF93BF93EF93FF93A1
:101F3000DF93CF93CDB7DEB78091680190916901AF
:101F4000009729F180916C0190916D010196909319
:101F50006D0180936C0180916F01909170019C01E3
:101F60002F5F3F4F80916C0190916D0128173907C9
:101F700071F410926D0110926C01E2E5F0E0809135
:101F800071018083E0916801F09169010995CF9119
:101F9000DF91FF91EF91BF91AF919F918F917F91D1
:101FA0006F915F914F913F912F910F900FBE0F90C6
:101FB0001F9018951F920F920FB60F9211242F9316
:101FC0003F934F935F936F937F938F939F93AF93C1
:101FD000BF93EF93FF93DF93CF93CDB7DEB7E0913D
:101FE0006A01F0916B010995CF91DF91FF91EF911B
:101FF000BF91AF919F918F917F916F915F914F9121
:102000003F912F910F900FBE0F901F901895DF9367
:10201000CF9300D0CDB7DEB71A82198282E063E099
:1020200041E00E94710881E062E041E00E94B70651
:102030000E94500780E064E043E022E00E94BC0C74
:1020400080E00E94090ECE01029660E00E94FD062B
:102050008A81882F90E0A0E0B0E0BC01CD010E9411
:102060004904DC01CB01BC01CD0120E030E040E7B8
:1020700051E40E941F02DC01CB01BC01CD0120E034
:1020800030E04FE753E40E941903DC01CB01BC01AF
:10209000CD0120E030E040E851E40E94F201DC0193
:1020A000CB01BC01CD010E944900DC01CB01898339
:1020B0008981282F30E080E0B9010E94670EC3CFEC
:1020C000A1E21A2EAA1BBB1BFD010DC0AA1FBB1F3C
:1020D000EE1FFF1FA217B307E407F50720F0A21BAE
:1020E000B30BE40BF50B661F771F881F991F1A941B
:1020F00069F760957095809590959B01AC01BD0145
:10210000CF0108952F923F924F925F926F927F92EC
:102110008F929F92AF92BF92CF92DF92EF92FF92F7
:102120000F931F93CF93DF93CDB7DEB7CA1BDB0BA3
:102130000FB6F894DEBF0FBECDBF09942A88398848
:1021400048885F846E847D848C849B84AA84B9844F
:10215000C884DF80EE80FD800C811B81AA81B9815B
:10216000CE0FD11D0FB6F894DEBF0FBECDBFED016F
:062170000895F894FFCF72
:102176000000000000000000000102020303030348
:102186000404040404040404050505050505050501
:1021960005050505050505050606060606060606E1
:1021A60006060606060606060606060606060606C9
:1021B60006060606060606060707070707070707B1
:1021C6000707070707070707070707070707070799
:1021D6000707070707070707070707070707070789
:1021E6000707070707070707070707070707070779
:1021F6000707070707070707080808080808080861
:102206000808080808080808080808080808080848
:102216000808080808080808080808080808080838
:102226000808080808080808080808080808080828
:102236000808080808080808080808080808080818
:102246000808080808080808080808080808080808
:1022560008080808080808080808080808080808F8
:1022660008080808080808080808080808080808E8
:08227600080808080808080820
:00000001FF
